:020000040800F2
:10000000285500206102000841440008FB30000828
:100010003D440008B10A0008034A0008000000003F
:10002000000000000000000000000000A101000826
:10003000DF0B000800000000FD010008A5470008D4
:100040007B0200087B0200087B0200087B0200089C
:100050007B0200087B0200087B0200087B0200088C
:100060007B0200087B020008ED0B00087B02000801
:100070007B0200087B0200087B0200087B0200086C
:100080007B0200087B0200087B0200087B0200085C
:100090007B0200087B0200087B0200087B0200084C
:1000A0007B0200087B0200087B0200087B0200083C
:1000B0007B0200087B020008854800087B020008DC
:1000C0007B0200087B0200087B020008054600084E
:1000D0007B0200087B0200087B0200087B0200080C
:1000E000E10B00087B0200087B0200087B0200088D
:1000F0007B020008954800087B0200087B0200088C
:100100007B0200087B0200087B0200087B020008DB
:100110007B0200087B0200087B0200087B020008CB
:10012000B50A00087B0200087B020008C50A000827
:100130007B0200087B0200087B0200087B020008AB
:100140007B0200087B0200087B0200087B0200089B
:100150007B0200087B0200087B0200087B0200088B
:100160007B0200087B0200087B0200087B0200087B
:100170007B0200087B0200087B02000800000000F0
:100180007B0200087B020008DFF810D000F004FBBF
:10019000004800475D510008AFF30080285500205B
:1001A0002C4B19680868B0E8F04F80F30988BFF35A
:1001B0006F8F4FF0000080F311887047000000003F
:1001C00008480068006880F308884FF0000080F35A
:1001D000148862B661B6BFF34F8FBFF36F8F00DF35
:1001E00000BF00BF08ED00E0DFF80C00016841F43B
:1001F00070010160704700BF88ED00E0EFF30980F7
:10020000BFF36F8F134B1A681EF0100F08BF20ED5D
:10021000108A20E9F04F106009B44FF0500080F3CD
:100220001188BFF34F8FBFF36F8F06F05FFA4FF067
:10023000000080F3118809BC19680868B0E8F04F25
:100240001EF0100F08BFB0EC108A80F30988BFF3CE
:100250006F8F704718000020EFF305807047000093
:100260000648804706480047FEE7FEE7FEE7FEE750
:10027000FEE7FEE7FEE7FEE7FEE7FEE7714800085F
:10028000890100082DE9F05F0546002092469B4653
:1002900088460646814640241BE02846414647469C
:1002A000224600F064F953465A46C01A914110D3D1
:1002B00011461846224600F04BF92D1A67EB01084B
:1002C0004F4622460120002100F042F917EB0009B9
:1002D0004E41201EA4F10104DFDC484631462A4687
:1002E0004346BDE8F09F40EA01039B0703D009E0C5
:1002F00008C9121F08C0042AFAD203E011F8013B12
:1003000000F8013B521EF9D27047D2B201E000F86A
:10031000012B491EFBD270470022F6E710B51346A9
:100320000A4604461946FFF7F0FF204610BD2DE9A6
:10033000FE4F81EA030404F0004421F000410094E0
:100340004FF0000B23F0004350EA01045ED052EA64
:1003500003045BD0C3F30A54C1F30A552C44A4F23E
:10036000F3340194A0FB0254C1F3130141F4801152
:10037000C3F3130343F4801301FB024400FB034E59
:10038000840A970A44EA815447EA8357A4FB076822
:1003900002958D0A05FB07854FEA932C04FB0C544C
:1003A0002705029D4FEA065847EA1637B5EB0805C0
:1003B0006EEB070C870E920E47EA811742EA831212
:1003C000A7FB0201B6EB0B0164EB00042B0D43EA23
:1003D0000C335E1844EB1C50DA465146E7FB020131
:1003E000C5F313044FEA0B3343EA14534FEA0432C4
:1003F000019C43EA0603A4F10C040294009CCDE99D
:1004000000B400F0D3F803B0BDE8F08F002001463F
:10041000F9E72DE9F04D81EA030404F0004B21F0E7
:10042000004514464FF0000A23F0004150EA05024F
:1004300020D054EA01021DD0C5F30A570246C5F385
:100440001303C1F31300C1F30A5640F4801543F4BB
:100450008013A7EB0608101BD64608F2FD3873EB95
:10046000050002D308F1010801E092185B41B8F1E0
:10047000000F03DA00200146BDE8F08D00204FF4A4
:100480008011064684460EE0171B73EB050705D363
:10049000121B63EB050306434CEA010C49084FEAC3
:1004A000300092185B4150EA0107EDD152EA030097
:1004B00012D082EA040083EA0501084305D0101B2C
:1004C000AB4106D20122002306E000224FF0004398
:1004D00002E06FF0010253101AEB06004CEB0851DA
:1004E00010EB0A0041EB0B01BDE8F04D00F04FB8F6
:1004F0000EB5C10F80EAE0700844CA07002140F23F
:1005000033438DE80E000A460B4600F04FF803B067
:1005100000BD70B5C1F30A5201F000450024C1F3DB
:10052000130140F2FF3341F480119A4201DA0020B6
:1005300070BD40F233439A42A2F2334203DC52428E
:1005400000F015F800E090402C43F1D0404270BD1F
:10055000202A04DB203A00FA02F100207047914083
:10056000C2F1200320FA03F3194390407047202A78
:1005700004DB203A21FA02F00021704721FA02F34D
:10058000D040C2F12002914008431946704710B58F
:10059000141E73F1000408DA401C41F100019218A6
:1005A0005B411A4301D120F0010010BD2DE9F04D4F
:1005B00092469B4611B1B1FA81F202E0B0FA80F2A4
:1005C00020329046FFF7C4FF04460F4640EA0A0077
:1005D00041EA0B0153465A46084313D0114653EAE9
:1005E000010019D0C8F140025046FFF7C0FF054690
:1005F0000E46504659464246FFF7AAFF084305D02B
:10060000012004E020463946BDE8F08D0020054376
:1006100046EAE0762C4337430A986305E40AA0EBE8
:1006200008000022FD0A44EA47540A3002D500209F
:100630000146E9E7010510196941DDE9084500199E
:100640006941BDE8F04DA2E72DE9FE4F804681EA01
:100650000300C00F0C46009021F0004123F000453C
:10066000B8EB0200A94105D24046214690461C46FF
:100670000B46024623F00040104347D0270DC7F336
:100680000A00C3F30A510290401A019040286BDA25
:10069000C3F3130040F4801B0098924620B100235E
:1006A000D2EB030A63EB0B0B01985946C0F14002F1
:1006B0005046FFF74DFF06460D4650465946019AF3
:1006C00000F07CF810EB08006141002487EA115229
:1006D00084EAE7731A4340D0009A62B3019A012A70
:1006E0004FEA075215DC001B61EB02014FF000429C
:1006F00002EA0752CDE90042001C41F58011324662
:100700002B46FFF753FF03B0BDE8F08F404621466C
:10071000F9E7001B61EB0201001C41F58013001892
:100720005B412018A2F5001747EB030140EAD570A2
:10073000B6196D4111E06D084FEA360645EAC075FD
:100740004FEA0752001B61EB0201001C41F58011CA
:1007500049084FEA30000019514132462B4603B098
:10076000BDE8F04FFFF713BF0098012240000023BF
:10077000D0EB020263EBE073009821464FEAE0748D
:10078000B8EB000061EB0401E9E783F000435BE7AD
:1007900081F0004158E70000064C074D06E0E06894
:1007A00040F0010394E8070098471034AC42F6D3B8
:1007B000FFF7EEFC94400508B4400508202A06DB4C
:1007C000CB17203A41FA02F043EAE07306E041FA1F
:1007D00002F3D040C2F1200291400843194670470D
:1007E0002DE9F04D00231A461B1A8A4103DB002035
:1007F0000146BDE8F08DC1F30A52C1F3130141F483
:1008000080154FF0000BD10702D100186D41521E28
:100810000027044640F2FF11384601EB620A3E46CB
:100820008046024600204FF48011FFF7A0FEC21957
:100830007141BB1846EB0100B4EB030C75EB000CE7
:1008400004D3E41A65EB000517460E46241908F197
:1008500001006D4180463428E3DDF91946EB0600BE
:10086000091BA84103D24FF0FF32134601E00022DA
:1008700013461BEB070046EB0A51BDE8F04DFFF7AE
:1008800086BE70B50546AC6B206C00F0500050BBC6
:10089000206C40F4007020642068806800F04050B4
:1008A000E8B9207ED8B92068C06A00F4700020B191
:1008B0002068806800F4806088B92068406820F073
:1008C000200021684860206C20F480702064206C37
:1008D00000F4805018B9206C40F0010020642046DC
:1008E00000F09CFA0BE0206C00F0100018B12046DC
:1008F00000F09FFA03E0A06BC16C2846884770BDEA
:1009000070B50546AC6B40202064606C40F004007C
:100910006064204600F08DFA70BD70B50446A56B8A
:10092000284600F085FA70BD55494A6822F44032E5
:100930004A604A6843681A434A600268526822F46F
:10094000807203685A6002685368026943EA0222AF
:1009500003685A600268526822F0407203685A6065
:100960000268526883681A4303685A600268926892
:1009700022F4006203689A6002689268C3681A43AE
:1009800003689A603F4B826A9A4218D00268926864
:1009900022F0706203689A6002689268836A1A4360
:1009A00003689A600268926822F0405203689A6075
:1009B00002689268C36A1A4303689A600BE002688F
:1009C000926822F0706203689A600268926822F06E
:1009D000405203689A600268926822F0020203683B
:1009E0009A6002689368027E43EA420203689A6052
:1009F0002022125CA2B10268526842F400620368CD
:100A00005A600268526822F4604203685A600268C1
:100A10005368426A521E43EA423203685A6005E054
:100A20000268526822F4006203685A600268D26A5F
:100A300022F470020368DA620268D36A828B521E63
:100A400043EA02520368DA620268926822F4007292
:100A500003689A600268936890F8302043EA422263
:100A600003689A600268926822F4806203689A6060
:100A700002689368426943EA822203689A60704779
:100A8000002301400100000F10B528220549064847
:100A900000F066FA002204210A2005F0F3FF034962
:100AA000086010BD164C0020E8000020A4000020C3
:100AB00000BFFEE710B5024800F040FB10BD00008B
:100AC0003001002010B5024800F038FB10BD0000D6
:100AD0003C0200200146087810381823B0FBF3F2DE
:100AE0000848805CC865032A05D908686FF30900C7
:100AF000001D886503E008686FF309008865886D4C
:100B000070470000D0790008014600208A6A8B698E
:100B1000CBB932B1012A0DD0022A03D0032A10D159
:100B20000EE000BFCB6A03F08073B3F1807F00D189
:100B3000012007E0CB6AB3F1C07F00D1012001E0C2
:100B400000E000BF34E08B69B3F5005F1AD132B129
:100B5000012A07D0022A03D0032A11D10AE000BFDC
:100B600001200EE0CB6A03F08073B3F1807F00D1E7
:100B7000012006E0CB6AB3F1C07F00D1012000E084
:100B800000BF15E032B1012A05D0022A04D0032AA1
:100B90000CD103E000BF00BF012008E0CB6A03F0E6
:100BA0008073B3F1807F00D1012000E000BF00BF5F
:100BB000704730B50468246824F4802405682C60EC
:100BC000046863608468402C04D10468A2600468EF
:100BD000E16003E00468A1600468E26030BD704732
:100BE00010B54FF4004000F099FC10BD10B5102076
:100BF00000F094FC10BD72B600BFFEE710B54FF0D8
:100C0000FF310248006806F05DFA10BD00000020C8
:100C10000148006870470000A400002001480068F7
:100C200070470000C40000202DE9F05F07468846A9
:100C300015461E46DDF8289008EB0900401E83B2D9
:100C4000B819401E82B24146384602F065FF0024C2
:100C50000AE015F814B005EB440090F801A04BEA47
:100C60000A2003F015F8641C06FB09F0A042F0DC32
:100C700006484088401E83B204480088401E82B265
:100C80000021084602F048FFBDE8F09F044C002018
:100C900038B502460020009000BF92F83C000128C1
:100CA00001D1022038BD012082F83C0000BF086855
:100CB000092816D91068C0680C780A3C04EB440572
:100CC0000724AC40A0431468E0600C780A3C04EBB5
:100CD00044048868A0401468E46820431468E06015
:100CE00013E0106800690C7804EB44050724AC405D
:100CF000A043146820610C7804EB44048868A04089
:100D0000146824692043146820614868072817D2B2
:100D10001068406B0C79641E04EB84051F24AC4002
:100D2000A04314686063088880B20C79641E04EBE9
:100D30008404A0401468646B20431468606331E04D
:100D400048680D2817D21068006B0C79E41F04EB7B
:100D500084051F24AC40A04314682063088880B237
:100D60000C79E41F04EB8404A0401468246B204336
:100D70001468206316E01068C06A0C790D3C04EB1F
:100D800084051F24AC40A0431468E062088880B248
:100D90000C790D3C04EB8404A0401468E46A204301
:100DA0001468E062194B1A4C1068A04206D108681A
:100DB000122803D1586840F480005860144C106821
:100DC000A0421CD10868102802D00868112816D14A
:100DD000586840F400005860086810280FD10D488A
:100DE00000680D4CB0FBF4F000EB80004000009078
:100DF00002E00098401E009000980028F9D100BF42
:100E0000002082F83C0000BF00BF4BE700230140F8
:100E1000002001401400002040420F0010B504469D
:100E20000248844201D102F035FC10BDE8000020E8
:100E30007047704770B5044600250CB9012070BD9D
:100E40001549A06A884200D000BF206C30B9204606
:100E500000F024F80020606484F83C00206C00F06E
:100E6000100088B9206C20F4885040F00200206403
:100E70002046FFF759FD00206064206C20F002003E
:100E800040F00100206400E0012500BF002084F84C
:100E90003C0000BF2846D2E70100000F10B586B025
:100EA0000446142101A8FFF737FA28492068884230
:100EB0004AD100BF002000902548006840F48070AF
:100EC000234908600846006800F48070009000BF65
:100ED00000BF00BF002000901D481438006840F09B
:100EE00001001B49143908600846006800F0010041
:100EF000009000BF00BF0F2001900320029000204F
:100F0000039001A9134800F017FB13481349086028
:100F100000204860002111488160C1604FF4806169
:100F2000016149004161890081614911C16100216C
:100F30000162416200F022FA08B1FFF75CFE00BFD7
:100F40000648A063846300BF06B010BD00200140C6
:100F5000443802400000024010640240300100208A
:100F6000F8B504460D4616460020009000BF94F8E0
:100F70003C00012801D10220F8BD012084F83C008A
:100F800000BF2068806800F00100A0B92068806878
:100F900040F0010021688860554800685549B0FB61
:100FA000F1F000EB4000009002E00098401E00903D
:100FB00000980028F9D12068806800F48070B0F5AE
:100FC000807F05D12068806820F480702168886067
:100FD0002068806800F0010000287ED0206C40F27C
:100FE0000161884340F4807020642068406800F408
:100FF000806028B1206C20F4005040F480502064C0
:10100000206C00F48050B0F5805F04D1606C20F05B
:101010000600606401E00020606400BF002084F8E6
:101020003C0000BF344F3548A16BC8633448A16B06
:1010300008643448A16BC8646FF02200216808601E
:101040002068406840F080602168486020688068BF
:1010500040F4807021688860226802F14C013346B8
:101060002A46A06B00F000FA786800F01F0018BB59
:1010700025492068884213D024492068884204D139
:10108000381D006800F01F0050B1214920688842D7
:101090002BD11948001D006800F01F00102824D231
:1010A0002068806800F04050F8B92068806840F0FF
:1010B00080402168886018E013492068884214D174
:1010C0002068806800F0405078B92068806840F05F
:1010D00080402168886008E0FFE7206C40F0100045
:1010E0002064606C40F001006064002044E7000070
:1010F0001400002040420F00002301408308000834
:101100001B090008010900080020014000210140DE
:1011100000220140014691F83500022803D08020CA
:10112000486501207047052081F83500086800688F
:1011300020F001000A6810600020F3E7F8B50446CB
:10114000002000908C4800684FF41651B0FBF1F776
:10115000A56D2E6894F85C1008208840304098B146
:101160002068006800F0040070B12068006820F07A
:1011700004002168086094F85C1008208840A8608A
:10118000606D40F00100606594F85C1001208840BB
:10119000304068B12068406900F0800040B194F8A8
:1011A0005C1001208840A860606D40F0020060651E
:1011B00094F85C1004208840304068B120680068D2
:1011C00000F0020040B194F85C1004208840A86050
:1011D000606D40F00400606594F85C101020884059
:1011E000304078B32068006800F0080050B394F8ED
:1011F0005C1010208840A8602068006800F48020FF
:1012000080B12068006800F4002028B9206CC8B1C3
:101210002046216C884715E0A06C98B12046A16C4F
:1012200088470FE02068006800F4807028B92068C3
:10123000006820F0080021680860206C10B120468A
:10124000216C884794F85C102020884030400028AA
:1012500065D02068006800F0100000285FD094F886
:101260005C1020208840A86094F83500052828D11B
:101270002068006820F01600216808602068406936
:1012800020F0800021684861206C08B9A06C28B16A
:101290002068006820F008002168086094F85C105D
:1012A0003F208840A860012084F8350000BF00205E
:1012B00084F8340000BF206D10B12046216D8847AE
:1012C000F8BD2068006800F4802080B120680068C4
:1012D00000F4002028B9606C10B12046616C88478A
:1012E0001DE0E06BD8B12046E16B884717E020682D
:1012F000006800F4807068B92068006820F0100071
:1013000021680860012084F8350000BF002084F8BF
:10131000340000BFE06B10B12046E16B8847606D80
:1013200038B3606D00F00100F0B1052084F835009D
:101330002068006820F001002168086000BF009864
:10134000401C0090B84200D905E02068006800F019
:1013500001000028F3D100BF012084F8350000BF50
:10136000002084F8340000BFE06C10B12046E16C2E
:10137000884700BFA4E70000140000202DE9F041D9
:101380000446002500F0E0F9074614B90120BDE845
:10139000F081606A00B100BF022084F8350000BF10
:1013A000002084F8340000BF2068006820F00100AD
:1013B000216808600AE000F0C7F9C01B052805D9BC
:1013C00020206065032084F83500E0E7206800688D
:1013D00000F001000028EED1206805682148054092
:1013E000D4E901010843E1680843216908436169C0
:1013F0000843A1690843E1690843216A084305439A
:10140000606A042803D1D4E90B010843054320682E
:1014100005602068456925F00705606A0543606A34
:1014200004280DD1A06A0543E06A48B12046FFF7C1
:101430006BFB28B140206065012084F83500A6E7E9
:10144000206845612046FFF745FB064694F85C108E
:101450003F208840B06000206065012084F835009E
:10146000002094E73F8010F02DE9F04704460D4638
:1014700016461F464FF00008D4F8589000BF94F865
:101480003400012802D10220BDE8F087012084F851
:10149000340000BF94F83500012825D1022084F8DB
:1014A0003500002060653B46324629462046FFF75E
:1014B00080FB94F85C103F208840C9F80800206841
:1014C000006840F0160021680860206C28B1206890
:1014D000006840F00800216808602068006840F05B
:1014E00001002168086006E000BF002084F8340095
:1014F00000BF4FF002084046C6E710B50446102C66
:1015000005D0B4F5004F05D102F0D4FB03E003F0A1
:101510000BF800E000BF00BF10BD000010B504468E
:1015200004480068204020B1024804602046FFF7CC
:10153000E4FF10BD143C0140F8B502460B460025FF
:10154000002400200021D6E0012606FA01F51E68DD
:1015500006EA0504AC4274D11E7906F00306012E9A
:1015600004D01E7906F00306022E13D190684F00B6
:101570000326BE40B0434F00DE68BE40304390605B
:10158000506801268E40B0431E79C6F300168E4087
:10159000304350601E7906F00306032E09D0D06850
:1015A0004F000326BE40B0434F009E68BE4030430C
:1015B000D0601E7906F00306022E13D1CF0802F187
:1015C000200656F827004E07F70E0F26BE40B04300
:1015D0004F07FF0E1E69BE403043CF0802F12006C0
:1015E00046F8270010684F000326BE40B0431E791E
:1015F00006F003064F00BE40304310605E6806F4FC
:101600004036002E76D000BF002600963C4E36684D
:1016100046F480463A4F3E603E46366806F48046C1
:10162000009600BF00BF374E8F0856F827008E0780
:10163000370F0F26BE40B043334EB24202D10026D0
:1016400024E057E0314EB24201D101261EE0304E77
:10165000B24201D1022619E02E4EB24201D1032638
:1016600014E02D4EB24201D104260FE02B4EB242BF
:1016700001D105260AE02A4EB24201D1062605E034
:10168000284EB24201D1072600E008268F073F0FFF
:10169000BE4030431B4E8F0846F82700224E30686C
:1016A000A0435E6806F4801606B120431E4E3060EB
:1016B000361D3068A0435E6806F4001606B120436C
:1016C000194E361D3060184E361F3068A0435E68D4
:1016D00006F4003606B12043134E361F3060361F25
:1016E0003068A0435E6806F4803606B120430E4E93
:1016F000083E3060491C1029FFF426AFF8BD0000F9
:101700004438024008380140000002400004024012
:1017100000080240000C0240001002400014024089
:1017200000180240001C0240083C014002461369B8
:101730000B400BB1012000E0002070470AB181612D
:1017400001E00B04836170470148006870470000A6
:101750000800002070B504460CB9012070BD94F853
:101760003D0028B9002084F83C00204600F016FB1C
:10177000242084F83D002068006820F001002168E2
:1017800008602068006840F4004021680860206814
:10179000006820F400402168086000F041FD054623
:1017A0005C496068884206D85B48854201D20120C6
:1017B00007E0002005E05948854201D2012000E001
:1017C0000020012800D1C9E75548B5FBF0F6206894
:1017D000406820F03F003043216848604D49606810
:1017E000884201D8701C07E04FF4967070434FF4A4
:1017F0007A71B0FBF1F0401C2168096A21F03F01C9
:1018000008432168086243496068884214D8681E0A
:1018100061684900B0FBF1F0401CC0F30B000428E4
:1018200001D204203DE0681E61684900B0FBF1F080
:10183000401CC0F30B0034E0A06838B9681E616832
:1018400001EB4101B0FBF1F0401C0AE0681E616849
:1018500001EBC10202EB0111B0FBF1F0401C40F4BE
:101860008040C0F30B0008B901201AE0A06848B915
:10187000681E616801EB4101B0FBF1F0401CC0F350
:101880000B000CE0681E616801EBC10202EB011164
:10189000B0FBF1F0401CC0F30B0040F4804040F47A
:1018A00000402168C9694CF6FF72914308432168E2
:1018B000C861D4E9070108432168096821F0C00123
:1018C000084321680860D4E9031008432168896847
:1018D00048F2FF329143084321688860D4E905014A
:1018E00008432168C96821F0FF0108432168C860E6
:1018F0002068006840F00100216808600020206432
:10190000202084F83D000020206384F83E0000BFC2
:1019100024E70000A086010080841E0000093D002D
:1019200040420F002DE9F8430446894616461F46FB
:10193000DDF82080FFF708FF054694F83D002028D9
:101940007ED11923012251492046009501F039FD2D
:1019500010B10220BDE8F88300BF94F83C000128D4
:1019600001D10220F6E7012084F83C0000BF206886
:10197000006800F0010028B92068006840F001000C
:10198000216808602068006820F400602168086011
:10199000212084F83D00102084F83E0000202064BF
:1019A00066626785608D20853948E0622B46424635
:1019B0004946204601F0C2FB08B10120CAE700BF3A
:1019C00000200090206840690090206880690090A5
:1019D00000BF00BF44E02A464146204601F012FE07
:1019E00050B1206C042805D12068006840F40070D4
:1019F000216808600120ADE7606A0078216808610D
:101A0000606A401C6062608D401E6085208D401EB3
:101A1000208520684069C0F3800070B1208D60B1DE
:101A2000606A007821680861606A401C6062608DAD
:101A3000401E6085208D401E20852A46414600E0DC
:101A400022E0204601F08AFC50B1206C042805D128
:101A50002068006840F4007021680860012079E780
:101A6000208D0028B7D12068006840F400702168FC
:101A70000860202084F83D00002084F83E0000BF6C
:101A800084F83C0000BF65E7022063E70200100015
:101A90000000FFFF2DE9FC5F04460F469046994683
:101AA000DDE90CAB0E9EFFF74FFE054694F83D00B6
:101AB000202870D119230122B5492046009501F054
:101AC00080FC10B10220BDE8FC9F00BF94F83C00F0
:101AD000012801D10220F6E7012084F83C0000BF74
:101AE0002068006800F0010028B92068006840F014
:101AF0000100216808602068006820F40060216807
:101B00000860222084F83D00402084F83E00002038
:101B10002064C4F824A0A4F82AB0608D20859D48D4
:101B2000E0624B46424639462046CDE9006501F069
:101B300065FB08B10120C6E7208D88B900BF0020F1
:101B4000019020684069019020688069019000BF81
:101B500000BF2068006840F400702168086040E021
:101B6000208D012818D12068006820F48060216849
:101B7000086000BF00200190206840690190206843
:101B80008069019000BF00BF2068006840F40070C9
:101B90002168086025E0F8E0208D022816D1206831
:101BA000006820F48060216808602068006840F4C4
:101BB00000602168086000BF002001902068406933
:101BC000019020688069019000BF0AE000BF0020FA
:101BD000019020684069019020688069019000BFF1
:101BE00000BFC3E0208D03287ED8208D012815D1A9
:101BF0002A463146204601F0C0FC08B1012062E7C8
:101C000020680069616A0870606A401C6062208D0B
:101C1000401E2085608D401E6085A7E0208D022833
:101C20002AD1334600225C492046009501F0C9FBC9
:101C300008B1012047E72068006840F4007021687F
:101C4000086020680069616A0870606A401C606210
:101C5000208D401E2085608D401E608520680069B3
:101C6000616A0870606A401C6062208D401E208599
:101C7000608D401E608579E033460022464920464B
:101C8000009501F09EFB08B101201CE72068006868
:101C900020F480602168086020680069616A08702B
:101CA000606A401C6062208D401E2085608D401E51
:101CB00060853346002238492046009501F081FBBB
:101CC00008B10120FFE62068006840F40070216838
:101CD000086020680069616A0870606A401C606280
:101CE000208D401E208500E010E0608D401E608544
:101CF00020680069616A0870606A401C6062208D1B
:101D0000401E2085608D401E60852FE02A463146AA
:101D1000204601F032FC08B10120D4E620680069B9
:101D2000616A0870606A401C6062208D401E2085D8
:101D3000608D401E608520684069C0F38000A8B1B6
:101D4000208D032805D12068006820F48060216878
:101D5000086020680069616A0870606A401C6062FF
:101D6000208D401E2085608D401E6085208D0028BE
:101D70007FF438AF202084F83D00002084F83E0036
:101D800000BF84F83C0000BF9DE602209BE60000F7
:101D9000020010000000FFFF0400010010B586B033
:101DA0000446142101A8FEF7B7FA1B4920688842AF
:101DB00030D100BF002000901848006840F00200B9
:101DC000164908600846006800F00200009000BF55
:101DD00000BF4FF440600190122002900020039059
:101DE000032004900420059001A90D48FFF7A4FBEF
:101DF00000BF0020009009481030006840F48000C7
:101E00000649103108600846006800F48000009020
:101E100000BF00BF06B010BD00580040303802407F
:101E20000004024003480068034909780844014956
:101E300008607047080000201000002010B50D4811
:101E4000006840F400700B4908600846006840F4E0
:101E5000806008600846006840F4807008600320D5
:101E600000F0E0F8052000F007F800F05FF800202F
:101E700010BD0000003C02402DE9F04188B004464E
:101E80000027B84600BF002001902348006840F4B6
:101E90008070214908600846006800F48070019055
:101EA00000BF00BF02A903A800F092F9069F1FB966
:101EB00000F0B6F9054602E000F0B2F94500174817
:101EC000B5FBF0F0A0F1010815481649086040F292
:101ED000E7311448C160C0F80480002101618160CD
:101EE000816100F011FF064696B90E4800F064FFCC
:101EF00006466EB92D2000F043F8102C07D20022C0
:101F000021462D2000F050F80748046000E001262B
:101F1000304608B0BDE8F0814038024040420F0032
:101F200000200040E40200200C00002008B500BFA3
:101F3000002000901148006840F480400F4908607C
:101F40000846006800F48040009000BF00BF00BF5A
:101F500000200090081F006840F08050091F0860B2
:101F60000846006800F08050009000BF00BF0022CB
:101F70000F21901E00F018F808BD00004438024000
:101F80000146084600280DDB00BF00BF00F01F031C
:101F900001229A4043099B0003F1E023C3F800218A
:101FA00000BF00BF00BF70472DE9F05F80460D46BF
:101FB0001646002702F028FD074639462A463346D2
:101FC00001F00700C0F1070ABAF1040F02D94FF07F
:101FD000040A01E0C0F1070AD14600F1040ABAF18F
:101FE000070F02D24FF0000A01E0A0F1030AD44625
:101FF0004FF0010A0AFA09FAAAF1010A0AEA020AEA
:102000000AFA0CFA4FF0010B0BFA0CFBABF1010BC7
:102010000BEA030B4AEA0B042146404602F0FCFCA3
:10202000BDE8F09F00BF00F00702064B19684FF6AD
:10203000FF031940044B0B4343EA0221014B196093
:1020400000BF70470CED00E00000FA0570B50446D3
:102050000D460CB9012070BD5848006800F007001B
:10206000A84209D255490D700846006800F00700E3
:10207000A84201D00120EEE7207800F002000228FB
:102080001DD1207800F00400042805D14C480068D8
:1020900040F4E0504A490860207800F00800082821
:1020A00005D14748006840F460404549086044480D
:1020B000006820F0F000A1680843414908602078DA
:1020C00000F00100A8B36068012807D13C48083837
:1020D0000068C0F34040B8B90120BCE7606802283E
:1020E00002D06068032807D1354808380068C0F37B
:1020F000406048B90120AEE7314808380068C0F3B5
:10210000400008B90120A6E72D48006820F0030030
:10211000616808432A490860FFF716FB064609E094
:10212000FFF712FB801B41F28831884202D903205D
:1021300091E707E02248006800F00C006168B0EB0E
:10214000810FEDD11D48006800F00700A84209D9B1
:102150001A490D700846006800F00700A84201D037
:10216000012078E7207800F00400042807D1144803
:10217000006820F4E050E1680843114908602078C5
:1021800000F00800082808D10D48006820F46040DD
:10219000216940EAC1000A49086000F051F8084985
:1021A0000968C1F30311074A515CC8400649086039
:1021B00006480068FFF760FE00204CE7003C024044
:1021C00008380240D8790008140000200C000020D4
:1021D0000F2202600D4A126802F0030242600B4AAD
:1021E000126802F0F0028260084A126802F4E052BB
:1021F000C260064A126802F46042D2080261044AD0
:10220000126802F007020A607047000008380240B6
:10221000003C0240014800687047000014000020A4
:1022200000B5FFF7F7FF04490968C1F38221034AAB
:10223000515CC84000BD000008380240E879000841
:102240002DE9F047002400250026A1462548006816
:1022500000F00C0020B1042805D008283AD105E090
:10226000DFF8849039E0DFF8849036E01D48001FE5
:10227000006800F03F041B48001F006800F4800065
:1022800078B11A481749091F0968C1F38811A0FBE2
:1022900001700146224600233846FDF7F3FF05464C
:1022A0000EE011480F49091F0968C1F38811A0FB0E
:1022B00001700146224600233846FDF7E3FF05463C
:1022C0000848001F0068C0F30140401C4600B5FBF1
:1022D000F6F902E0DFF8109000BF00BF4846BDE805
:1022E000F0870000083802400024F40040787D01A7
:1022F000F8B504460CB90120F8BD207800F00100C3
:10230000002874D0F948006800F00C0004280DD0B3
:10231000F648006800F00C00082813D1F348001FAD
:10232000006800F48000B0F5800F0BD1EF4808384A
:102330000068C0F34040002859D06068002856D19A
:102340000120D9E700BF6068B0F5803F08D1E748B9
:102350000838006840F48030E449083908601EE01D
:102360006068B0F5A02F0DD1E0480838006840F44F
:102370008020DE49083908600846006840F4803053
:1023800008600CE0D9480838006820F48030D7494C
:10239000083908600846006820F48020086000BF03
:1023A000606890B1FFF7D0F9054606E0FFF7CCF979
:1023B000401B642801D903209EE7CC4808380068F8
:1023C000C0F340400028F1D011E0FFF7BDF9054609
:1023D00006E0FFF7B9F9401B642801D903208BE719
:1023E000C24808380068C0F340400028F1D1207886
:1023F00000F0020002285FD1BC48006800F00C0029
:1024000058B1BA48006800F00C0008281CD1B74841
:10241000001F006800F48000B0B9B44808380068B4
:10242000C0F3400020B1E068012801D0012063E73B
:10243000AE480838006820F0F800216940EAC10081
:10244000AA490839086037E0E06800B30120A849CC
:102450000860FFF779F9054606E0FFF775F9401BBC
:10246000022801D9032047E7A04808380068C0F3D4
:1024700040000028F1D09D480838006820F0F8009E
:10248000216940EAC10099490839086014E0002038
:1024900097490860FFF758F9054606E0FFF754F939
:1024A000401B022801D9032026E79048083800681D
:1024B000C0F340000028F1D1207800F0080008287F
:1024C0002CD16069A8B101208A490860FFF73CF966
:1024D000054606E0FFF738F9401B022801D9032022
:1024E0000AE782486C300068C0F340000028F1D051
:1024F00014E000207F490860FFF726F9054606E052
:10250000FFF722F9401B022801D90320F4E677489F
:102510006C300068C0F340000028F1D1207800F052
:102520000400042870D1002770483830006800F09B
:10253000805090B900BF002000906C48383000688F
:1025400040F080506949383108600846006800F062
:102550008050009000BF00BF01276748006800F46A
:102560008070B0B96448006840F4807062490860C7
:10257000FFF7EAF8054606E0FFF7E6F8401B0228F9
:1025800001D90320B8E65C48006800F48070002898
:10259000F2D000BFA068012808D154486830006814
:1025A00040F001005149683108601DE0A06805282D
:1025B0000DD14E486830006840F004004B49683146
:1025C00008600846006840F0010008600CE04748D9
:1025D0006830006820F0010044496831086008460E
:1025E000006820F00400086000BFA068A8B1FFF7F1
:1025F000ABF8054609E0FFF7A7F8401B41F2883128
:10260000884202D9032077E626E03848683000681F
:10261000C0F340000028EED013E0FFF795F8054620
:1026200008E0FFF791F8401B41F28831884201D958
:10263000032061E62D4868300068C0F340000028A0
:10264000EFD1012F07D129483830006820F08050A1
:1026500026493831086000BFA069002845D02348CA
:10266000006800F00C0008285DD0A069022845D160
:1026700000201F490866FFF767F8054606E0FFF7E8
:1026800063F8401B022801D9032035E617480838B3
:102690000068C0F340600028F1D1D4E90701084385
:1026A000616A40EA81110122A06AC2EB500041EA4E
:1026B00000412C20005D41EA00600C49091F0860C0
:1026C00001200B490866FFF73FF8054606E0FFF7D3
:1026D0003BF8401B022801D903200DE603480838C7
:1026E0000068C0F340600028F1D049E0083802409B
:1026F00000004742800E4742007000400020214900
:102700000866FFF721F8054606E0FFF71DF8401BB5
:10271000022801D90320EFE51B480068C0F34060A0
:102720000028F2D12CE0A069012800D1E4E5164888
:10273000001D0668A069012820D006F48001E06928
:1027400081421BD106F03F01206A814216D147F633
:10275000C0703040616AB0EB811F0FD106F4403188
:102760000122A06AC2EB5000B1EB004F06D106F087
:1027700070612C20005DB1EB006F01D00120BBE542
:102780000020B9E5000047420038024070470000D1
:10279000F8B504462068466820688568C5F380104F
:1027A00048B905F0010030B1C6F3801018B12046D9
:1027B000216C8847F8BDC5F3400030B1C6F3C010A6
:1027C00018B12046616C8847F4E7C5F3401030B972
:1027D000C5F3801018B9C5F3002000287CD0C6F3DB
:1027E000401000287DD0C5F38010F0B194F851005E
:1027F00003280ED0606D40F00400606500BF00202B
:1028000000902068C068009020688068009000BF39
:102810000BE000BF002000902068C0680090206896
:102820008068009000BF00BFC4E7C5F3401088B1C6
:10283000606D40F00100606500BF002000902068DE
:10284000806800902068006820F0400021680860DF
:1028500000BF00BFC5F3002058B1606D40F0080014
:10286000606500BF0020009020688068009000BF75
:1028700000BF606D78B32068406820F0E0002168F8
:102880004860012084F8510006F00200022802D0BE
:1028900006F0010008B32068406820F003002168BA
:1028A0004860E06C50B11048E16C0865E06CFEF7E0
:1028B00031FC18B1606D40F040006065A06C50B113
:1028C0000948A16C0865A06CFEF724FC18B1606D86
:1028D00040F04000606503E003E02046FFF756FF4C
:1028E00068E700BF66E700001546000810B504461B
:1028F0000CB9012010BD606A38B96068B0F5827FFC
:1029000000D105E00021E16102E000212161616167
:102910000021A16294F8510028B9002084F85000E9
:10292000204600F047F8022084F851002068006833
:1029300020F0400021680860A08800F4827021899E
:1029400001F404410843A18901F400610843217C9A
:1029500001F002010843217D01F001010843218BB0
:1029600001F400710843217F01F038010843202160
:10297000095D01F080010843218D01F400510843F5
:10298000216808600421A06901EA104094F824102D
:1029900001F010010843216848602068C06920F4F4
:1029A00000602168C86100206065012084F8510042
:1029B00000209FE710B586B00446142101A8FDF75A
:1029C000ABFC2E492068884255D100BF0020009002
:1029D0002B48006840F48050294908600846006888
:1029E00000F48050009000BF00BF00BF00200090A6
:1029F00023481438006840F0020021491439086067
:102A00000846006800F00200009000BF00BF2820C8
:102A100001900220029000200390032004900520E2
:102A2000059001A91748FEF787FD17481749086068
:102A30004FF0C06048604021144881600021C160AF
:102A40004FF480610161002141618161C1610162D6
:102A50004162FEF793FC08B1FEF7CDF800BF0B48CA
:102A6000A064846300BF002205212320FFF79CFAA5
:102A70002320FFF785FA06B010BD000000300140AA
:102A80004438024000040240586402403C020020E6
:102A90002DE9F84304460F4616461D46FEF754FE40
:102AA0008046B14694F85100012802D00220BDE8CA
:102AB000F88307B10EB90120F9E700BF94F8500080
:102AC000012801D10220F2E7012084F8500000BF64
:102AD000032084F85100002060652763A686E686FF
:102AE000A063A087E08760642064A068B0F5004F11
:102AF0000BD12068006820F0400021680860206841
:102B0000006840F48040216808602068006800F098
:102B10004000402805D02068006840F0400021684F
:102B20000860E068B0F5006F37D1606810B1B9F1A6
:102B3000010F09D1206B00882168C860206B801CC0
:102B40002063E08E401EE08623E02068806800F06D
:102B5000020002280AD1206B00882168C860206B1F
:102B6000801C2063E08E401EE08612E0FEF7ECFD44
:102B7000A0EB0800A84201D3681C00B94DB90120A0
:102B800084F8510000BF002084F8500000BF0320EB
:102B90008DE7E08E0028D8D136E0606810B1B9F139
:102BA000010F09D1206B007821680873206B401C4D
:102BB0002063E08E401EE08623E02068806800F0FD
:102BC000020002280AD1206B007821680873206B6C
:102BD000401C2063E08E401EE08612E0FEF7B4FD4C
:102BE000A0EB0800A84201D3681C00B94DB9012030
:102BF00084F8510000BF002084F8500000BF03207B
:102C000055E7E08E0028D8D142462946204601F0FB
:102C10000BFD08B120206065A06850B900BF0020FE
:102C200000902068C068009020688068009000BF15
:102C300000BF012084F8510000BF002084F850003C
:102C400000BF606D08B1012031E700202FE7704719
:102C50007047000030B502460B4600BF92F83C00BA
:102C6000012801D1022030BD012082F83C0000BFC4
:102C7000022082F83D00106844681068816824F0E2
:102C800070041868044310684460184D1068A84226
:102C90001BD01068B0F1804F17D0154D1068A842B6
:102CA00013D0144D1068A8420FD0134D1068A842DD
:102CB0000BD0124D1068A84207D0114D1068A842E1
:102CC00003D0104D1068A84205D121F0800158684A
:102CD000014310688160012082F83D0000BF0020A0
:102CE00082F83C0000BF00BFBDE7000000000140CB
:102CF0000004004000080040000C004000040140B7
:102D0000004001400018004010B504460CB90120F5
:102D100010BD94F83D0028B9002084F83C002046FE
:102D200000F026F8022084F83D00211D206801F003
:102D3000B9FD012084F8460000BF84F83E0001215F
:102D40003F200155402001554120015500BF00BFE3
:102D5000012084F8420043200155442001554520BC
:102D6000015500BF012084F83D000020D0E700009D
:102D700038B504460E492068884217D100BF0020AC
:102D800000900C48006840F004000A4908600846BA
:102D9000006800F00400009000BF00BF0022052181
:102DA0001E20FFF701F91E20FFF7EAF838BD0000EA
:102DB0000008004040380240014691F83D000128DB
:102DC00001D001207047022081F83D000868C068EA
:102DD00040F001000B68D8601A4B086898421BD07D
:102DE0000868B0F1804F17D0174B0868984213D08D
:102DF000164B086898420FD0154B086898420BD0C4
:102E0000144B0868984207D0134B0868984203D0C7
:102E1000124B086898420CD10868806800F00702DD
:102E2000062A0CD00868006840F001000B681860A2
:102E300005E00868006840F001000B681860002099
:102E4000C0E700000000014000040040000800400E
:102E5000000C004000040140004001400018004008
:102E60002DE9F04104460D46002700BF94F83C00D0
:102E7000012802D10220BDE8F081012084F83C0045
:102E800000BF022084F83D002068866826F077069F
:102E900026F47F46206886602868502833D00CDCF2
:102EA000202850D004DC00284BD0102851D149E014
:102EB000302849D040284CD139E060282DD07028E6
:102EC00007D0B0F5805F03D0B0F5005F41D10DE0D1
:102ED00041E0D5E902136A68206801F057FD2068D7
:102EE000866846F077062068866034E0D5E90213EC
:102EF0006A68206801F04AFD2068806840F48040DC
:102F00002168886027E0EA686968206801F052FD5E
:102F10005021206801F045FD1DE0EA6869682068DD
:102F200001F05BFD6021206801F03BFD13E0EA68E1
:102F30006968206801F03EFD4021206801F031FD04
:102F400009E000BF00BF00BF2968206801F029FD2B
:102F500001E0012700BF00BF012084F83D0000BF51
:102F6000002084F83C0000BF384684E7704770B505
:102F700004462068C5682068066906F00200022839
:102F800019D105F00200022815D1401F21680861FF
:102F9000012020772068806900F0030018B12046E6
:102FA000FFF7E4FF05E0204600F097F8204600F028
:102FB00095F80020207706F00400042819D105F0C8
:102FC0000400042815D1C04321680861022020773D
:102FD0002068806900F4407018B12046FFF7C6FFF2
:102FE00005E0204600F079F8204600F077F8002050
:102FF000207706F00800082819D105F008000828F5
:1030000015D1C04321680861042020772068C06979
:1030100000F0030018B12046FFF7A8FF05E02046A6
:1030200000F05BF8204600F059F80020207706F009
:103030001000102819D105F01000102815D1C04338
:1030400021680861082020772068C06900F440707A
:1030500018B12046FFF78AFF05E0204600F03DF852
:10306000204600F03BF80020207706F0010048B130
:1030700005F0010030B16FF00100216808612046C1
:1030800000F02EF806F08000802809D105F08000BD
:10309000802805D1C043216808612046FFF7D7FD8D
:1030A00006F04000402809D105F04000402805D135
:1030B000C04321680861204600F01EF806F0200099
:1030C000202809D105F02000202805D1C04321681F
:1030D00008612046FFF7BCFD70BD704770470000D7
:1030E00010B5044603492068884201D1FEF79AFED4
:1030F00010BD000000200040704700BFFEE7014601
:1031000008684069C0F38020B0B16FF480600A683D
:10311000506100200863202081F83D00002081F8E4
:103120003E00086C40F00400086400BF002081F8F5
:103130003C0000BF012070470020FCE72DE9F84368
:1031400004460D4617469846E66A082E04D0012E1E
:1031500002D016F5803F06D12068006840F48070E8
:103160002168086008E0206B122805D120680068FB
:1031700040F48070216808603B4600224FF0011146
:103180002046CDF8008000F01CF960B1206800688E
:1031900000F48070B0F5807F02D14FF4007020649D
:1031A0000320BDE8F8832069B0F5804F04D105F015
:1031B000FE002168086112E005F44070F02141EA48
:1031C000E0102168086143463A460B49204600F06A
:1031D00057F908B10120E4E7E8B2216808614346E5
:1031E0003A460549891F204600F04AF908B10120F6
:1031F000D7E70020D5E70000080001002DE9F843DB
:1032000004460F4615469946DDE9088620680068A1
:1032100040F48060216808602068006840F4807095
:1032200021680860434600224FF0011120460096B5
:1032300000F0C7F860B12068006800F48070B0F555
:10324000807F02D14FF4007020640320BDE8F88332
:1032500007F0FE0021680861334642463E49204699
:1032600000F00EF908B10120F0E700BF0020009047
:1032700020684069009020688069009000BF00BF0E
:1032800032464146204600F0BDF950B1206C04287A
:1032900005D12068006840F40070216808600120B2
:1032A000D4E7B9F1010F03D1E8B22168086117E052
:1032B000C5F307202168086132464146204600F0E8
:1032C000A1F950B1206C042805D12068006840F4B1
:1032D0000070216808600120B8E7E8B22168086141
:1032E00032464146204600F08DF950B1206C04284A
:1032F00005D12068006840F4007021680860012052
:10330000A4E72068006840F48070216808604346A4
:1033100000224FF001112046009600F052F858B1FB
:103320002068006800F48070B0F5807F02D14FF40F
:1033300000702064032089E7F8B240F001002168A2
:103340000861334642460449204600F099F808B126
:1033500001207BE7002079E70200010070B50446F8
:103360000D46164625E02046FFF7C9FE08B10120AC
:1033700070BD681CE8B1FEF7E7F9801BA84200D8D1
:10338000BDB920684069C0F3800090B90020206377
:10339000202084F83D00002084F83E00206C40F09E
:1033A0002000206400BF002084F83C0000BF012002
:1033B000DEE720684069C0F380000028D3D00020F9
:1033C000D6E72DE9F04104460D4617461E46DDF8C6
:1033D000188038E0701CA8B3FEF7B6F9A0EB08001F
:1033E000B04200D876BBC5F3074001280AD1206857
:1033F0004069A9B20840A9B2884201D101200BE07E
:10340000002009E020688069A9B20840A9B288427A
:1034100001D1012000E00020B84214D10020206337
:10342000202084F83D00002084F83E00206C40F00D
:103430002000206400BF002084F83C0000BF012071
:10344000BDE8F081FFE7C5F3074001280AD12068F5
:103450004069A9B20840A9B2884201D101200BE01D
:10346000002009E020688069A9B20840A9B288421A
:1034700001D1012000E00020B842ABD00020DFE7FE
:103480002DE9F04104460D4616461F4658E02068D7
:103490004069C0F38020E8B12068006840F4007003
:1034A000216808606FF48060216848610020206313
:1034B000202084F83D00002084F83E00206C40F07D
:1034C0000400206400BF002084F83C0000BF0120FD
:1034D000BDE8F081701C90B3FEF736F9C01BB04216
:1034E00000D866BBC5F3074001280AD120684069AF
:1034F000A9B20840A9B2884201D101200BE0002006
:1035000009E020688069A9B20840A9B2884201D1C7
:10351000012000E0002090B900202063202084F8E2
:103520003D00002084F83E00206C40F02000206424
:1035300000BF002084F83C0000BF0120C8E7FFE77F
:10354000C5F3074001280AD120684069A9B20840A4
:10355000A9B2884201D101200BE0002009E02068D7
:103560008069A9B20840A9B2884201D1012000E0D7
:10357000002000288BD00020AAE770B504460D4635
:10358000164637E020684069C0F30010A0B16FF024
:1035900010002168486100202063202084F83D004D
:1035A000002084F83E00206C206400BF002084F8D6
:1035B0003C0000BF012070BDFEF7C6F8801BA8428A
:1035C00000D8BDB920684069C0F3801090B90020D0
:1035D0002063202084F83D00002084F83E00206C09
:1035E00040F02000206400BF002084F83C0000BFB1
:1035F0000120E0E720684069C0F380100028C1D0B6
:103600000020D8E770B504460D46164625E0204652
:10361000FFF775FD08B1012070BD681CE8B1FEF729
:1036200093F8801BA84200D8BDB920684069C0F358
:10363000C01090B900202063202084F83D000020B5
:1036400084F83E00206C40F02000206400BF002081
:1036500084F83C0000BF0120DEE720684069C0F329
:10366000C0100028D3D00020D6E700000DE04FF0B6
:10367000FF310648006803F019FD04462CB10448E8
:103680000068844201D100F0DDFEF0E7D4000020A4
:10369000DC00002010B5002028E05D4983000A6EA0
:1036A000891C31F813101144594A11661146CB6D2B
:1036B0008100491C921C32F811101944921ED165E8
:1036C00011468B6D8100891C921C32F8111019442F
:1036D000921E916511464B6D8100C91C921C32F8F7
:1036E00011101944921E5165411CC8B20A28D4DB3E
:1036F0004748006E0A21B0FBF1F04549A1F86A0085
:103700000846C06D0A21B0FBF1F04149A1F86800FC
:103710000846806D0A21B0FBF1F03D49A1F8660032
:103720000846406D0A21B0FBF1F03949A1F8640068
:1037300000200866C865886548650846B0F86A00D4
:1037400040F6B831884203DD03203249C8700CE0EE
:103750002F48B0F86A00B0F57A7F03DAFD202D49D2
:10376000C87002E000202B49C8702948B0F86800F2
:1037700040F6B831884203DD0320264988700CE00A
:103780002348B0F86800B0F57A7F03DAFD202149BC
:10379000887002E000201F4988701D48B0F866005C
:1037A00040F6B831884203DD03201A4948700CE026
:1037B0001748B0F86600B0F57A7F03DAFD201549A6
:1037C000487002E00020134948701148B0F86400C6
:1037D00040F6B831884203DD03200E4908700CE042
:1037E0000B48B0F86400B0F57A7F03DAFD20094990
:1037F000087002E00020074908700748007830B1DF
:1038000000231A4603490548006803F011FB10BD68
:10381000144C0020A0000020D0000020A4000020B4
:1038200070B5064616484088401E83B2144800888A
:10383000401E82B20021084600F06EF900224FF4CB
:1038400000511048FDF77AFF012210210D48FDF7C5
:1038500075FF00240AE0002503E0304600F018FA66
:103860006D1C07480088A842F7D8641C04484088AB
:10387000A042F0D8012251030248FDF75FFF70BD5E
:10388000044C002000040240F8B504460D461646DC
:103890001F46054800883B46324629460090204690
:1038A00000F004F8F8BD0000980000202DE9F05F5A
:1038B00004460D4616461F46301B401C1FFA80FA70
:1038C000781B401C1FFA80FB3B46324629462046A7
:1038D00000F022F94FF000080FE04FF0000906E079
:1038E0000A9800F0D5F909F101001FFA80F9D145D5
:1038F000F6DB08F101001FFA80F8D845EDDB074838
:103900004088401E83B205480088401E82B20021D4
:10391000084600F001F9BDE8F09F0000044C0020CB
:1039200010B500F0F7FB10BD10B500F0CFFCFFF7AD
:10393000F7FF00F0DBF8F72000F036F9A92000F0DF
:1039400017F9512000F014F92C2000F011F9822011
:1039500000F00EF9C02000F027F9112000F008F95E
:10396000092000F005F9C12000F01EF9412000F007
:10397000FFF8C52000F018F9002000F0F9F80A203F
:1039800000F0F6F8802000F0F3F8B12000F00CF918
:10399000B02000F0EDF8112000F0EAF8B42000F0BB
:1039A00003F9022000F0E4F8B62000F0FDF8022050
:1039B00000F0DEF8422000F0DBF8B72000F0F4F869
:1039C000C62000F0D5F8BE2000F0EEF8002000F090
:1039D000CFF8042000F0CCF8E92000F0E5F8002052
:1039E00000F0C6F8362000F0DFF8682000F0C0F8DC
:1039F0003A2000F0D9F8662000F0BAF8E02000F094
:103A0000D3F8002000F0B4F8072000F0B1F810203F
:103A100000F0AEF8092000F0ABF8172000F0A8F88D
:103A20000B2000F0A5F8412000F0A2F8892000F05A
:103A30009FF84B2000F09CF80A2000F099F80C2029
:103A400000F096F80E2000F093F8182000F090F89F
:103A50001B2000F08DF80F2000F08AF8E12000F024
:103A6000A3F8002000F084F8172000F081F81A2055
:103A700000F07EF8042000F07BF80E2000F078F8CB
:103A8000062000F075F82F2000F072F8452000F0B5
:103A90006FF8432000F06CF8022000F069F80A206B
:103AA00000F066F8092000F063F8322000F060F8BA
:103AB000362000F05DF80F2000F05AF8112000F0D9
:103AC00073F8782001F062FB292000F06DF80120E6
:103AD00000F098F8012291030348FDF72FFE4FF6FE
:103AE000FF70FFF79DFE10BD0004024010B50022DC
:103AF0004FF400410748FDF721FE642001F046FB2A
:103B00000122D1030348FDF719FE322001F03EFBEC
:103B100010BD0000000002402DE9F04104460D46B2
:103B200016461F461149887A00F03EF8201200F030
:103B30001FF8E0B200F01CF8301200F019F8F0B2F3
:103B400000F016F80949087B00F02EF8281200F062
:103B50000FF8E8B200F00CF8381200F009F8F8B2EB
:103B600000F006F800F03CF8BDE8F081044C0020BD
:103B700001B500224FF400510948FDF7DFFD012295
:103B800010210748FDF7DAFD01226946054800F0DB
:103B9000FBFD012251030248FDF7D0FD08BD0000E6
:103BA00000040240E401002001B500224FF400515E
:103BB0000948FDF7C3FD002210210748FDF7BEFDAF
:103BC00001226946054800F0DFFD01225103024849
:103BD000FDF7B4FD08BD000000040240E401002030
:103BE00010B50249087AFFF7DFFF10BD044C002032
:103BF00070B505460C462846FFF7D6FFE0B2FFF742
:103C0000B7FF70BD10B504462A20204948812B20FB
:103C100088812C20088134B1012C10D0022C1AD0BC
:103C2000032C30D123E04FF4A070184908804FF4E2
:103C3000F070488008213620FFF7DAFF24E04FF4C7
:103C4000F070124908804FF4A07048806821362037
:103C5000FFF7CEFF18E04FF4A0700C4908804FF436
:103C6000F0704880C8213620FFF7C2FF0CE04FF407
:103C7000F070064908804FF4A0704880A8213620D3
:103C8000FFF7B6FF00E000BF00BF10BD044C0020EE
:103C900010B50446F82101EA2420FFF769FFFC2152
:103CA00001EAE400FFF764FFE106080EFFF760FF9A
:103CB00010BD000008B5002000906A4601210748A9
:103CC000006802F0D1FD009838B14FF080500449EF
:103CD0000860BFF34F8FBFF36F8F08BDC80000208F
:103CE00004ED00E010B500216B2000F051F9002137
:103CF0006C2000F04DF90921192000F049F9062146
:103D00001A2000F045F918211B2000F041F9182174
:103D10001C2000F03DF90021372000F039F9FF2187
:103D2000382000F035F9002208210A2002F0AAFE0E
:103D30000349086002F022FD02490860002010BD1E
:103D4000C4000020C80000202DE9F0472DED088BAD
:103D500005460E4691469A46DDE91078129CECB372
:103D6000A5F14000FCF7C4FB9FED1F0B53EC102B9B
:103D7000FCF74FFB41EC1A0BB0EE4A0AF0EE6A0A70
:103D800000F062FEB0EE409AF0EE609A9FED180BE4
:103D900053EC102B51EC190BFCF7C9FAFCF7B9FBEB
:103DA0002060A6F11E00FCF7A3FB9FED130B53EC64
:103DB000102BFCF72EFB41EC190BB0EE490AF0EE8C
:103DC000690A00F041FEB0EE408AF0EE608A51ECE4
:103DD000180BFCF79EFB5A21484300E000E06060AE
:103DE000BDEC088BBDE8F087000000000000D0406B
:103DF000A79196CADBA54C400000000000408F4010
:103E00002DE9FC4705460E4617469846DDE90A9A15
:103E100000248DB169463B2000F07AF8044301A9E3
:103E20003C2000F075F804439DF804009DF8001054
:103E300040EA012000B228808EB169463D2000F0A2
:103E400067F8044301A93E2000F062F804439DF89E
:103E500004009DF8001040EA012000B230808FB1CC
:103E600069463F2000F054F8044301A9402000F0C7
:103E70004FF804439DF804009DF8001040EA01202B
:103E800000B23880B8F1000F12D06946432000F02C
:103E90003FF8044301A9442000F03AF804439DF898
:103EA00004009DF8001040EA012000B2A8F80000CC
:103EB000B9F1000F12D06946452000F029F80443FB
:103EC00001A9462000F024F804439DF804009DF861
:103ED000001040EA012000B2A9F80000BAF1000F7A
:103EE00012D06946472000F013F8044301A9482086
:103EF00000F00EF804439DF804009DF8001040EA1D
:103F0000012000B2AAF800002046BDE8FC870000AE
:103F10003EB504460D464FF4FA7001210B46224689
:103F2000CDE900510290D02102480068FDF7B2FDB2
:103F30003EBD0000CC00002088B026E0FCF75EFE0D
:103F400000200090034605AA06A9019007A8FFF7E4
:103F500057FF044600F0C4FAA4B903A80021009159
:103F60000B46CDE90110BDF91420BDF91810BDF9BB
:103F70001C00FFF7E9FE00231A4603A90348006866
:103F800002F06AFE142002F019FAD7E7C4000020FC
:103F90007CB504460D468DF804408DF805504FF46D
:103FA000FA70022301AAD021009002480068FDF7B0
:103FB000B9FC7CBDCC0000201FB500200090019012
:103FC000029003902648274908604FF480304860EB
:103FD000002124488160012101610176002180F8DF
:103FE0002010C162204981620021C1600421C161A9
:103FF000012180F830104161FCF71CFF08B1FCF78B
:10400000FAFD0020009001200190072002906946EF
:104010001448FCF73DFE08B1FCF7EDFD01200090CF
:104020000220019069460F48FCF732FE08B1FCF708
:10403000E2FD022000900320019069460948FCF748
:1040400027FE08B1FCF7D7FD032000900420019063
:1040500069460448FCF71CFE08B1FCF7CCFD1FBD07
:1040600000200140E80000200100000F08B500BF5B
:10407000002000900E48006840F480000C49086061
:104080000846006800F48000009000BF00BF0022D6
:1040900005213820FDF788FF3820FDF771FF002249
:1040A00005213B20FDF780FF3B20FDF769FF08BDA0
:1040B000303802401CB5012002F0C9FC0D490860EF
:1040C000FFF732FCFCF7E0FC00F08AFAFFF70AFE8B
:1040D000094A0021094801F0ABF8094908600020AD
:1040E000182103468022CDE9001006A1084803F0FC
:1040F0000BF91CBD00000020AC790008A1470008A6
:104100000400002047616D655461736B000000007E
:104110006550000800B587B0142102A8FCF7FCF830
:1041200000BF002001905648006840F00400544948
:1041300008600846006800F00400019000BF00BF5E
:1041400000BF002001900846006840F08000086031
:104150000846006800F08000019000BF00BF00BF6B
:10416000002001900846006840F001000860084601
:10417000006800F00100019000BF00BF00BF0020F8
:1041800001900846006840F010000860084600688A
:1041900000F01000019000BF00BF00BF00200190A0
:1041A0000846006840F0020008600846006800F019
:1041B0000200019000BF00BF002246F2100131480A
:1041C000FDF7BCFA00224FF400412F48FDF7B6FA84
:1041D000102002904FF4881003900020049002A950
:1041E0002948FDF7A9F960200290002003900120E2
:1041F000049002A92448FDF79FF94FF40040029073
:104200004FF4881003900020049002A91F48FDF786
:1042100093F942F2100002900120039000200490D4
:104220000220059002A91748FDF786F94FF4804057
:1042300002900120039000200490059002A91148EB
:10424000FDF77AF94FF4004002900120039000201E
:104250000490059002A90C48FDF76EF90022052193
:104260000A20FDF7A1FE0A20FDF78AFE00220521A3
:104270002820FDF799FE2820FDF782FE07B000BD3B
:1042800030380240000402400000024000100240AA
:1042900010B50B480B4908600B48486000210948DD
:1042A0008160C1604FF48041016100214161816101
:1042B000C1610162FDF74EFA08B1FCF79CFC10BD2C
:1042C0000058004090010020A086010010B50E4863
:1042D0000E4908604FF48270486000210B488160ED
:1042E000C160016141614FF4007181610021C161D0
:1042F0000162416281620A21C162FEF7F7FA08B1E8
:10430000FCF779FC10BD000000300140E401002002
:1043100000B587B0002003900490059006900190AE
:104320000290144814490860532048600021124844
:10433000816040F2E731C160002101618161FEF7D7
:10434000E3FC08B1FCF757FC4FF48050039003A93D
:104350000948FEF785FD08B1FCF74DFC00200190EF
:10436000029001A90448FEF775FC08B1FCF743FC74
:1043700007B000BD000800409C02002038B505468B
:104380000C46062D51D2DFE805F050030E2F3A45BA
:104390004FF4A0704FF4F073254A002100900846B6
:1043A000FCF742FC42E04FF4A0704FF4F073204A57
:1043B000002100900846FCF737FC0F2003461D4AF9
:1043C000AF2100906E20FCF72FFC0F2003461A4A05
:1043D000AF2100904FF4C370FCF726FC4FF4C3707C
:1043E000A0806E20208021E04FF4A0704FF4F07385
:1043F0000F4A002100900846FCF716FC16E04FF427
:10440000A0704FF4F0730A4A002100900846FCF7B0
:104410000BFC0BE04FF4A0704FF4F073044A002142
:1044200000900846FCF700FC00E000BF00BF38BD6C
:10443000848B0008508300081285000800BFFEE747
:1044400000BFFEE70EB5002202A92348006802F073
:1044500079FD9DF80800032802D1ADF800000BE0BB
:104460009DF90800C01C20B96FF00200ADF80000F3
:1044700002E00020ADF800009DF80900032802D1F9
:10448000ADF8020002E00020ADF802009DF80A003D
:10449000032802D1ADF804000BE09DF90A00C01C0E
:1044A00020B96FF00200ADF8040002E00020ADF882
:1044B00004009DF80B00032802D1ADF8060002E0CD
:1044C0000020ADF8060000231A466946034800683C
:1044D00002F0C2FB0EBD0000DC000020D80000206E
:1044E00010B500231A4619460248006802F0B4FBD2
:1044F00010BD00000000002010B510210348FDF79A
:1045000015F908B9002010BD0120FCE700000240A9
:1045100010B520210348FDF709F908B9002010BDA6
:104520000120FCE70000024030B587B00020019078
:1045300001F05CFDCDE90401022000F027FEFFF749
:10454000DBFF08B907B030BD2049DDE904200B6866
:104550004968D41A60EB010322464FF47A700021B7
:10456000FBF790FE1A490860FFF7D2FF28B11948FF
:104570000068401C1749086009E016480068401EA2
:1045800014490860124800684042114908600F4A07
:10459000DDE90410116050600E48006802900C487C
:1045A00000680390002301AA02A90B48006802F0EA
:1045B0003FFC019838B14FF0805008490860BFF3C4
:1045C0004F8FBFF36F8F00BFBCE70000B800002023
:1045D000AC000020A8000020B000002004ED00E0A6
:1045E00008B50020044B054A082100900A2002F07B
:1045F00076FA0349086008BDD44C0020844C0020A2
:10460000B000002010B50248FEF7C2F810BD00004F
:10461000E401002070B50546AC6B0020E087E08621
:104620002046FEF7B3F870BD7CB504460E4615462D
:104630003346012202212046009500F039F828B1C6
:10464000606D40F02000606503207CBD1648006866
:104650001821B0FBF1F01549B0FBF1F04FF47A717D
:10466000484301906068B0F5827F0DD13346002247
:1046700080212046009500F01BF898B1606D40F055
:10468000200060650320E0E700BF019800B908E062
:104690000198401E019020688068C0F3C010002877
:1046A000F3D100BF0020D0E71400002040420F00EB
:1046B0002DE9F84F04460D4690461E46DDF8289039
:1046C000FDF742F8A0EB0900371AFDF73DF88246E6
:1046D0002C480068C0F3CB307843009045E0701C54
:1046E000002842D0FDF730F8A0EB0A00B84200D213
:1046F000A7BB2068406820F0E0002168486060683F
:10470000B0F5827F0DD1A068B0F5004F03D0A0684E
:10471000B0F5806F05D12068006820F04000216866
:104720000860A06AB0F5005F0DD100BF2068006886
:1047300020F40050216808602068006840F40050B0
:104740002168086000BF012084F8510000BF0020EC
:1047500084F8500000BF0320BDE8F88FFFE7009801
:1047600000B900270098401E00902068806828400B
:10477000A84201D1012000E000204045AFD1002037
:10478000EAE700001400002070B504460D46164606
:104790004FF0FF33324629462046FEF779F970BDC7
:1047A00000BFFEE710B54FF0E020006902F03CFECC
:1047B000012801D002F01EF910BD000000B593B031
:1047C000302107A8FBF7A8FD142102A8FBF7A4FDE0
:1047D00000BF002001902448006840F0805022492A
:1047E00008600846006800F08050019000BF00BFDC
:1047F00000BF002001901D48006840F480401B4924
:1048000008600846006800F48040019000BF00BFC7
:10481000012007900004089002200D9041050E91A0
:1048200019210F914FF4A8711091022111910421C7
:10483000129107A8FDF75CFD08B1FCF7DCF90F2029
:10484000029002200390002004904FF4A0500590A5
:104850004FF480500690052102A8FDF7F7FB08B140
:10486000FCF7C9F913B000BD4038024000700040A9
:104870000348006840F47000014908607047000078
:1048800088ED00E010B50248FEF771FB10BD000096
:104890009C02002010B50248FEF769FB10BD000025
:1048A000E402002010B502682D4B98420ED0B0F102
:1048B000804F0BD02B4B984208D02B4B984205D001
:1048C0002A4B984202D02A4B984203D122F0700220
:1048D0004B681A43224B984220D0B0F1804F1DD034
:1048E000204B98421AD0204B984217D01F4B984229
:1048F00014D01F4B984211D01E4B98420ED01E4B25
:1049000098420BD01D4B984208D01D4B984205D0C1
:104910001C4B984202D01C4B984203D122F44072A7
:10492000CB681A4322F080034C6943EA0402026018
:104930008B68C3620B688362094B984202D00C4BB0
:10494000984201D10B69036301234361036903F0BA
:1049500001031BB1036923F00103036110BD0000D3
:10496000000001400004004000080040000C00402E
:104970000004014000400140004401400048014063
:1049800000180040001C00400020004030B50C46DC
:10499000816821F47F4142EA032525432943816050
:1049A00030BD0A46816821F0700142F007031943C7
:1049B0008160704730B50B461446026A056A25F0DF
:1049C00001050562816921F0F00141EA041122F03C
:1049D0000A021A438161026230BD30B50B461446AB
:1049E000026A056A25F010050562816921F47041AB
:1049F00041EA043122F0A00242EA0312816102621C
:104A000030BD00BFFEE7000002480068C0F302208E
:104A1000704700000CED00E010B5002804DB0A0729
:104A2000130E054A135406E00A07140E034A00F059
:104A30000F031B1FD45410BD00E400E018ED00E08C
:104A4000EFF305807047000010B5B94A2DED020B59
:104A50002DED0C8B82B00F9921F000409FEDB6CB6D
:104A600090422CDBA0F140530E9AA3F17F631A43CE
:104A70000FD0B349884202DC16D10E98A0B19DED4B
:104A80000E0B02B0BDEC0C8B02B0BDE8104000F084
:104A900003BA0029C1BF9FEDAC0B02B0BDEC0C8B7B
:104AA00002B0C8BF10BD16E0012000F021FA02B02C
:104AB000BDEC0C8B02B0BDE8104000F0F9B9A44A7F
:104AC0009FEDA59B9FEDA6AB90425EDAA6499FEDB8
:104AD000A8CB814208DBB0EE4C0AF0EE6C0A02B0C3
:104AE000BDEC0C8B02B010BD9DED0E0B53EC102BEA
:104AF00051EC100BFBF71BFC41EC180B9E480621F8
:104B0000B0EE480AF0EE680A784400F049F953EC38
:104B1000182B51EC100BFBF70AFC41EC1B0B9748D0
:104B2000B0EE480AF0EE680A0421784400F038F943
:104B300053EC182B51EC100BFBF7F9FB53EC192B32
:104B4000FBF782FD41EC100B51EC1B0B53EC102BCF
:104B5000FBF75FFC41EC100B53EC102B9DED0E0BA3
:104B600051EC100BFBF7E3FB53EC1A2BFBF710FE99
:104B70009DED0E1B53EC112BFBF70AFE53EC1C2B87
:104B8000FBF706FE41EC100BA9E79FED7D8B9FED37
:104B90007EBB9DED0E0B002953EC192B51EC100B35
:104BA00052DAFBF751FD53EC182BFBF7C0FB41EC3D
:104BB000180B77480621B0EE480AF0EE680A7844F0
:104BC00000F0EEF853EC182B51EC100BFBF7AFFB99
:104BD00041EC1D0B6F48B0EE480AF0EE680A042164
:104BE000784400F0DDF853EC182B51EC100BFBF778
:104BF0009EFB53EC192BFBF727FD41EC190B51ECF5
:104C0000180B01F0BBF941EC180B53EC192B51ECCC
:104C10001D0BFBF7FEFB53EC182BFBF788FB53EC4B
:104C20001A2BFBF7B2FD41EC100B51EC180B53ECB7
:104C3000102BFBF709FD53EC1B2BFBF778FB53EC18
:104C40001C2BFBF7A5FD6DE0FBF7A2FD53EC182B29
:104C5000FBF76DFB41EC180B01F090F941EC1A0BDE
:104C600000208DED00AB00909DED000B51EC1A0B78
:104C700053EC102BFBF7E8FC9DED000B41EC1C0BFB
:104C800053EC102B51EC100BFBF751FB53EC182B92
:104C9000FBF77EFD53EC1C2BFBF7BBFB41EC1C0B25
:104CA0003D48B0EE480AF0EE680A0621784400F06C
:104CB00077F853EC182B51EC100BFBF738FB41EC59
:104CC0001D0B3648B0EE480AF0EE680A042178441D
:104CD00000F066F853EC182B51EC100BFBF727FB98
:104CE00053EC192BFBF7B0FC41EC100B51EC1D0BF6
:104CF00053EC102BFBF78DFB53EC1A2BFBF717FB38
:104D000053EC1C2BFBF7A0FC41EC100B53EC102BCD
:104D10009DED000B51EC100BFBF796FC53EC1B2B9D
:104D2000FBF705FB41EC100BD9E60000000000008A
:104D30000000F03F00000000182D4454FB21094002
:104D40000000F07F000000000000000000000000F4
:104D50000000E03F00000000000000000000F03F05
:104D6000075C143326A6913C0000603C0000000064
:104D7000182D4454FB21F93F2CF504003AF50400AA
:104D8000000000000000E03F0000000000000040C4
:104D900076F4040084F4040088F3040096F304001D
:104DA00070B504462DED028B4D1E00EBC500B0EE34
:104DB000408AF0EE608A90ED000B35F0060017D0C7
:104DC00053EC182B51EC100BFBF7B1FA41EC100B24
:104DD0006D1E04EBC50090ED001B51EC100B53EC65
:104DE000112BFBF731FC41EC100B35F00600E7D13D
:104DF000022D36D0042D1CD0062D1CBFBDEC028B1D
:104E000070BD53EC182B51EC100BFBF790FA94ED9E
:104E10000A1B53EC112BFBF717FC53EC182BFBF779
:104E200086FA94ED081B53EC112BFBF70DFC41ECBB
:104E3000100B53EC182B51EC100BFBF778FA94ED98
:104E4000061B53EC112BFBF7FFFB53EC182BFBF766
:104E50006EFA94ED040B53EC102BFBF7F5FB41ECD1
:104E6000100B53EC182B51EC100BFBF760FA94ED80
:104E7000021B53EC112BFBF7E7FB53EC182BFBF752
:104E800056FA94ED001B53EC112BFBF7DDFBBDEC48
:104E9000028B41EC100B70BD10B553EC102B51EC94
:104EA000100BFBF7D1FB41EC100B10BD0000000014
:104EB0009FED050B10B553EC102B51EC100BFBF7CD
:104EC000A8FA41EC100B10BD00000000000000002B
:104ED00002E008C8121F08C1002AFAD170477047C3
:104EE000002001E001C1121F002AFBD17047000021
:104EF0000149086070470000E40000202DE9F84FE8
:104F000006460D46144628883188084487B24FF07B
:104F10000009A888B18808441FFA80F8CA4670883A
:104F2000032802D14FF0AF0901E04FF0C809F08823
:104F3000032802D14FF0AF0A01E04FF0C80AB7F5DD
:104F4000C37F02DB4FF4C37704E0462F01DC462722
:104F500000E000BFB8F5C37F02DB4FF4C37806E082
:104F6000B8F1460F02DC4FF0460800E000BFB9F18F
:104F7000AF0F02DC4FF0AF0900E000BFBAF1AF0F96
:104F800002DC4FF0AF0A00E000BF38B228800FFA11
:104F900089F068800FFA88F0A8800FFA8AF0E8801C
:104FA000B4F90000B5F90010884205D1B4F9020047
:104FB000B5F90210884215D0B4F802C00CF11E0CED
:104FC0001FFA8CF3B4F800C00CF1140C1FFA8CF229
:104FD000B4F802C01FFA8CF1B4F800C01FFA8CF0CC
:104FE000FEF752FCB4F90400B5F90410884205D16B
:104FF000B4F90600B5F90610884215D0B4F806C019
:105000000CF11E0C1FFA8CF3B4F804C00CF1140C54
:105010001FFA8CF2B4F806C01FFA8CF1B4F804C081
:105020001FFA8CF0FEF730FC1E2014230B4A494671
:1050300000903846FBF7F8FD1E201423084A51461D
:1050400000904046FBF7F0FD28882080688860804B
:10505000A888A080E888E080BDE8F88FA07E0008DE
:10506000F07900088AB0002208210A2001F00AFD28
:105070002C490860142001F0FBFC2B490860FBF769
:10508000C7FD2A490860FBF7C9FD29490860264881
:1050900001682648006801F0C7FC01202549087016
:1050A0000020182103468022CDE9001022A12548C6
:1050B00002F02AF90020182103468022CDE90010D1
:1050C00021A1244802F020F9002008900990022034
:1050D0002149087008A920480078FFF74FF90020FF
:1050E00006900790049005904620ADF818004FF404
:1050F000C370ADF81C004620ADF810004FF4C3702B
:10510000ADF814000020029003900AE0002202A9EA
:105110000448006801F016FF04AA06A902A8FFF7D8
:10512000EDFEF3E7D8000020D4000020DC000020D2
:10513000E0000020D00000204D505536303530546E
:1051400061736B00393F0008496E70757454617368
:105150006B0000006D360008D1000020FCF76EFEE9
:10516000FFF72CFBFEF7D6FFFEF780FFFFF7AEF848
:10517000FFF7CEF8FEF720FFFFF78AF800F012F8ED
:10518000FEF798FF00F024F800BFFEE730B50446B4
:10519000002504E04FF47A7000F05CFF6D1CA5421E
:1051A000F8DB30BD10B5FFF74BFC10B16FF0050414
:1051B00009E00648006820B901200449086000247D
:1051C00001E04FF0FF34204610BD000068000020D1
:1051D00070B5FFF735FC10B16FF005041FE0114802
:1051E0000068012819D100BF801F0021002804DBBE
:1051F0000A07130E0C4A135406E00A07150E0B4A51
:1052000000F00F031B1FD55400BF00BF022005494B
:10521000086001F007FA002401E04FF0FF34204657
:1052200070BD00006800002000E400E018ED00E020
:105230002DE9FF4780468946144600200390FFF77A
:10524000FFFB00284ED1B8F1000F4BD08026182567
:105250008246471E44B3206808B1D4F800A0A06974
:1052600000B1A5692DB1382D03D8207900F00100D7
:1052700018B1002004B0BDE8F087606908B160692A
:105280008608A06840B1E0685C2805D3206918B1A1
:10529000606908B1012708E0A06830B9E06820B96A
:1052A000206910B9002700E00027012F0CD12169E7
:1052B000A0684B463246CDE9005102905146404627
:1052C00002F054F803900DE067B903A8B2B24B4660
:1052D0005146CDE90050404602F016F8012801D0B1
:1052E000002003900398C5E72DE9F04105460E46DE
:1052F0001648076816480068001D00F0CFFE681CBD
:1053000038B936B112480168091D124800F024FF6F
:105310001AE07C190E4800684460BC4207D20C4871
:105320000168091D0C48006800F0FCFE0CE008480C
:105330000168091D0948006800F0F4FE084800688B
:10534000844201D206480460BDE8F0812C000020B0
:10535000180000201C080020200000201C00002055
:105360004800002010B5044600F002FF2448006801
:10537000401C234908602348006840B92148046064
:105380000846006801280DD100F018FA0AE01E480E
:10539000006838B91B480068C06AE16A884201D8D1
:1053A0001848046019480068401C184908600846FD
:1053B000006860641649E06A0968884202D91449A5
:1053C000E06A0860E16A01EB8101124A02EB8100A8
:1053D000211D00F0C1FE00F0F5FE0B48006868B129
:1053E00008480068C06AE16A884207D24FF08050DE
:1053F00009490860BFF34F8FBFF36F8F10BD0000E6
:105400002800002018000020340000204400002064
:10541000300000206C03002004ED00E008B500F02F
:10542000A7FE12480068E8B9114800F06BFE114869
:1054300000F068FE0E48104908600E480F490860E9
:1054400000200F4B0F4A102100900A2001F047FB6B
:10545000064908600846006820B10BA103480068AF
:1054600000F070FF00F0AEFE08BD00005C00002000
:10547000300800204408002054000020580000207C
:1054800058080020AC080020546D72510000000044
:1054900010B516E000F06CFE0C48C068C468201D12
:1054A00000F0FCFD0A480068401E094908600948F0
:1054B0000068401E0749086000F084FE204600F0A6
:1054C0005FF8044800680028E4D110BD08080020F7
:1054D000280000202400002070B504460D46206CF2
:1054E00070B1216CE0680144E160D4E902108842A7
:1054F00001D32168E1602846226CE168FAF7F3FEE7
:1055000070BD2DE9F04104460F4615464FF00008E6
:10551000A66B206C48B9206800282CD1A06802F046
:105520003BF880460020A06025E07DB93946226C1A
:105530006068FAF7D8FE216C606808446060D4E9BE
:105540000101884217D32068606014E03946226C5C
:10555000E068FAF7C8FE216CE068411AE160216852
:10556000E068884203D2216CA068411AE160022DF4
:1055700001D106B1761E701CA0634046BDE8F081E3
:1055800010B5044694F8590030B9206B00F038FE8D
:10559000204600F035FE1AE094F85900012803D1A6
:1055A000204600F02DFE12E094F85900022801D1A7
:1055B000012000E0002050B900BF502080F3118886
:1055C000BFF34F8FBFF36F8F00BF00BFFEE710BD6B
:1055D00001464A6A22B10A6B1268C2F1380000E043
:1055E000002070470146084A126812680AB9012271
:1055F00000E000220A600A6822B9034A1268D268F1
:10560000106800E0002070475400002030B54FF4CF
:105610007053174800F007042CB1C01D20F007009C
:10562000134C041B1B1B0246124C22600024114D1C
:105630006C60D018083820F007000F4C2060002460
:105640000D4D2D686C600C4D2D682C601146441A70
:105650004C60094C24680C60084D4C682C60084D67
:105660004C682C604FF00044064D2C6030BD0000AB
:10567000041000206C000020740000207C0000203A
:10568000780000208800002000BFFFF701FF0648D7
:1056900000680128F9D94FF0805004490860BFF331
:1056A0004F8FBFF36F8FF0E76C03002004ED00E035
:1056B00010B5044654B10020A06020600021E160D4
:1056C00000231A461946204601F0C6FA10BD2DE9FE
:1056D000F04106460D4617469846069C0DB92460D3
:1056E00000E02760E66325640121204601F068FAA6
:1056F00084F850800020A064BDE8F0812DE9F05FBF
:1057000082460E4690469B460A9F0C9C4FEA8801B3
:10571000A522206BFAF7F9FDA8F10100216B01EB3E
:10572000800929F0070909F0070008B9012000E005
:10573000002050B900BF502080F31188BFF34F8F75
:10574000BFF36F8F00BF00BFFEE786B1002507E003
:10575000715D04F134004155705D00B902E06D1CCB
:10576000102DF5D300BF00214320015502E0002099
:1057700084F83400382F00D33727E762E76400202D
:105780002065201D00F0CBFC04F1180000F0C7FCE0
:105790002461C7F13800A06164620020606584F86C
:1057A00058005A465146484600F0D2FB20600B98FC
:1057B00008B10B980460BDE8F09F000010B500240C
:1057C00007E004EB84010F4A02EB810000F09AFC31
:1057D000641C382CF5D30C4800F094FC0B4800F006
:1057E00091FC0B4800F08EFC0A4800F08BFC0A4844
:1057F00000F088FC0448094908600448084908602A
:1058000010BD00006C030020CC070020E007002042
:10581000F4070020080800201C0800201C000020BD
:105820002000002010B50146164800E0006803681B
:105830008B42FBD30246436813448B4204D1436836
:105840004C682344436001460A464B68134404688D
:10585000A34211D10C4C03682468A34208D04B68C2
:105860000468646823444B6003681B680B6005E0B0
:10587000054B1B680B6001E003680B60884200D099
:10588000016010BD6C000020740000202DE9F04183
:1058900004460D4616461F464FF000086560246119
:1058A000B5420CD8F01BA169884202D34FF0010821
:1058B00011E0211D0948006800F034FC0BE0BE42F5
:1058C00004D2BD4202D34FF0010804E0211D044878
:1058D000006800F027FC4046BDE8F0815800002039
:1058E0005400002070B5054600F042FCA86B08B9D2
:1058F000012400E0002400F065FC204670BD70B576
:10590000054600F035FCA86BE96B884201D1012403
:1059100000E0002400F056FC204670BDF1B5009870
:10592000846C002654B900BF502080F31188BFF367
:105930004F8FBFF36F8F00BF00BFFEE7A06BE16B1F
:10594000884201D2012000E0002050B900BF502061
:1059500080F31188BFF34F8FBFF36F8F00BF00BF7D
:10596000FEE7A06BE16B88421BD294F94550002200
:1059700069462046FFF7C5FD0646681C60B9606AA7
:1059800008B9012000E0002050B904F1240001F022
:10599000A7FE28B1012603E0681C40B284F8450048
:1059A00000BF3046F8BD0000F8B505460F461A485E
:1059B0000068C068C468201D00F070FB94F82800DF
:1059C00000F00400E8B1A06941192B463A46204690
:1059D000FFF75CFFD8B1002003462A46014600903D
:1059E000204601F087FF064656B900BF502080F3DD
:1059F0001188BFF34F8FBFF36F8F00BF00BFFEE76B
:105A000005E094F8280020F0010084F828002046E2
:105A1000216A8847F8BD000054000020F0B587B027
:105A2000A0E00398002811DA04AE56B900BF502058
:105A300080F31188BFF34F8FBFF36F8F00BF00BF9C
:105A4000FEE7D6E90020B168904700BF0398002820
:105A5000E6DB059C606908B9012000E0002010B970
:105A6000201D00F01BFB02A800F0DEF8054603989D
:105A70000A2875D2DFE800F00905073941630608F6
:105A80003A4200BF00BF00BF00BF94F8280040F0BA
:105A9000010084F828000498A269811803462A4668
:105AA0002046FFF7F3FEF8B12046216A884794F8B4
:105AB000280000F00400B8B1002000900498A1690B
:105AC000421800231946204601F014FF074657B933
:105AD00000BF502080F31188BFF34F8FBFF36F8F4B
