:020000040800F2
:10000000185600206102000849400008CB2C000867
:100010004540000829060008934D00080000000034
:10002000000000000000000000000000A101000826
:100030005707000800000000FD01000859490008AA
:100040007B0200087B0200087B0200087B0200089C
:100050007B0200087B0200087B0200087B0200088C
:100060007B0200087B020008650700087B0200088D
:100070007B0200087B0200087B0200087B0200086C
:100080007B0200087B0200087B0200087B0200085C
:100090007B0200087B0200087B0200087B0200084C
:1000A0007B0200087B0200087B0200087B0200083C
:1000B0007B0200087B020008394A00087B02000826
:1000C0007B0200087B0200087B020008B947000899
:1000D0007B0200087B0200087B0200087B0200080C
:1000E000590700087B0200087B0200087B02000819
:1000F0007B020008494A00087B0200087B020008D6
:100100007B0200087B0200087B0200087B020008DB
:100110007B0200087B0200087B0200087B020008CB
:100120002D0600087B0200087B0200083D0600083F
:100130007B0200087B0200087B0200087B020008AB
:100140007B0200087B0200087B0200087B0200089B
:100150007B0200087B0200087B0200087B0200088B
:100160007B0200087B0200087B0200087B0200087B
:100170007B0200087B0200087B02000800000000F0
:100180007B0200087B020008DFF810D000F0F8F8CE
:10019000004800473D570008AFF300801856002084
:1001A0002C4B19680868B0E8F04F80F30988BFF35A
:1001B0006F8F4FF0000080F311887047000000003F
:1001C00008480068006880F308884FF0000080F35A
:1001D000148862B661B6BFF34F8FBFF36F8F00DF35
:1001E00000BF00BF08ED00E0DFF80C00016841F43B
:1001F00070010160704700BF88ED00E0EFF30980F7
:10020000BFF36F8F134B1A681EF0100F08BF20ED5D
:10021000108A20E9F04F106009B44FF0500080F3CD
:100220001188BFF34F8FBFF36F8F06F0E5FD4FF0DE
:10023000000080F3118809BC19680868B0E8F04F25
:100240001EF0100F08BFB0EC108A80F30988BFF3CE
:100250006F8F704720000020EFF30580704700008B
:100260000648804706480047FEE7FEE7FEE7FEE750
:10027000FEE7FEE7FEE7FEE7FEE7FEE7254A0008A9
:10028000890100082DE9F05F0546002092469B4653
:1002900088460646814640241BE02846414647469C
:1002A000224600F05CF853465A46C01A914110D3DA
:1002B00011461846224600F043F82D1A67EB010854
:1002C0004F4622460120002100F03AF817EB0009C2
:1002D0004E41201EA4F10104DFDC484631462A4687
:1002E0004346BDE8F09F40EA01039B0703D009E0C5
:1002F00008C9121F08C0042AFAD203E011F8013B12
:1003000000F8013B521EF9D27047D2B201E000F86A
:10031000012B491EFBD270470022F6E710B51346A9
:100320000A4604461946FFF7F0FF204610BD034673
:1003300011F8012B00F8012B002AF9D1184670475B
:10034000202A04DB203A00FA02F100207047914095
:10035000C2F1200320FA03F3194390407047202A8A
:1003600004DB203A21FA02F00021704721FA02F35F
:10037000D040C2F120029140084319467047000066
:10038000064C074D06E0E06840F0010394E80700E2
:1003900098471034AC42F6D3FFF7FAFE345E0508F6
:1003A000545E050870B58C1810F8015B15F0070352
:1003B00001D110F8013B2A1106D110F8012B03E0FE
:1003C00010F8016B01F8016B5B1EF9D12B0705D406
:1003D0000023521E0DD401F8013BFAE710F8013B4F
:1003E000CB1A921C03E013F8015B01F8015B521E6B
:1003F000F9D5A142D8D3002070BD70B50546AC6BCD
:10040000206C00F0500050BB206C40F40070206461
:100410002068806800F04050E8B9207ED8B9206894
:10042000C06A00F4700020B12068806800F4806029
:1004300088B92068406820F0200021684860206C5E
:1004400020F480702064206C00F4805018B9206C77
:1004500040F001002064204600F08CFA0BE0206C94
:1004600000F0100018B1204600F08FFA03E0A06BF6
:10047000C16C2846884770BD70B50546AC6B4020FE
:100480002064606C40F004006064204600F07DFA57
:1004900070BD70B50446A56B284600F075FA70BDB6
:1004A00055494A6822F440324A604A6843681A4310
:1004B0004A600268526822F4807203685A600268D7
:1004C0005368026943EA022203685A60026852686C
:1004D00022F0407203685A600268526883681A43C7
:1004E00003685A600268926822F4006203689A60A6
:1004F00002689268C3681A4303689A603F4B826A35
:100500009A4218D00268926822F0706203689A607A
:1005100002689268836A1A4303689A600268926864
:1005200022F0405203689A6002689268C36A1A43D4
:1005300003689A600BE00268926822F070620368B8
:100540009A600268926822F0405203689A600268DA
:10055000926822F0020203689A6002689368027E41
:1005600043EA420203689A602022125CA2B1026848
:10057000526842F4006203685A600268526822F4CA
:10058000604203685A6002685368426A521E43EA36
:10059000423203685A6005E00268526822F4006241
:1005A00003685A600268D26A22F470020368DA6251
:1005B0000268D36A828B521E43EA02520368DA62EF
:1005C0000268926822F4007203689A600268936875
:1005D00090F8302043EA422203689A6002689268E9
:1005E00022F4806203689A6002689368426943EA71
:1005F000822203689A607047002301400100000FC7
:1006000010B528220549064800F056FA00220421B8
:100610000A2006F0BDFD0349086010BD024D002010
:1006200034010020AC00002000BFFEE710B50248F6
:1006300000F030FB10BD00007C01002010B5024826
:1006400000F028FB10BD0000E00200200146087801
:1006500010381823B0FBF3F20848805CC865032A01
:1006600005D908686FF30900001D886503E0086874
:100670006FF309008865886D70470000807E000870
:10068000014600208A6A8B69CBB932B1012A0DD0AC
:10069000022A03D0032A10D10EE000BFCB6A03F078
:1006A0008073B3F1807F00D1012007E0CB6AB3F102
:1006B000C07F00D1012001E000E000BF34E08B6981
:1006C000B3F5005F1AD132B1012A07D0022A03D054
:1006D000032A11D10AE000BF01200EE0CB6A03F02B
:1006E0008073B3F1807F00D1012006E0CB6AB3F1C3
:1006F000C07F00D1012000E000BF15E032B1012A27
:1007000005D0022A04D0032A0CD103E000BF00BFA9
:10071000012008E0CB6A03F08073B3F1807F00D141
:10072000012000E000BF00BF704730B504682468B6
:1007300024F4802405682C60046863608468402C7D
:1007400004D10468A2600468E16003E00468A16069
:100750000468E26030BD704710B54FF4004000F00F
:1007600089FC10BD10B5102000F084FC10BD72B6DD
:1007700000BFFEE70148006870470000AC000020A1
:100780002DE9F05F0746884615461E46DDF828909D
:1007900008EB0900401E83B2B819401E82B24146E0
:1007A000384602F0C1FE00240AE015F814B005EB4B
:1007B000440090F801A04BEA0A2003F0B7F8641C4B
:1007C00006FB09F0A042F0DC06484088401E83B2D8
:1007D00004480088401E82B20021084602F0A4FEB0
:1007E000BDE8F09FF04C002038B502460020009094
:1007F00000BF92F83C00012801D1022038BD012041
:1008000082F83C0000BF0868092816D91068C06843
:100810000C780A3C04EB44050724AC40A043146860
:10082000E0600C780A3C04EB44048868A04014683B
:10083000E46820431468E06013E0106800690C78F5
:1008400004EB44050724AC40A043146820610C78F5
:1008500004EB44048868A0401468246920431468A9
:1008600020614868072817D21068406B0C79641E15
:1008700004EB84051F24AC40A0431468606308881F
:1008800080B20C79641E04EB8404A0401468646B8D
:1008900020431468606331E048680D2817D210685F
:1008A000006B0C79E41F04EB84051F24AC40A043CB
:1008B00014682063088880B20C79E41F04EB840478
:1008C000A0401468246B20431468206316E010686D
:1008D000C06A0C790D3C04EB84051F24AC40A04396
:1008E0001468E062088880B20C790D3C04EB840443
:1008F000A0401468E46A20431468E062194B1A4C63
:100900001068A04206D10868122803D1586840F444
:1009100080005860144C1068A0421CD10868102850
:1009200002D00868112816D1586840F400005860B9
:10093000086810280FD10D4800680D4CB0FBF4F08A
:1009400000EB80004000009002E00098401E009004
:1009500000980028F9D100BF002082F83C0000BFB9
:1009600000BF4BE700230140002001401C00002095
:1009700040420F0010B504460248844201D102F003
:100980007BFB10BD340100207047704770B50446F2
:1009900000250CB9012070BD1549A06A884200D01D
:1009A00000BF206C30B9204600F024F800206064BD
:1009B00084F83C00206C00F0100088B9206C20F412
:1009C000885040F0020020642046FFF769FD0020B7
:1009D0006064206C20F0020040F00100206400E020
:1009E000012500BF002084F83C0000BF2846D2E764
:1009F0000100000F10B586B00446142101A8FFF7CE
:100A00008BFC2849206888424AD100BF0020009012
:100A10002548006840F48070234908600846006853
:100A200000F48070009000BF00BF00BF0020009065
:100A30001D481438006840F001001B491439086053
:100A40000846006800F00100009000BF00BF0F20C2
:100A50000190032002900020039001A9134800F0A8
:100A600017FB134813490860002048600021114813
:100A70008160C1604FF4806101614900416189007A
:100A800081614911C16100210162416200F022FAD5
:100A900008B1FFF76CFE00BF0648A063846300BF87
:100AA00006B010BD00200140443802400000024062
:100AB000106402407C010020F8B504460D4616463D
:100AC0000020009000BF94F83C00012801D10220D2
:100AD000F8BD012084F83C0000BF2068806800F069
:100AE0000100A0B92068806840F00100216888609A
:100AF000554800685549B0FBF1F000EB400000900C
:100B000002E00098401E009000980028F9D120686B
:100B1000806800F48070B0F5807F05D1206880681F
:100B200020F48070216888602068806800F00100EF
:100B300000287ED0206C40F20161884340F4807030
:100B400020642068406800F4806028B1206C20F4A4
:100B5000005040F480502064206C00F48050B0F5C8
:100B6000805F04D1606C20F00600606401E000202A
:100B7000606400BF002084F83C0000BF344F35485B
:100B8000A16BC8633448A16B08643448A16BC86486
:100B90006FF02200216808602068406840F08060A3
:100BA000216848602068806840F48070216888600F
:100BB000226802F14C0133462A46A06B00F000FA8D
:100BC000786800F01F0018BB25492068884213D0C0
:100BD00024492068884204D1381D006800F01F00B5
:100BE00050B12149206888422BD11948001D006866
:100BF00000F01F00102824D22068806800F04050C8
:100C0000F8B92068806840F080402168886018E06A
:100C100013492068884214D12068806800F0405051
:100C200078B92068806840F080402168886008E0DA
:100C3000FFE7206C40F010002064606C40F0010081
:100C40006064002044E700001C00002040420F00C8
:100C500000230140FB030008930400087904000806
:100C6000002001400021014000220140014691F88E
:100C70003500022803D080204865012070470520F8
:100C800081F835000868006820F001000A681060EB
:100C90000020F3E7F8B50446002000908C48006877
:100CA0004FF41651B0FBF1F7A56D2E6894F85C1067
:100CB00008208840304098B12068006800F00400A7
:100CC00070B12068006820F004002168086094F882
:100CD0005C1008208840A860606D40F001006065ED
:100CE00094F85C1001208840304068B12068406969
:100CF00000F0800040B194F85C1001208840A860AA
:100D0000606D40F00200606594F85C10042088403B
:100D1000304068B12068006800F0020040B194F8EB
:100D20005C1004208840A860606D40F0040060659D
:100D300094F85C1010208840304078B32068006838
:100D400000F0080050B394F85C1010208840A860B0
:100D50002068006800F4802080B12068006800F4FA
:100D6000002028B9206CC8B12046216C884715E0C6
:100D7000A06C98B12046A16C88470FE020680068FD
:100D800000F4807028B92068006820F0080021680D
:100D90000860206C10B12046216C884794F85C10E4
:100DA000202088403040002865D02068006800F08E
:100DB000100000285FD094F85C1020208840A860C4
:100DC00094F83500052828D12068006820F0160026
:100DD000216808602068406920F08000216848612F
:100DE000206C08B9A06C28B12068006820F00800C9
:100DF0002168086094F85C103F208840A8600120BA
:100E000084F8350000BF002084F8340000BF206D56
:100E100010B12046216D8847F8BD2068006800F4B5
:100E2000802080B12068006800F4002028B9606C40
:100E300010B12046616C88471DE0E06BD8B12046B8
:100E4000E16B884717E02068006800F4807068B99B
:100E50002068006820F0100021680860012084F8F4
:100E6000350000BF002084F8340000BFE06B10B1F3
:100E70002046E16B8847606D38B3606D00F001007B
:100E8000F0B1052084F835002068006820F00100EA
:100E90002168086000BF0098401C0090B84200D94B
:100EA00005E02068006800F001000028F3D100BFD1
:100EB000012084F8350000BF002084F8340000BF12
:100EC000E06C10B12046E16C884700BFA4E7000049
:100ED0001C0000202DE9F0410446002500F0E0F957
:100EE000074614B90120BDE8F081606A00B100BF77
:100EF000022084F8350000BF002084F8340000BFD1
:100F00002068006820F00100216808600AE000F015
:100F1000C7F9C01B052805D920206065032084F887
:100F20003500E0E72068006800F001000028EED1FD
:100F30002068056821480540D4E901010843E168BB
:100F400008432169084361690843A1690843E169CD
:100F50000843216A08430543606A042803D1D4E9A1
:100F60000B0108430543206805602068456925F0AA
:100F70000705606A0543606A04280DD1A06A05432D
:100F8000E06A48B12046FFF77BFB28B1402060654E
:100F9000012084F83500A6E7206845612046FFF768
:100FA00055FB064694F85C103F208840B060002056
:100FB0006065012084F83500002094E73F8010F040
:100FC0002DE9F04704460D4616461F464FF000082F
:100FD000D4F8589000BF94F83400012802D10220C0
:100FE000BDE8F087012084F8340000BF94F8350094
:100FF000012825D1022084F83500002060653B4699
:10100000324629462046FFF790FB94F85C103F20BB
:101010008840C9F808002068006840F01600216880
:101020000860206C28B12068006840F00800216842
:1010300008602068006840F001002168086006E050
:1010400000BF002084F8340000BF4FF00208404683
:10105000C6E710B50446102C05D0B4F5004F05D1F5
:1010600002F076FC03E003F039FB00E000BF00BFB4
:1010700010BD000010B5044604480068204020B1AF
:10108000024804602046FFF7E4FF10BD143C014015
:10109000F8B502460B460025002400200021D6E0CA
:1010A000012606FA01F51E6806EA0504AC4274D171
:1010B0001E7906F00306012E04D01E7906F0030601
:1010C000022E13D190684F000326BE40B0434F005C
:1010D000DE68BE4030439060506801268E40B043C9
:1010E0001E79C6F300168E40304350601E7906F01C
:1010F0000306032E09D0D0684F000326BE40B0433C
:101100004F009E68BE403043D0601E7906F0030653
:10111000022E13D1CF0802F1200656F827004E0701
:10112000F70E0F26BE40B0434F07FF0E1E69BE40AC
:101130003043CF0802F1200646F8270010684F0020
:101140000326BE40B0431E7906F003064F00BE40A2
:10115000304310605E6806F44036002E76D000BF43
:10116000002600963C4E366846F480463A4F3E6074
:101170003E46366806F48046009600BF00BF374EF4
:101180008F0856F827008E07370F0F26BE40B04352
:10119000334EB24202D1002624E057E0314EB24233
:1011A00001D101261EE0304EB24201D1022619E0E3
:1011B0002E4EB24201D1032614E02D4EB24201D18F
:1011C00004260FE02B4EB24201D105260AE02A4E3A
:1011D000B24201D1062605E0284EB24201D10726CF
:1011E00000E008268F073F0FBE4030431B4E8F089C
:1011F00046F82700224E3068A0435E6806F4801649
:1012000006B120431E4E3060361D3068A0435E6834
:1012100006F4001606B12043194E361D3060184EF4
:10122000361F3068A0435E6806F4003606B12043DE
:10123000134E361F3060361F3068A0435E6806F4D8
:10124000803606B120430E4E083E3060491C1029FE
:10125000FFF426AFF8BD00004438024008380140D2
:10126000000002400004024000080240000C02405E
:10127000001002400014024000180240001C02400E
:10128000083C0140024613690B400BB1012000E00D
:10129000002070470AB1816101E00B04836170474F
:1012A00001480068704700001000002070B5044637
:1012B0000CB9012070BD94F83D0028B9002084F8D5
:1012C0003C00204600F092F9242084F83D0020687C
:1012D000006820F00100216808602068006840F480
:1012E0000040216808602068006820F40040216800
:1012F000086000F0BDFB05465C496068884206D87E
:101300005B48854201D2012007E0002005E05948F2
:10131000854201D2012000E00020012800D1C9E768
:101320005548B5FBF0F62068406820F03F00304398
:10133000216848604D496068884201D8701C07E008
:101340004FF4967070434FF47A71B0FBF1F0401C8B
:101350002168096A21F03F01084321680862434976
:101360006068884214D8681E61684900B0FBF1F0DB
:10137000401CC0F30B00042801D204203DE0681E8D
:1013800061684900B0FBF1F0401CC0F30B0034E091
:10139000A06838B9681E616801EB4101B0FBF1F04B
:1013A000401C0AE0681E616801EBC10202EB0111FA
:1013B000B0FBF1F0401C40F48040C0F30B0008B9D2
:1013C00001201AE0A06848B9681E616801EB41017C
:1013D000B0FBF1F0401CC0F30B000CE0681E61682C
:1013E00001EBC10202EB0111B0FBF1F0401CC0F3B4
:1013F0000B0040F4804040F400402168C9694CF67D
:10140000FF72914308432168C861D4E9070108438A
:101410002168096821F0C001084321680860D4E907
:10142000031008432168896848F2FF32914308435A
:1014300021688860D4E9050108432168C96821F062
:10144000FF0108432168C8602068006840F001007F
:101450002168086000202064202084F83D000020DE
:10146000206384F83E0000BF24E70000A08601004E
:1014700080841E0000093D0040420F002DE9F84322
:101480000446894616461F46DDF82080FFF708FF10
:10149000054694F83D0020287ED1192301225149A8
:1014A0002046009501F0C5FC10B10220BDE8F8838C
:1014B00000BF94F83C00012801D10220F6E701208A
:1014C00084F83C0000BF2068006800F0010028B9E3
:1014D0002068006840F0010021680860206800680A
:1014E00020F4006021680860212084F83D0010206D
:1014F00084F83E000020206466626785608D208548
:101500003948E0622B4642464946204601F0FEFB40
:1015100008B10120CAE700BF0020009020684069A0
:10152000009020688069009000BF00BF44E02A4618
:101530004146204601F059FD50B1206C042805D1E8
:101540002068006840F40070216808600120ADE761
:10155000606A007821680861606A401C6062608D82
:10156000401E6085208D401E208520684069C0F3A4
:10157000800070B1208D60B1606A007821680861D8
:10158000606A401C6062608D401E6085208D401E38
:1015900020852A46414600E022E0204601F016FC64
:1015A00050B1206C042805D12068006840F4007018
:1015B00021680860012079E7208D0028B7D12068D4
:1015C000006840F4007021680860202084F83D0025
:1015D000002084F83E0000BF84F83C0000BF65E7AF
:1015E000022063E7020010000000FFFF10B586B084
:1015F0000446142101A8FEF78FFE1B49206888428B
:1016000030D100BF002000901848006840F0020070
:10161000164908600846006800F00200009000BF0C
:1016200000BF4FF440600190122002900020039010
:10163000032004900420059001A90D48FFF728FD20
:1016400000BF0020009009481030006840F480007E
:101650000649103108600846006800F480000090D8
:1016600000BF00BF06B010BD005800403038024037
:10167000000402400348006803490978084401490E
:1016800008607047100000201800002010B50D48B9
:10169000006840F400700B4908600846006840F498
:1016A000806008600846006840F48070086003208D
:1016B00000F0E0F8052000F007F800F05FF80020E7
:1016C00010BD0000003C02402DE9F04188B0044606
:1016D0000027B84600BF002001902348006840F46E
:1016E0008070214908600846006800F4807001900D
:1016F00000BF00BF02A903A800F092F9069F1FB91E
:1017000000F0B6F9054602E000F0B2F945001748CE
:10171000B5FBF0F0A0F1010815481649086040F249
:10172000E7311448C160C0F8048000210161816084
:10173000816100F04DFF064696B90E4800F0B6FFF5
:1017400006466EB92D2000F043F8102C07D2002277
:1017500021462D2000F050F80748046000E00126E3
:10176000304608B0BDE8F0814038024040420F00EA
:1017700000200040D00300201400002008B500BF66
:10178000002000901148006840F480400F49086034
:101790000846006800F48040009000BF00BF00BF12
:1017A00000200090081F006840F08050091F08606A
:1017B0000846006800F08050009000BF00BF002283
:1017C0000F21901E00F018F808BD000044380240B8
:1017D0000146084600280DDB00BF00BF00F01F03D4
:1017E00001229A4043099B0003F1E023C3F8002142
:1017F00000BF00BF00BF70472DE9F05F80460D4677
:101800001646002703F0C8FA074639462A463346EB
:1018100001F00700C0F1070ABAF1040F02D94FF036
:10182000040A01E0C0F1070AD14600F1040ABAF146
:10183000070F02D24FF0000A01E0A0F1030AD446DC
:101840004FF0010A0AFA09FAAAF1010A0AEA020AA1
:101850000AFA0CFA4FF0010B0BFA0CFBABF1010B7F
:101860000BEA030B4AEA0B042146404603F09CFABC
:10187000BDE8F09F00BF00F00702064B19684FF665
:10188000FF031940044B0B4343EA0221014B19604B
:1018900000BF70470CED00E00000FA0570B504468B
:1018A0000D460CB9012070BD5848006800F00700D3
:1018B000A84209D255490D700846006800F007009B
:1018C000A84201D00120EEE7207800F002000228B3
:1018D0001DD1207800F00400042805D14C48006890
:1018E00040F4E0504A490860207800F008000828D9
:1018F00005D14748006840F46040454908604448C5
:10190000006820F0F000A168084341490860207891
:1019100000F00100A8B36068012807D13C480838EE
:101920000068C0F34040B8B90120BCE760680228F5
:1019300002D06068032807D1354808380068C0F332
:10194000406048B90120AEE7314808380068C0F36C
:10195000400008B90120A6E72D48006820F00300E8
:10196000616808432A490860FFF79AFC064609E0C7
:10197000FFF796FC801B41F28831884202D9032090
:1019800091E707E02248006800F00C006168B0EBC6
:10199000810FEDD11D48006800F00700A84209D969
:1019A0001A490D700846006800F00700A84201D0EF
:1019B000012078E7207800F00400042807D11448BB
:1019C000006820F4E050E16808431149086020787D
:1019D00000F00800082808D10D48006820F4604095
:1019E000216940EAC1000A49086000F051F808493D
:1019F0000968C1F30311074A515CC84006490860F1
:101A000006480068FFF760FE00204CE7003C0240FB
:101A100008380240887E00081C00002014000020C6
:101A20000F2202600D4A126802F0030242600B4A64
:101A3000126802F0F0028260084A126802F4E05272
:101A4000C260064A126802F46042D2080261044A87
:101A5000126802F007020A6070470000083802406E
:101A6000003C024001480068704700001C00002054
:101A700000B5FFF7F7FF04490968C1F38221034A63
:101A8000515CC84000BD000008380240987E000844
:101A90002DE9F047002400250026A14625480068CE
:101AA00000F00C0020B1042805D008283AD105E048
:101AB000DFF8849039E0DFF8849036E01D48001F9D
:101AC000006800F03F041B48001F006800F480001D
:101AD00078B11A481749091F0968C1F38811A0FB9A
:101AE00001700146224600233846FEF7CBFB05462F
:101AF0000EE011480F49091F0968C1F38811A0FBC6
:101B000001700146224600233846FEF7BBFB05461E
:101B10000848001F0068C0F30140401C4600B5FBA8
:101B2000F6F902E0DFF8109000BF00BF4846BDE8BC
:101B3000F0870000083802400024F40040787D015E
:101B4000F8B504460CB90120F8BD207800F001007A
:101B5000002874D0F948006800F00C0004280DD06B
:101B6000F648006800F00C00082813D1F348001F65
:101B7000006800F48000B0F5800F0BD1EF48083802
:101B80000068C0F34040002859D06068002856D152
:101B90000120D9E700BF6068B0F5803F08D1E74871
:101BA0000838006840F48030E449083908601EE0D5
:101BB0006068B0F5A02F0DD1E0480838006840F407
:101BC0008020DE49083908600846006840F480300B
:101BD00008600CE0D9480838006820F48030D74904
:101BE000083908600846006820F48020086000BFBB
:101BF000606890B1FFF754FB054606E0FFF750FB25
:101C0000401B642801D903209EE7CC4808380068AF
:101C1000C0F340400028F1D011E0FFF741FB05463A
:101C200006E0FFF73DFB401B642801D903208BE74A
:101C3000C24808380068C0F340400028F1D120783D
:101C400000F0020002285FD1BC48006800F00C00E0
:101C500058B1BA48006800F00C0008281CD1B748F9
:101C6000001F006800F48000B0B9B448083800686C
:101C7000C0F3400020B1E068012801D0012063E7F3
:101C8000AE480838006820F0F800216940EAC10039
:101C9000AA490839086037E0E06800B30120A84984
:101CA0000860FFF7FDFA054606E0FFF7F9FA401B6A
:101CB000022801D9032047E7A04808380068C0F38C
:101CC00040000028F1D09D480838006820F0F80056
:101CD000216940EAC10099490839086014E00020F0
:101CE00097490860FFF7DCFA054606E0FFF7D8FAE7
:101CF000401B022801D9032026E7904808380068D5
:101D0000C0F340000028F1D1207800F00800082836
:101D10002CD16069A8B101208A490860FFF7C0FA98
:101D2000054606E0FFF7BCFA401B022801D9032054
:101D30000AE782486C300068C0F340000028F1D008
:101D400014E000207F490860FFF7AAFA054606E084
:101D5000FFF7A6FA401B022801D90320F4E67748D2
:101D60006C300068C0F340000028F1D1207800F00A
:101D70000400042870D1002770483830006800F053
:101D8000805090B900BF002000906C483830006847
:101D900040F080506949383108600846006800F01A
:101DA0008050009000BF00BF01276748006800F422
:101DB0008070B0B96448006840F48070624908607F
:101DC000FFF76EFA054606E0FFF76AFA401B0228A5
:101DD00001D90320B8E65C48006800F48070002850
:101DE000F2D000BFA068012808D1544868300068CC
:101DF00040F001005149683108601DE0A0680528E5
:101E00000DD14E486830006840F004004B496831FD
:101E100008600846006840F0010008600CE0474890
:101E20006830006820F001004449683108600846C5
:101E3000006820F00400086000BFA068A8B1FFF7A8
:101E40002FFA054609E0FFF72BFA401B41F28831D3
:101E5000884202D9032077E626E0384868300068D7
:101E6000C0F340000028EED013E0FFF719FA054652
:101E700008E0FFF715FA401B41F28831884201D98A
:101E8000032061E62D4868300068C0F34000002858
:101E9000EFD1012F07D129483830006820F0805059
:101EA00026493831086000BFA069002845D0234882
:101EB000006800F00C0008285DD0A069022845D118
:101EC00000201F490866FFF7EBF9054606E0FFF71B
:101ED000E7F9401B022801D9032035E617480838E6
:101EE0000068C0F340600028F1D1D4E9070108433D
:101EF000616A40EA81110122A06AC2EB500041EA06
:101F000000412C20005D41EA00600C49091F086077
:101F100001200B490866FFF7C3F9054606E0FFF705
:101F2000BFF9401B022801D903200DE603480838F9
:101F30000068C0F340600028F1D049E00838024052
:101F400000004742800E47420070004000202149B7
:101F50000866FFF7A5F9054606E0FFF7A1F9401B63
:101F6000022801D90320EFE51B480068C0F3406058
:101F70000028F2D12CE0A069012800D1E4E5164840
:101F8000001D0668A069012820D006F48001E069E0
:101F900081421BD106F03F01206A814216D147F6EB
:101FA000C0703040616AB0EB811F0FD106F4403140
:101FB0000122A06AC2EB5000B1EB004F06D106F03F
:101FC00070612C20005DB1EB006F01D00120BBE5FA
:101FD0000020B9E500004742003802407047000089
:101FE000F8B504462068466820688568C5F3801007
:101FF00048B905F0010030B1C6F3801018B1204691
:10200000216C8847F8BDC5F3400030B1C6F3C0105D
:1020100018B12046616C8847F4E7C5F3401030B929
:10202000C5F3801018B9C5F3002000287CD0C6F392
:10203000401000287DD0C5F38010F0B194F8510015
:1020400003280ED0606D40F00400606500BF0020E2
:1020500000902068C068009020688068009000BFF1
:102060000BE000BF002000902068C068009020684E
:102070008068009000BF00BFC4E7C5F3401088B17E
:10208000606D40F00100606500BF00200090206896
:10209000806800902068006820F040002168086097
:1020A00000BF00BFC5F3002058B1606D40F00800CC
:1020B000606500BF0020009020688068009000BF2D
:1020C00000BF606D78B32068406820F0E0002168B0
:1020D0004860012084F8510006F00200022802D076
:1020E00006F0010008B32068406820F00300216872
:1020F0004860E06C50B11048E16C0865E06CFEF798
:10210000B5FD18B1606D40F040006065A06C50B145
:102110000948A16C0865A06CFEF7A8FD18B1606DB8
:1021200040F04000606503E003E02046FFF756FF03
:1021300068E700BF66E70000C947000810B504461D
:102140000CB9012010BD606A38B96068B0F5827FB3
:1021500000D105E00021E16102E00021216161611F
:102160000021A16294F8510028B9002084F85000A1
:10217000204600F047F8022084F8510020680068EB
:1021800020F0400021680860A08800F48270218956
:1021900001F404410843A18901F400610843217C52
:1021A00001F002010843217D01F001010843218B68
:1021B00001F400710843217F01F038010843202118
:1021C000095D01F080010843218D01F400510843AD
:1021D000216808600421A06901EA104094F82410E5
:1021E00001F010010843216848602068C06920F4AC
:1021F00000602168C86100206065012084F85100FA
:1022000000209FE710B586B00446142101A8FEF710
:1022100083F84A492068884256D100BF00200090C8
:102220004748006840F48050454908600846006807
:1022300000F48050009000BF00BF00BF002000905D
:102240003F481438006840F002003D4914390860E6
:102250000846006800F00200009000BF00BF282080
:10226000019002200290002003900320049005209A
:10227000059001A93348FEF70BFF33483349086046
:102280004FF0C06048604021304881600021C1604B
:102290004FF480610161002141618161C16101628E
:1022A0004162FEF717FE08B1FEF761FA00BF27484A
:1022B000A064846300BF002205212320FFF79CFA5D
:1022C0002320FFF785FA36E021492068884232D181
:1022D00000BF002000901A48001F006840F4004032
:1022E0001749091F08600846006800F40040009084
:1022F00000BF00BF00BF00200090114814380068E4
:1023000040F004000E49143908600846006800F0E7
:102310000400009000BF00BF4FF4E0500190022085
:10232000029000200390032004900620059001A94C
:102330000848FEF7ADFE06B010BD000000300140B9
:10234000443802400004024058640240E002002089
:10235000003C0040000802402DE9F84304460F46C7
:1023600016461D46FEF79CFF8046B14694F8510084
:10237000012802D00220BDE8F88307B10EB9012080
:10238000F9E700BF94F85000012801D10220F2E7DC
:10239000012084F8500000BF032084F85100002081
:1023A00060652763A686E686A063A087E0876064F1
:1023B0002064A068B0F5004F0BD12068006820F0C1
:1023C0004000216808602068006840F4804021686F
:1023D00008602068006800F04000402805D02068B0
:1023E000006840F0400021680860E068B0F5006FC8
:1023F00037D1606810B1B9F1010F09D1206B0088A5
:102400002168C860206B801C2063E08E401EE0863F
:1024100023E02068806800F0020002280AD1206BC7
:1024200000882168C860206B801C2063E08E401EFD
:10243000E08612E0FEF734FFA0EB0800A84201D3CB
:10244000681C00B94DB9012084F8510000BF00207C
:1024500084F8500000BF03208DE7E08E0028D8D11B
:1024600036E0606810B1B9F1010F09D1206B007836
:1024700021680873206B401C2063E08E401EE086BC
:1024800023E02068806800F0020002280AD1206B57
:10249000007821680873206B401C2063E08E401E8A
:1024A000E08612E0FEF7FCFEA0EB0800A84201D394
:1024B000681C00B94DB9012084F8510000BF00200C
:1024C00084F8500000BF032055E7E08E0028D8D1E3
:1024D00042462946204602F081F908B12020606575
:1024E000A06850B900BF002000902068C06800902C
:1024F00020688068009000BF00BF012084F8510070
:1025000000BF002084F8500000BF606D08B10120BA
:1025100031E700202FE770477047000030B50246D2
:102520000B4600BF92F83C00012801D1022030BDCB
:10253000012082F83C0000BF022082F83D001068B4
:1025400044681068816824F07004186804431068B7
:102550004460184D1068A8421BD01068B0F1804F3D
:1025600017D0154D1068A84213D0144D1068A8421A
:102570000FD0134D1068A8420BD0124D1068A8421E
:1025800007D0114D1068A84203D0104D1068A84222
:1025900005D121F080015868014310688160012055
:1025A00082F83D0000BF002082F83C0000BF00BF61
:1025B000BDE70000000001400004004000080040AA
:1025C000000C0040000401400040014000180040A1
:1025D00010B504460CB9012010BD94F83D0028B98F
:1025E000002084F83C00204600F026F8022084F801
:1025F0003D00211D206802F02FFA012084F84600DA
:1026000000BF84F83E0001213F20015540200155C4
:102610004120015500BF00BF012084F84200432043
:102620000155442001554520015500BF012084F883
:102630003D000020D0E7000038B504461849206866
:10264000884218D100BF002000901648006840F072
:102650000400144908600846006800F00400009077
:1026600000BF00BF002205211E20FFF7C5F81E2075
:10267000FFF7AEF813E00C49206888420FD100BF85
:10268000002000900748006840F0400005490860BD
:102690000846006800F04000009000BF00BF38BD51
:1026A000000800404038024000180040014691F800
:1026B0003D00012801D001207047022081F83D0033
:1026C0000868C06840F001000B68D8601A4B0868C1
:1026D00098421BD00868B0F1804F17D0174B08689C
:1026E000984213D0164B086898420FD0154B0868D3
:1026F00098420BD0144B0868984207D0134B0868D7
:10270000984203D0124B086898420CD10868806840
:1027100000F00702062A0CD00868006840F00100AB
:102720000B68186005E00868006840F001000B685D
:1027300018600020C0E700000000014000040040D5
:1027400000080040000C004000040140004001402F
:10275000001800402DE9F04104460D46002700BF57
:1027600094F83C00012802D10220BDE8F08101204C
:1027700084F83C0000BF022084F83D002068866891
:1027800026F0770626F47F46206886602868502861
:1027900033D00CDC202850D004DC00284BD010288B
:1027A00051D149E0302849D040284CD139E0602847
:1027B0002DD0702807D0B0F5805F03D0B0F5005F52
:1027C00041D10DE041E0D5E902136A68206802F0CA
:1027D000C8F92068866846F077062068866034E08D
:1027E000D5E902136A68206802F0BBF920688068A6
:1027F00040F480402168886027E0EA6869682068C2
:1028000002F0A0FA5021206802F0B6F91DE0EA6853
:102810006968206802F0A9FA6021206802F0ACF92A
:1028200013E0EA686968206802F08CFA40212068A9
:1028300002F0A2F909E000BF00BF00BF29682068CC
:1028400002F09AF901E0012700BF00BF012084F8DF
:102850003D0000BF002084F83C0000BF384684E7FC
:10286000704770B504462068C5682068066906F0A0
:102870000200022819D105F00200022815D1401FDC
:1028800021680861012020772068806900F003003A
:1028900018B12046FFF7E4FF05E0204600F0CAF833
:1028A000204600F07EF90020207706F0040004287E
:1028B00019D105F00400042815D1C043216808612E
:1028C000022020772068806900F4407018B120460B
:1028D000FFF7C6FF05E0204600F0ACF8204600F008
:1028E00060F90020207706F00800082819D105F0CB
:1028F0000800082815D1C04321680861042020770A
:102900002068C06900F0030018B12046FFF7A8FF57
:1029100005E0204600F08EF8204600F042F9002045
:10292000207706F01000102819D105F010001028AB
:1029300015D1C04321680861082020772068C0694C
:1029400000F4407018B12046FFF78AFF05E02046EA
:1029500000F070F8204600F024F90020207706F0FF
:10296000010048B105F0010030B16FF001002168AD
:102970000861204600F09CF906F08000802809D10B
:1029800005F08000802805D1C043216808612046F9
:10299000FFF7C1FD06F04000402809D105F04000D6
:1029A000402805D1C04321680861204600F08CF919
:1029B00006F02000202809D105F02000202805D1AC
:1029C000C043216808612046FFF7A6FD70BD0000E6
:1029D00010B586B00446142101A8FDF79DFC1249EC
:1029E000206888421DD100BF002000900F48006879
:1029F00040F002000D4908600846006800F002003F
:102A0000009000BF00BF4FF4804001900220029070
:102A10000020039004900920059001A90448FEF7C6
:102A200037FB06B010BD00000018004030380240EF
:102A30000004024070472DE9F04104460D46164659
:102A4000002700BF94F83C00012802D10220BDE815
:102A5000F081012084F83C0000BF36B1042E1BD069
:102A6000082E31D00C2E5ED145E02946206802F0B8
:102A70008DF82068806940F008002168886120682E
:102A8000806920F0040021688861206880692969D4
:102A900008432168886148E02946206802F0AEF8C2
:102AA0002068806940F4006021688861206880693E
:102AB00020F480602168886120688069296940EA83
:102AC00001202168886130E02946206802F0D4F8AE
:102AD0002068C06940F008002168C8612068C069AA
:102AE00020F004002168C8612068C0692969084392
:102AF0002168C86119E02946206802F0F9F82068C9
:102B0000C06940F400602168C8612068C06920F491
:102B100080602168C8612068C069296940EA012095
:102B20002168C86101E0012700BF00BF00BF00208D
:102B300084F83C0000BF384689E710B504460CB95C
:102B4000012010BD94F83D0028B9002084F83C0015
:102B5000204600F025F8022084F83D00211D206861
:102B600001F07AFF012084F8460000BF84F83E009F
:102B700001213F200155402001554120015500BF52
:102B800000BF012084F84200432001554420015534
:102B90004520015500BF012084F83D000020D0E70A
:102BA0007047704770B504460D4615B994F83E005D
:102BB0000BE0042D02D13F20005D06E0082D02D17C
:102BC0004020005D01E04120005D012801D001208E
:102BD00070BD1DB9022084F83E000EE0042D03D123
:102BE00002213F20015508E0082D03D10221402099
:102BF000015502E0022141200155012229462068A9
:102C000001F09EFF23492068884203D022492068B2
:102C1000884201D1012000E0002028B12068406CEA
:102C200040F40040216848641A49206888421BD05B
:102C30002068B0F1804F17D018492068884213D01F
:102C40001749206888420FD01649206888420BD067
:102C500011492068884207D013492068884203D070
:102C60001249206888420CD12068806800F007066D
:102C7000062E0CD02068006840F001002168086032
:102C800005E02068006840F001002168086000202D
:102C90009EE70000000001400004014000040040E5
:102CA00000080040000C00400040014000180040B7
:102CB00010B5044603492068884201D1FEF7DAFCCA
:102CC00010BD000000200040704700BFFEE7014635
:102CD00008684069C0F38020B0B16FF480600A6872
:102CE000506100200863202081F83D00002081F819
:102CF0003E00086C40F00400086400BF002081F82A
:102D00003C0000BF012070470020FCE72DE9F8439C
:102D100004460D4617469846E66A082E04D0012E52
:102D200002D016F5803F06D12068006840F480701C
:102D30002168086008E0206B122805D1206800682F
:102D400040F48070216808603B4600224FF001117A
:102D50002046CDF8008000F06CF860B12068006873
:102D600000F48070B0F5807F02D14FF400702064D1
:102D70000320BDE8F8832069B0F5804F04D105F049
:102D8000FE002168086112E005F44070F02141EA7C
:102D9000E0102168086143463A460B49204600F09E
:102DA000A7F808B10120E4E7E8B2216808614346CA
:102DB0003A460549891F204600F09AF808B10120DB
:102DC000D7E70020D5E700000800010070B50446F1
:102DD0000D46164625E02046FFF779FF08B1012091
:102DE00070BD681CE8B1FEF75BFA801BA84200D8F2
:102DF000BDB920684069C0F3800090B9002020630D
:102E0000202084F83D00002084F83E00206C40F033
:102E10002000206400BF002084F83C0000BF012097
:102E2000DEE720684069C0F380000028D3D000208E
:102E3000D6E72DE9F04104460D4617461E46DDF85B
:102E4000188038E0701CA8B3FEF72AFAA0EB08003F
:102E5000B04200D876BBC5F3074001280AD12068EC
:102E60004069A9B20840A9B2884201D101200BE013
:102E7000002009E020688069A9B20840A9B2884210
:102E800001D1012000E00020B84214D100202063CD
:102E9000202084F83D00002084F83E00206C40F0A3
:102EA0002000206400BF002084F83C0000BF012007
:102EB000BDE8F081FFE7C5F3074001280AD120688B
:102EC0004069A9B20840A9B2884201D101200BE0B3
:102ED000002009E020688069A9B20840A9B28842B0
:102EE00001D1012000E00020B842ABD00020DFE794
:102EF0002DE9F04104460D4616461F4658E020686D
:102F00004069C0F38020E8B12068006840F4007098
:102F1000216808606FF480602168486100202063A8
:102F2000202084F83D00002084F83E00206C40F012
:102F30000400206400BF002084F83C0000BF012092
:102F4000BDE8F081701C90B3FEF7AAF9C01BB04237
:102F500000D866BBC5F3074001280AD12068406944
:102F6000A9B20840A9B2884201D101200BE000209B
:102F700009E020688069A9B20840A9B2884201D15D
:102F8000012000E0002090B900202063202084F878
:102F90003D00002084F83E00206C40F020002064BA
:102FA00000BF002084F83C0000BF0120C8E7FFE715
:102FB000C5F3074001280AD120684069A9B208403A
:102FC000A9B2884201D101200BE0002009E020686D
:102FD0008069A9B20840A9B2884201D1012000E06D
:102FE000002000288BD00020AAE770B504460D46CB
:102FF000164625E02046FFF76AFE08B1012070BDA5
:10300000681CE8B1FEF74CF9801BA84200D8BDB996
:1030100020684069C0F3C01090B9002020632020D0
:1030200084F83D00002084F83E00206C40F0200031
:10303000206400BF002084F83C0000BF0120DEE7D0
:1030400020684069C0F3C0100028D3D00020D6E724
:103050000DE04FF0FF310648006804F0ADFB044678
:103060002CB104480068844201D101F0D1FAF0E7A4
:10307000E8000020F000002010B5002028E05D49A5
:1030800083000A6E891C31F813101144594A1166E5
:103090001146CB6D8100491C921C32F81110194465
:1030A000921ED16511468B6D8100891C921C32F8ED
:1030B00011101944921E916511464B6D8100C91C77
:1030C000921C32F811101944921E5165411CC8B26D
:1030D0000A28D4DB4748006E0A21B0FBF1F04549CD
:1030E000A1F86A000846C06D0A21B0FBF1F0414921
:1030F000A1F868000846806D0A21B0FBF1F03D4957
:10310000A1F866000846406D0A21B0FBF1F039498C
:10311000A1F8640000200866C8658865486508460F
:10312000B0F86A0040F6B831884203DD0320324926
:10313000C8700CE02F48B0F86A00B0F57A7F03DA67
:10314000FD202D49C87002E000202B49C870294895
:10315000B0F8680040F6B831884203DD0320264904
:1031600088700CE02348B0F86800B0F57A7F03DA85
:10317000FD202149887002E000201F4988701D4809
:10318000B0F8660040F6B831884203DD03201A49E2
:1031900048700CE01748B0F86600B0F57A7F03DAA3
:1031A000FD201549487002E000201349487011487D
:1031B000B0F8640040F6B831884203DD03200E49C0
:1031C00008700CE00B48B0F86400B0F57A7F03DAC1
:1031D000FD200949087002E00020074908700748EF
:1031E000007830B100231A4603490548006804F00E
:1031F000A5F910BD004D0020A8000020D800002037
:10320000AC00002070B5064616484088401E83B2C8
:1032100014480088401E82B20021084600F084F95C
:1032200000224FF400511048FEF734F8012210211B
:103230000D48FEF72FF800240AE0002503E0304691
:1032400000F074FB6D1C07480088A842F7D8641C86
:1032500004484088A042F0D8012251030248FEF7FA
:1032600019F870BDF04C002000040240F8B5044687
:103270000D4616461F464EF65B703B4632462946C3
:103280000090204600F010F8F8BD000070B504462C
:103290000D462946204600F03DF90248008800F01E
:1032A00045FB70BDA00000202DE9F05F04460D46EF
:1032B00016461F46301B401C1FFA80FA781B401C24
:1032C0001FFA80FB3B4632462946204600F02CF987
:1032D0004FF000080FE04FF0000906E00A9800F0F8
:1032E00025FB09F101001FFA80F9D145F6DB08F151
:1032F00001001FFA80F8D845EDDB07484088401EE2
:1033000083B205480088401E82B20021084600F0C2
:103310000BF9BDE8F09F0000F04C002010B500F064
:103320002BFC10BD10B500F013FDFFF7F7FF00F008
:10333000DBF8F72000F086FAA92000F067FA5120A8
:1033400000F064FA2C2000F061FA822000F05EFAAE
:10335000C02000F077FA112000F058FA092000F0A0
:1033600055FAC12000F06EFA412000F04FFAC52056
:1033700000F068FA002000F049FA0A2000F046FA4E
:10338000802000F043FAB12000F05CFAB02000F099
:103390003DFA112000F03AFAB42000F053FA02206E
:1033A00000F034FAB62000F04DFA022000F02EFAB8
:1033B000422000F02BFAB72000F044FAC62000F0BB
:1033C00025FABE2000F03EFA002000F01FFA04208B
:1033D00000F01CFAE92000F035FA002000F016FA9F
:1033E000362000F02FFA682000F010FA3A2000F0A2
:1033F00029FA662000F00AFAE02000F023FA002003
:1034000000F004FA072000F001FA102000F0FEF9A5
:10341000092000F0FBF9172000F0F8F90B2000F06C
:10342000F5F9412000F0F2F9892000F0EFF94B2086
:1034300000F0ECF90A2000F0E9F90C2000F0E6F9C0
:103440000E2000F0E3F9182000F0E0F91B2000F056
:10345000DDF90F2000F0DAF9E12000F0F3F90020A7
:1034600000F0D4F9172000F0D1F91A2000F0CEF9BD
:10347000042000F0CBF90E2000F0C8F9062000F07F
:10348000C5F92F2000F0C2F9452000F0BFF9432014
:1034900000F0BCF9022000F0B9F90A2000F0B6F9FA
:1034A000092000F0B3F9322000F0B0F9362000F026
:1034B000ADF90F2000F0AAF9112000F0C3F978202F
:1034C00002F00EFA292000F0BDF9012000F0E8F921
:1034D0004FF47A700349096848634FF6FF70FFF7AD
:1034E00091FE10BD8803002010B500224FF400416A
:1034F0000748FDF7CFFE642002F0F2F90122D10364
:103500000348FDF7C7FE322002F0EAF910BD0000C3
:103510000000024070B504460D462B46224629465F
:10352000204600F001F870BD2DE9F04104460D463B
:1035300016461F461149887A00F084F9201200F0DF
:1035400065F9E0B200F062F9301200F05FF9F0B214
:1035500000F05CF90949087B00F074F9281200F0CA
:1035600055F9E8B200F052F9381200F04FF9F8B20C
:1035700000F04CF900F082F9BDE8F081F04C002039
:103580002DE9FF4F83B081468A469346DDE91064FA
:10359000404800880290A6F12000C6B204EBD47027
:1035A00009EB6000401E82B20AEB0400401E83B2A9
:1035B000514648460194FFF7B7FF129850BB0025CB
:1035C00025E00C2C07D106EB4600334901EB8000C7
:1035D00010F8058004E0314800EB061010F8058073
:1035E00000270DE008F0010018B1584600F09EF9E0
:1035F00002E0069800F09AF94FEA6808781CC7B212
:1036000004EBD471B7EB610FECDB681CC5B2A542CB
:10361000D7DB2DE0002529E00C2C07D106EB460076
:103620001D4901EB800010F8058004E01B4800EB09
:10363000061010F80580002711E01648A0F800B029
:1036400008F0010038B10AEB050291B209EB07025C
:1036500090B2FFF71BFE4FEA6808781CC7B204EB74
:10366000D471B7EB610FE8DB681CC5B2A542D3DBB0
:103670000849029808800A484088401E83B20848DA
:103680000088401E82B200210846FFF74DFF07B0B8
:10369000BDE8F08FA0000020A07E00081483000881
:1036A000F04C00202DE9FF4F83B0074691461E469F
:1036B000109C4FF0000A002541E0701B401EC1B273
:1036C0000A2002F031F9B9FBF0F00A21B0FBF1F267
:1036D00001FB1208BAF1000F1AD1701EA84217DDC3
:1036E000B8F1000F12D100202021A346CDE900142B
:1036F000029004EBDB71491001FB057188B248F2BE
:10370000304300220499FFF73BFF16E04FF0010A17
:10371000002108F13000C0B2A346CDE9014100907C
:1037200004EBDB71491001FB057188B248F23043AC
:1037300000220499FFF724FF00BF681CC5B2B54200
:10374000BBDB07B0BDE8F08F2DE9FE4306460F4610
:1037500015461C46DDF828801CE012480088401EF3
:10376000B04204DB0F484088401EB84201DABDE891
:10377000FE8320784EF65B73002239468DE82101E6
:103780003046FFF7FDFE284605EBD07106EB6101E0
:103790008EB2641C20787E2802DC20782028DCDAB7
:1037A00000BFE4E7F04C00202DE9FE4F06460F462F
:1037B00015461C46DDE90D9ADDF830801BE0124805
:1037C0000088401EB04204DB0F484088401EB842CB
:1037D00001DABDE8FE8F20784B46524639468DE827
:1037E00021013046FFF7CCFE284605EBD07106EBF1
:1037F00061018EB2641C20787E2802DC20782028AB
:10380000DDDA00BFE5E70000F04C002001B5002242
:103810004FF400510948FDF73DFD012210210748F2
:10382000FDF738FD01226946054801F087F80122BD
:1038300051030248FDF72EFD08BD000000040240C0
:103840003002002001B500224FF400510948FDF775
:1038500021FD002210210748FDF71CFD01226946C9
:10386000054801F06BF8012251030248FDF712FDF3
:1038700008BD0000000402403002002010B50249DB
:10388000087AFFF7DFFF10BDF04C002070B5054649
:103890000C462846FFF7D6FFE0B2FFF7B7FF70BD32
:1038A00010B504462A20204948812B2088812C20ED
:1038B000088134B1012C10D0022C1AD0032C30D145
:1038C00023E04FF4A070184908804FF4F07048804E
:1038D00008213620FFF7DAFF24E04FF4F070124998
:1038E00008804FF4A070488068213620FFF7CEFF93
:1038F00018E04FF4A0700C4908804FF4F070488035
:10390000C8213620FFF7C2FF0CE04FF4F0700649E3
:1039100008804FF4A0704880A8213620FFF7B6FF3A
:1039200000E000BF00BF10BDF04C002010B5044601
:10393000F82101EA2420FFF769FFFC2101EAE400F5
:10394000FFF764FFE106080EFFF760FF10BD0000FF
:1039500008B5002000906A4601210748006803F07E
:1039600009FB009838B14FF0805004490860BFF35C
:103970004F8FBFF36F8F08BDD000002004ED00E033
:1039800010B500216B2000F02DF800216C2000F014
:1039900029F80921192000F025F806211A2000F045
:1039A00021F818211B2000F01DF818211C2000F020
:1039B00019F80021372000F015F8FF21382000F019
:1039C00011F8002208210A2003F0E2FB03490860F5
:1039D00003F05AFA02490860002010BDCC00002014
:1039E000D00000207CB504460D468DF804408DF8CB
:1039F00005504FF4FA70022301AAD021009002482A
:103A00000068FDF73BFD7CBDD40000201FB5002001
:103A100000900190029003902648274908604FF4D7
:103A200080304860002124488160012101610176D5
:103A3000002180F82010C162204981620021C1600C
:103A40000421C161012180F830104161FCF79EFF23
:103A500008B1FCF78CFE00200090012001900720A7
:103A6000029069461448FCF7BFFE08B1FCF77FFEE0
:103A7000012000900220019069460F48FCF7B4FE37
:103A800008B1FCF774FE0220009003200190694603
:103A90000948FCF7A9FE08B1FCF769FE0320009075
:103AA0000420019069460448FCF79EFE08B1FCF72B
:103AB0005EFE1FBD00200140340100200100000F08
:103AC00008B500BF002000900E48006840F4800058
:103AD0000C4908600846006800F48000009000BFB0
:103AE00000BF002205213820FDF786FE3820FDF7B3
:103AF0006FFE002205213B20FDF77EFE3B20FDF7F7
:103B000067FE08BD303802401CB500211048FFF7A1
:103B100049F8012003F021FB0E490860FFF702FC81
:103B2000FCF76EFD00F036FEFFF72AFF0A4A00217F
:103B30000A4801F04BFF0A4908600A48182100238F
:103B40008022CDE9001008A10A4803F087FE1CBDC1
:103B500088030020000000205C7E00085549000812
:103B60000C000020080000204D656E755461736BD9
:103B700000000000F958000800B587B0142102A821
:103B8000FCF7CAFB00BF002001905D48006840F0D0
:103B900004005B4908600846006800F004000190DA
:103BA00000BF00BF00BF002001900846006840F041
:103BB000800008600846006800F08000019000BFA7
:103BC00000BF00BF002001900846006840F00100DF
:103BD00008600846006800F00100019000BF00BFC7
:103BE00000BF002001900846006840F01000086007
:103BF0000846006800F01000019000BF00BF00BF41
:103C0000002001900846006840F002000860084665
:103C1000006800F00200019000BF00BF00BF00205C
:103C200001900846006840F00800086008460068F7
:103C300000F00800019000BF00BF002242F2100116
:103C40003048FDF727FB00224FF400412E48FDF7D6
:103C500021FB102002904FF4881003900020049064
:103C600002A92948FDF714FA602002900020039071
:103C70000120049002A92448FDF70AFA4FF40040FD
:103C800002904FF4881003900020049002A91F486E
:103C9000FDF7FEF942F2100002900120039000208F
:103CA00004900220059002A91648FDF7F1F94CF2A4
:103CB00032000290002003900120049002A91448D1
:103CC000FDF7E6F94FF40040029001200390002038
:103CD0000490059002A90C48FDF7DAF900220521AD
:103CE0000A20FDF789FD0A20FDF772FD002205215B
:103CF0002820FDF781FD2820FDF76AFD07B000BDF3
:103D0000303802400004024000000240001002402F
:103D1000000C024010B50B480B4908600B48486086
:103D2000002109488160C1604FF480410161002198
:103D300041618161C1610162FDF7B8FA08B1FCF728
:103D400016FD10BD00580040DC010020A0860100D7
:103D500010B50E480E4908604FF48270486000218B
:103D60000B488160C160016141614FF40071816164
:103D70000021C1610162416281620A21C162FEF7D4
:103D8000DDF908B1FCF7F3FC10BD00000030014084
:103D90003002002010B50E480E4908604FF48270C2
:103DA000486000210B488160C160016141614FF4AE
:103DB000007181610021C1610162416281620A2159
:103DC000C162FEF7BBF908B1FCF7D1FC10BD0000E1
:103DD000003C00408802002000B58BB00020079016
:103DE000089009900A901C216846FCF795FA1B4838
:103DF0001B4908605320486000211948816040F247
:103E0000E731C160002101618161FEF7E1FB08B18A
:103E1000FCF7ADFC4FF48050079007A91048FEF75F
:103E200099FC08B1FCF7A3FC0D48FEF786FE08B12B
:103E3000FCF79DFC6020009000200190029004900F
:103E4000002269460648FEF7F6FD08B1FCF78FFC34
:103E50000348FEF7BDFD0BB000BD00000018004098
:103E60008803002000B587B00020039004900590DF
:103E7000069001900290144814490860532048604D
:103E800000211248816040F2E731C16000210161E8
:103E90008161FEF79DFB08B1FCF769FC4FF480508F
:103EA000039003A90948FEF755FC08B1FCF75FFC35
:103EB00000200190029001A90448FEF72FFB08B1F1
:103EC000FCF755FC07B000BD00080040400300208F
:103ED0003EB505460C4655A103C9CDE90101062DA5
:103EE00071D2DFE805F09F03162E4B714FF4A070DE
:103EF0004FF4F0734F4A002100900846FCF740FC55
:103F0000012001AB1422002100900846FFF71CFCA1
:103F100089E04FF4A0704FF4F073464A00210090FE
:103F20000846FCF72DFC012001AB14220021009073
:103F30000846FFF709FC6E20A0804FF4AF70208088
:103F400071E04FF4A0704FF4F0733A4A00210090F2
:103F50000846FCF715FC012001AB1422002100905B
:103F60000846FFF7F1FB6E20A0804FF4B970208067
:103F700040F245106080C820E08054E04FF4A0700B
:103F80004FF4F0732B4A002100900846FCF7F8FB31
:103F90000A203223284AE6210090AA20FCF7F0FBF1
:103FA000012001AB1422002100900846FFF7CCFB52
:103FB0006E20A0804FF4B970208040F245106080E0
:103FC000EB20E0802FE02DE04FF4A0704FF4F07371
:103FD000184A002100900846FCF7D2FB0A20322341
:103FE000164AE6210090AA20FCF7CAFB0A203223D9
:103FF000134AE62100904FF4A570FCF7C1FB0120A5
:1040000001AB1422002100900846FFF79DFB6E20B3
:10401000A0804FF4B970208040F245106080C82025
:10402000E08000E000BF00BF3EBD0000504F494EA1
:10403000543A000032A20008025A0508325205081C
:104040001A56050800BFFEE700BFFEE72DE9F84F4E
:1040500081460E461446DDE90A780C9DB9F1060F3B
:1040600078D2DFE809F077031078FBFA6422BA1AF5
:1040700078F1000101D3002101E0D7F16401C8B259
:10408000F9490870BAE26421791A78F1000001D385
:10409000002001E0D7F1640000F0FF0AB6F9041037
:1040A000B4F90400A0F10A00814218DBB6F9060059
:1040B000AF2814D1B6F90410B4F904000A308142D3
:1040C0000DDCA87858B9A18814318AB2A18888B2C9
:1040D000CD23AF21FFF7CAF83220A87009E0A878F5
:1040E00038B90F200346E14AAF2100906E20FCF75B
:1040F00047FBB6F90010B4F900000A38814218DB1A
:10410000B6F90200AF2814D1B6F90010B4F90000D6
:104110000A3081420DDC287858B9218814318AB2DE
:10412000218888B2CD23AF21FFF7A0F83220287074
:1041300009E0287838B90F200346CD4AAF21009016
:104140004800FCF71DFB28785044A9780844C6496C
:10415000487053E251E26421791A78F1000001D3EA
:10416000002001E0D7F1640000F0FF0AB6F9041066
:10417000B4F90400A0F10A00814218DBB6F9060088
:10418000AF2814D1B6F90410B4F904000A30814202
:104190000DDCA87858B9A18814318AB2A18888B2F8
:1041A000CD23AF21FFF762F81920A8700AE0A878A4
:1041B00040B90F200090A18888B20F23AB4AAF21ED
:1041C000FCF7DEFAB6F90410B4F906000A388142A9
:1041D00018DBB6F90600C82814D1B6F90410B4F9F2
:1041E00006000A3081420DDCE87858B9A188143104
:1041F0008AB2E18888B2CD23C821FFF737F81920A9
:10420000E8700AE0E87840B90F200090E18888B2B1
:104210000F23964AC821FCF7B3FAB6F90010B4F997
:1042200000000A3881421ADBB6F90200AF2816D125
:10423000B6F90010B4F900000A3081420FDC28788A
:1042400068B9218814318AB2218888B2CD23AF2180
:10425000FFF70CF8192028700CE00BE140E02878FB
:1042600040B90F200090218888B20F23804AAF21E7
:10427000FCF786FAB6F90010B4F902000A38814258
:1042800018DBB6F90200C82814D1B6F90010B4F949
:1042900002000A3081420DDC687858B96188143117
:1042A0008AB2618888B2CD23C821FEF7DFFF1920CA
:1042B00068700AE0687840B90F200090618888B281
:1042C0000F236B4AC821FCF75BFA28785044A97881
:1042D000084469780844E9780844634988708DE1A6
:1042E0006421791A78F1000001D3002001E0D7F1B0
:1042F000640000F0FF0AB6F90410B4F90400A0F15C
:104300000A00814218DBB6F90600AF2814D1B6F9CD
:104310000410B4F904000A3081420DDCA87858B9C1
:10432000A18814318AB2A18888B2CD23AF21FEF7CB
:104330009DFF1920A8700AE0A87840B90F200090CE
:10434000A18888B20F23494AAF21FCF719FAB6F9C0
:104350000410B4F906000A38814218DBB6F90600E9
:10436000C82814D1B6F90410B4F906000A30814205
:104370000DDCE87858B9A18814318AB2E18888B296
:10438000CD23C821FEF772FF1920E8700AE0E87813
:1043900040B90F200090E18888B20F23334AC8212A
:1043A000FCF7EEF9B6F90010B4F900000A388142C2
:1043B00018DBB6F90200AF2814D1B6F90010B4F931
:1043C00000000A3081420DDC287858B92188143168
:1043D0008AB2218888B2CD23AF21FEF747FF19208A
:1043E00028700AE0287840B90F200090218888B210
:1043F0000F231F4AAF21FCF7C3F9B6F90010B4F937
:1044000002000A38814218DBB6F90200C82814D12C
:10441000B6F90010B4F902000A3081420DDC687868
:1044200058B9618814318AB2618888B2CD23C82115
:10443000FEF71CFF192068700AE0687840B90F2069
:104440000090618888B20F23094AC821FCF798F9C7
:1044500028785044A978084469780844E9780844E1
:104460000149C870CAE00000DB000020AE9E0008D1
:1044700070A000086421791A78F1000001D30020AF
:1044800001E0D7F1640000F0FF0AB6F90410B4F9B6
:104490000400A0F10A00814218DBB6F90600AF283B
:1044A00014D1B6F90410B4F904000A3081420DDCCD
:1044B000A87858B9A18814318AB2A18888B2CD23CE
:1044C000AF21FEF7D3FE1920A8700AE0A87840B902
:1044D0000F200090A18888B20F234A4AAF21FCF731
:1044E0004FF9B6F90410B4F906000A38814218DB16
:1044F000B6F90600C82814D1B6F90410B4F90600BC
:104500000A3081420DDCE87858B9A18814318AB2AA
:10451000E18888B2CD23C821FEF7A8FE1920E870F3
:104520000AE0E87840B90F200090E18888B20F23B4
:10453000344AC821FCF724F9B6F90010B4F9000098
:104540000A38814218DBB6F90200AF2814D1B6F957
:104550000010B4F900000A3081420DDC287858B907
:10456000218814318AB2218888B2CD23AF21FEF789
:104570007DFE192028700AE0287840B90F200090AD
:10458000218888B20F23204AAF21FCF7F9F8B6F949
:104590000010B4F902000A38814218DBB6F90200B3
:1045A000C82814D1B6F90010B4F902000A308142CB
:1045B0000DDC687858B9618814318AB2618888B294
:1045C000CD23C821FEF752FE192068700AE06878F2
:1045D00040B90F200090618888B20F230A4AC82191
:1045E000FCF7CEF828785044A97808446978084444
:1045F000E97808440549087100E000BF00BFBDE844
:10460000F88F0000AE9E000870A00008DB000020BC
:104610000EB5002202A92348006803F019F89DF89E
:104620000800032802D1ADF800000BE09DF9080056
:10463000C01C20B96FF00200ADF8000002E00020BD
:10464000ADF800009DF80900032802D1ADF8020082
:1046500002E00020ADF802009DF80A00032802D114
:10466000ADF804000BE09DF90A00C01C20B96FF002
:104670000200ADF8040002E00020ADF804009DF84F
:104680000B00032802D1ADF8060002E00020ADF8CF
:10469000060000231A4669460348006802F062FEDD
:1046A0000EBD0000F0000020EC00002010B510212D
:1046B0000348FCF7E7FD08B9002010BD0120FCE726
:1046C0000000024010B520210348FCF7DBFD08B9CB
:1046D000002010BD0120FCE70000024030B587B08B
:1046E0000020019002F03AF8CDE90401022001F027
:1046F000F7F8FFF7DBFF08B907B030BD2049DDE967
:1047000004200B684968D41A60EB010322464FF479
:104710007A700021FBF7B6FD1A490860FFF7D2FF57
:1047200028B119480068401C1749086009E016487C
:104730000068401E14490860124800684042114950
:1047400008600F4ADDE90410116050600E480068EF
:1047500002900C4800680390002301AA02A90B48AC
:10476000006802F0EBFE019838B14FF08050084924
:104770000860BFF34F8FBFF36F8F00BFBCE700002F
:10478000C0000020B4000020B0000020B8000020CD
:1047900004ED00E008B50020044B054A0821009014
:1047A0000A2002F022FD0349086008BDC04D002028
:1047B000704D0020B800002010B50248FDF710FC35
:1047C00010BD00003002002070B50546AC6B002023
:1047D000E087E0862046FDF701FC70BD7CB504460D
:1047E0000E4615463346012202212046009500F070
:1047F00039F828B1606D40F02000606503207CBD71
:10480000164800681821B0FBF1F01549B0FBF1F033
:104810004FF47A71484301906068B0F5827F0DD102
:104820003346002280212046009500F01BF898B105
:10483000606D40F0200060650320E0E700BF019854
:1048400000B908E00198401E019020688068C0F31C
:10485000C0100028F3D100BF0020D0E71C000020CA
:1048600040420F002DE9F84F04460D4690461E4683
:10487000DDF82890FCF714FDA0EB0900371AFCF7CF
:104880000FFD82462C480068C0F3CB30784300907F
:1048900045E0701C002842D0FCF702FDA0EB0A00A6
:1048A000B84200D2A7BB2068406820F0E000216831
:1048B00048606068B0F5827F0DD1A068B0F5004F08
:1048C00003D0A068B0F5806F05D12068006820F0A3
:1048D000400021680860A06AB0F5005F0DD100BFFC
:1048E0002068006820F40050216808602068006893
:1048F00040F400502168086000BF012084F8510096
:1049000000BF002084F8500000BF0320BDE8F88FEE
:10491000FFE7009800B900270098401E009020682B
:1049200080682840A84201D1012000E000204045D5
:10493000AFD10020EAE700001C00002070B504465B
:104940000D4616464FF0FF33324629462046FDF706
:1049500003FD70BD00BFFEE710B54FF0E020006919
:1049600003F00CF8012801D002F0CAFB10BD0000D2
:1049700000B593B0302107A8FBF7CEFC142102A8A4
:10498000FBF7CAFC00BF002001902448006840F0FB
:104990008050224908600846006800F0805001906D
:1049A00000BF00BF00BF002001901D48006840F418
:1049B00080401B4908600846006800F48040019070
:1049C00000BF00BF012007900004089002200D9056
:1049D00041050E9119210F914FF4A87110910221F8
:1049E00011910421129107A8FDF7AAF808B1FBF76D
:1049F000BEFE0F20029002200390002004904FF48E
:104A0000A05005904FF480500690052102A8FCF7B5
:104A100045FF08B1FBF7ABFE13B000BD40380240C4
:104A2000007000400348006840F4700001490860CD
:104A30007047000088ED00E010B50248FDF711FF57
:104A400010BD00004003002010B50248FDF709FF2B
:104A500010BD0000D003002010B502682D4B984215
:104A60000ED0B0F1804F0BD02B4B984208D02B4B7F
:104A7000984205D02A4B984202D02A4B984203D143
:104A800022F070024B681A43224B984220D0B0F1BA
:104A9000804F1DD0204B98421AD0204B984217D0FF
:104AA0001F4B984214D01F4B984211D01E4B984276
:104AB0000ED01E4B98420BD01D4B984208D01D4B78
:104AC000984205D01C4B984202D01C4B984203D10F
:104AD00022F44072CB681A4322F080034C6943EA07
:104AE000040202608B68C3620B688362094B9842C0
:104AF00002D00C4B984201D10B690363012343613F
:104B0000036903F001031BB1036923F0010303618F
:104B100010BD0000000001400004004000080040FB
:104B2000000C0040000401400040014000440140EE
:104B30000048014000180040001C004000200040D8
:104B400030B501F01F05012404FA05F3046A9C4303
:104B50000462046A01F01F0502FA05F52C430462A1
:104B600030BD30B50C46816821F47F4142EA03250F
:104B700025432943816030BD0A46816821F07001D8
:104B800042F00703194381607047000030B5026AA4
:104B9000056A25F0010505624368846924F0700404
:104BA00024F003040D682C4322F002028D682A438E
:104BB000104DA84200D103E00F4DA84206D100BF1E
:104BC00022F00802CD682A4322F00402094DA842CF
:104BD00002D0094DA84207D123F4807323F4007357
:104BE0004D692B438D692B43436084614D68456358
:104BF000026230BD000001400004014030B5026A8D
:104C0000056A25F0100505624368846924F4E044D0
:104C100024F440740D6844EA052422F020028D68D3
:104C200042EA0512124DA84200D103E0114DA842FC
:104C300007D100BF22F08002CD6842EA051222F0BF
:104C400040020B4DA84202D00A4DA84209D123F4DC
:104C5000806323F400634D6943EA85038D6943EA69
:104C60008503436084614D688563026230BD000046
:104C7000000001400004014030B5026A056A25F4D5
:104C8000807505624368C46924F0700424F003044D
:104C90000D682C4322F400728D6842EA0522124D01
:104CA000A84200D103E0114DA84207D100BF22F471
:104CB0000062CD6842EA052222F480620A4DA842D1
:104CC00002D00A4DA84209D123F4805323F40053A3
:104CD0004D6943EA05138D6943EA05134360C461D6
:104CE0004D68C563026230BD000001400004014010
:104CF00030B5036A056A25F4805505624468C269C7
:104D000022F4E04222F440720D6842EA052223F4C4
:104D100000538D6843EA0533084DA84202D0084D80
:104D2000A84204D124F480444D6944EA85144460C7
:104D3000C2614D680564036230BD0000000001409F
:104D40000004014030B50B461446026A056A25F09E
:104D500001050562816921F0F00141EA041122F0A8
:104D60000A021A438161026230BD30B50B46144617
:104D7000026A056A25F010050562816921F4704117
:104D800041EA043122F0A00242EA03128161026288
:104D900030BD00BFFEE7000002480068C0F30220FB
:104DA000704700000CED00E010B5002804DB0A0796
:104DB000130E054A135406E00A07140E034A00F0C6
:104DC0000F031B1FD45410BD00E400E018ED00E0F9
:104DD000EFF30580704702E008C8121F08C1002ADF
:104DE000FAD170477047002001E001C1121F002A6C
:104DF000FBD1704708B54FF4A0704FF4F073034A2D
:104E0000002100900846FBF7BBFC08BD32A2000859
:104E10002DE9FF4F8BB006460C4615460021089140
:104E2000099184E11E9900220868314602F010FCC5
:104E300001F058FC07468846DDE91C2CBB1A68EBDC
:104E40000C02DDE9080118184A41CDE90802CDE954
:104E50001C78B9480078062836D2DFE800F0350320
:104E60000D17212B14200090B44802780323002151
:104E70003C20FEF717FC28E014200090AF48427851
:104E8000032300213C20FEF70DFC1EE014200090BF
:104E9000AA488278032300213C20FEF703FC14E09B
:104EA00014200090A548C278032300213C20FEF77F
:104EB000F9FB0AE014200090A048027903230021A6
:104EC0003C20FEF7EFFB00E000BF00BFB4F900009C
:104ED000F52821DBB4F90000B0F5857F1CDAB4F9C0
:104EE0000400B0F58E7F17DDB4F90400B0F5997FAA
:104EF00012DA93A207CA04AB07C340F2CF104FF6F1
:104F0000FF71012204ABCDE900210290142232216D
:104F1000BE20FEF749FC0BE119980290DDE908017B
:104F2000CDE900012146189A0E98FFF78FF80E98E8
:104F3000042823D1B4F90000AF2807DBB4F900003E
:104F4000D72803DCB4F90200C8280BD0B4F9040058
:104F5000AF283CDBB4F90400D72838DCB4F90600EC
:104F6000C82834D1142003230022114600903C208D
:104F7000FEF798FB00207149C870D9E00E9805280B
:104F800025D1B4F90000AF2807DBB4F90000D72819
:104F900003DCB4F90200C8280DD0B4F90400B0F560
:104FA000A77F14DDB4F90400B0F5BC7F0FDAB4F9C3
:104FB0000600C8280BD114200323002211460090BC
:104FC0003C20FEF76FFB00205C490871B0E02088B0
:104FD000318808441FFA80F94FF0000BA088B1888F
:104FE00008441FFA80FA002007907088032802D135
:104FF0004FF0AF0B01E04FF0C80BF088032802D14F
:10500000AF20079001E0C8200790B9F5C37F02DB0D
:105010004FF4C37906E0B9F1460F02DC4FF04609C0
:1050200000E000BFBAF5C37F02DB4FF4C37A06E0AD
:10503000BAF1460F02DC4FF0460A00E000BFBBF1B8
:10504000AF0F02DC4FF0AF0B00E000BF0798AF28B6
:1050500002DCAF20079001E0079807900FFA89F073
:1050600020800FFA8BF060800FFA8AF0A0800798FA
:1050700000B2E080B5F90000B4F90010884205D113
:10508000B5F90200B4F90210884215D0B5F802C093
:105090000CF11E0C1FFA8CF3B5F800C00CF1140CC7
:1050A0001FFA8CF2B5F802C01FFA8CF1B5F800C0F7
:1050B0001FFA8CF0FEF7DAF8B5F90400B4F9041021
:1050C000884205D1B5F90600B4F90610884215D01A
:1050D000B5F806C00CF11E0C1FFA8CF3B5F804C02D
:1050E0000CF1140C1FFA8CF2B5F806C01FFA8CF103
:1050F000B5F804C01FFA8CF0FEF7B8F81E20142390
:10510000124A594600904846FBF73AFB1E201423EA
:105110000F4A009050460799FBF732FB2088288001
:1051200060886880A088A880E088E88000BF79E671
:1051300000BF0FB0BDE8F08FD9000020DB000020D9
:105140004C204520562045204C203100FE99000877
:105150004E9500082DE9F04192B080460020119054
:105160003848006870B93848006858B900220821EA
:105170000A2002F00DF833490860142001F0FEFF08
:1051800031490860FBF7F6FA304908602E4801689B
:105190002E48006801F0CEFF01202D49087011A8AB
:1051A000182100238022CDE900102AA12C4802F00A
:1051B00055FB00200F9010900FA92A480078FEF7A9
:1051C00087FE00200D900E900B900C904620ADF8BD
:1051D00034004FF4C370ADF838004620ADF82C0011
:1051E0004FF4C370ADF83000002009900A90089089
:1051F0000024254600263746124802A9F0C1069031
:1052000008A80FA9CDE90010164803780BAA0DA92C
:1052100009A8FFF7FDFD0020182103468022CDE9F3
:10522000001011A1134802F019FB00200849087072
:10523000119801F07BFC002001F078FC12B0BDE871
:10524000F0810000EC000020E8000020F0000020C9
:10525000D8000020496E7075745461736B000000B3
:1052600051300008D90000204D656E755461736B94
:1052700000000000F958000810B50446102110483D
:10528000FCF700F840B2207020210D48FBF7FAFF30
:1052900040B260704FF400410948FBF7F3FF40B2A1
:1052A000A0704FF480410648FBF7ECFF40B2E0707D
:1052B00002210348FBF7E6FF40B2207110BD000059
:1052C000000C024088B04FF4A0704FF4F073FE4A17
:1052D000002100900846FBF753FA40F2CF104FF63A
:1052E000FF710122F94BCDE90021029014220A211D
:1052F0008220FEF759FAF6A207CA05AB07C340F2AF
:10530000CF104FF6FF71012205ABCDE900210290CD
:1053100014223221BE20FEF747FAF0A105A8FBF7C0
:1053200006F840F2CF104FF6FF71012205ABCDE930
:105330000021029014225A21BE20FEF735FAEAA17C
:1053400005A8FAF7F4FF40F2CF104FF6FF710122E3
:1053500005ABCDE90021029014228221BE20FEF788
:1053600023FAE4A105A8FAF7E2FF40F2CF104FF6C6
:10537000FF71012205ABCDE9002102901422AA2180
:10538000BE20FEF711FADEA105A8FAF7D0FF40F221
:10539000CF104FF6FF71012205ABCDE9002102903D
:1053A0001422D221BE20FEF7FFF901240525C4E115
:1053B00003A8FFF761FF9DF8100000285DD1062CBF
:1053C00059D2DFE804F05803142536470120CF49AD
:1053D00008700020182103468022CDE90010CCA1DE
:1053E000CE4802F03BFA002001F0A0FB44E002208E
:1053F000C64908700020182103468022CDE900101C
:10540000C3A1C64802F02AFA002001F08FFB33E066
:105410000320BE4908700020182103468022CDE9F0
:105420000010BBA1BD4802F019FA002001F07EFB7C
:1054300022E00420B549087000201821034680228C
:10544000CDE90010B2A1B54802F008FA002001F041
:105450006DFB11E00520AD490870002018210346BE
:105460008022CDE90010AAA1AC4802F0F7F9002093
:1054700001F05CFB00E000BF00BF9DF80C0048B9E4
:1054800002E003A8FFF7F8FE9DF80C000028F8D012
:10549000601E44B29DF80E0048B902E003A8FFF771
:1054A000EBFE9DF80E000028F8D0601C44B2AC4220
:1054B00001DD6CB204E0012C01DA012400E000BF40
:1054C000062C7DD2DFE804F07C0335679BCD40F2EB
:1054D000CF1000210122924BCDE90021029014222D
:1054E00032218C20FEF760F94EF65B706E23B422F9
:1054F0005A2100908C20FDF7D7FE4EF65B70962364
:10550000B422822100908C20FDF7CEFE4EF65B7017
:10551000BE23B422AA2100908C20FDF7C5FE4EF6D2
:105520005B70E623B422D22100908C20FDF7BCFEF4
:10553000F9E040F2CF1000210122794BCDE90021A2
:10554000029014225A218C20FEF72EF94EF65B7041
:105550004623B422322100908C20FDF7A5FE4EF6A2
:105560005B709623B422822100908C20FDF79CFE74
:105570004EF65B70BE23B422AA2100908C20FDF76A
:1055800093FE4EF65B70E623B422D22100908C206D
:10559000FDF78AFEC7E040F2CF1000210122604BE8
:1055A000CDE900210290142282218C20FEF7FCF824
:1055B0004EF65B704623B422322100908C2000E02E
:1055C000B0E0FDF771FE4EF65B706E23B4225A21F7
:1055D00000908C20FDF768FE4EF65B70BE23B4226F
:1055E000AA2100908C20FDF75FFE4EF65B70E6234B
:1055F000B422D22100908C20FDF756FE93E040F2B9
:10560000CF1000210122464BCDE900210290142247
:10561000AA218C20FEF7C8F84EF65B704623B42210
:10562000322100908C20FDF73FFE4EF65B706E231A
:10563000B4225A2100908C20FDF736FE4EF65B70A6
:105640009623B422822100908C20FDF72DFE4EF689
:105650005B70E623B422D22100908C20FDF724FE5B
:1056600061E040F2CF10002101222D4BCDE9002155
:1056700002901422D2218C20FEF796F84EF65B7031
:105680004623B422322100908C20FDF70DFE4EF609
:105690005B706E23B4225A2100908C20FDF704FE2B
:1056A0004EF65B709623B422822100908C20FDF789
:1056B000FBFD4EF65B70BE23B422AA2100908C2025
:1056C000FDF7F2FD2FE0000032A2000817010020D4
:1056D0004C204520562045204C2031004C204520B0
:1056E000562045204C2032004C2045205620452095
:1056F0004C2033004C204520562045204C203400BF
:105700004C204520562045204C203500D900002053
:1057100047616D655461736B0000000055510008CE
:105720002E01002000BF00BF1420032322460021C9
:1057300000900846FDF7B6FF00BF39E6FBF7A6FF6D
:10574000FFF716F9FEF718FAFEF7BAF9FEF700FBB5
:10575000FEF788FBFEF75AF9FEF7DCFAFEF71AFBB4
:10576000FEF73AFB00F0ECF8FEF7CEF900F0FEF899
:1057700000BFFEE786B0064640F2CF104FF6FF713D
:105780000122534BCDE900210290142232219B20AB
:10579000FEF70AF840F2CF10002101224D4BCDE96F
:1057A0000021029014226421BE20FDF7FDFF40F28B
:1057B000CF1000210122484BCDE900210290142294
:1057C0009621BE20FDF7F0FF40F2CF10002101220C
:1057D000424BCDE900210290142264218C20FDF778
:1057E000E3FF0025012401E0681CC5B205EB85003C
:1057F00016F820002E28F7D1012468E004A8FFF74E
:105800003BFD9DF8140038B9012C01D1FFF75AFD7A
:10581000022C01D1FFF7EEFA9DF8100048B902E022
:1058200004A8FFF729FD9DF810000028F8D0601E9D
:1058300044B29DF8120048B902E004A8FFF71CFD2D
:105840009DF812000028F8D0601C44B2AC4201DD83
:105850006CB204E0012C01DA012400E000BF012C4D
:1058600016D14EF65B70AA23B422962100908C20AC
:10587000FDF71AFD40F2CF1000210122174BCDE9B0
:1058800000210290142264218C20FDF78DFF15E089
:105890004EF65B707823B422642100908C20FDF7D3
:1058A00003FD40F2CF10002101220C4BCDE9002175
:1058B0000290142296218C20FDF776FF14200323FA
:1058C0002246002100900846FDF7ECFE00BF95E758
:1058D00006010020F4000020FC0000202E01002022
:1058E00030B50446002504E04FF47A7000F06AFFFA
:1058F0006D1CA542F8DB30BD90B04FF4A0704FF4A2
:10590000F073074A002100900846FAF739FF3C225D
:10591000044901A8FAF7E7FC01A8FFF72BFF0000F4
:1059200032A20008EC5D050810B50246012000E037
:1059300050430B1EA1F10104E1B2F9D110BD0000EA
:1059400010B5FFF745FA10B16FF0050409E00648FD
:10595000006820B9012004490860002401E04FF0EC
:10596000FF34204610BD00007000002070B5FFF726
:105970002FFA10B16FF005041FE0114800680128EC
:1059800019D100BF801F0021002804DB0A07130E75
:105990000C4A135406E00A07150E0B4A00F00F03D9
:1059A0001B1FD55400BF00BF02200549086001F04D
:1059B000BFF9002401E04FF0FF34204670BD000025
:1059C0007000002000E400E018ED00E02DE9FF4742
:1059D00080468946144600200390FFF7F9F9002815
:1059E0004ED1B8F1000F4BD0802618258246471EB5
:1059F00044B3206808B1D4F800A0A06900B1A5693B
:105A00002DB1382D03D8207900F0010018B1002005
:105A100004B0BDE8F087606908B160698608A068D5
:105A200040B1E0685C2805D3206918B1606908B10D
:105A3000012708E0A06830B9E06820B9206910B9F2
:105A4000002700E00027012F0CD12169A0684B46F8
:105A50003246CDE9005102905146404601F030FFF8
:105A600003900DE067B903A8B2B24B465146CDE9A9
:105A70000050404601F0F2FE012801D000200390C2
:105A80000398C5E72DE9F04105460E46164807681C
:105A900016480068001D00F0B9FE681C38B936B120
:105AA00012480168091D124800F00EFF1AE07C1927
:105AB0000E4800684460BC4207D20C480168091DCA
:105AC0000C48006800F0E6FE0CE008480168091D7B
:105AD0000948006800F0DEFE08480068844201D2F0
