:020000040800F2
:100000002056002061020008013600086F28000811
:10001000FD350008C10500080F3B00080000000086
:10002000000000000000000000000000A101000826
:10003000EF06000800000000FD010008B1380008CC
:100040007B0200087B0200087B0200087B0200089C
:100050007B0200087B0200087B0200087B0200088C
:100060007B0200087B020008FD0600087B020008F6
:100070007B0200087B0200087B0200087B0200086C
:100080007B0200087B0200087B0200087B0200085C
:100090007B0200087B0200087B0200087B0200084C
:1000A0007B0200087B0200087B0200087B0200083C
:1000B0007B0200087B020008913900087B020008DF
:1000C0007B0200087B0200087B0200081137000851
:1000D0007B0200087B0200087B0200087B0200080C
:1000E000F10600087B0200087B0200087B02000882
:1000F0007B020008A13900087B0200087B0200088F
:100100007B0200087B0200087B0200087B020008DB
:100110007B0200087B0200087B0200087B020008CB
:10012000C50500087B0200087B020008D505000811
:100130007B0200087B0200087B0200087B020008AB
:100140007B0200087B0200087B0200087B0200089B
:100150007B0200087B0200087B0200087B0200088B
:100160007B0200087B0200087B0200087B0200087B
:100170007B0200087B0200087B02000800000000F0
:100180007B0200087B020008DFF810D000F0EEF8D8
:1001900000480047713B0008AFF300802056002064
:1001A0002C4B19680868B0E8F04F80F30988BFF35A
:1001B0006F8F4FF0000080F311887047000000003F
:1001C00008480068006880F308884FF0000080F35A
:1001D000148862B661B6BFF34F8FBFF36F8F00DF35
:1001E00000BF00BF08ED00E0DFF80C00016841F43B
:1001F00070010160704700BF88ED00E0EFF30980F7
:10020000BFF36F8F134B1A681EF0100F08BF20ED5D
:10021000108A20E9F04F106009B44FF0500080F3CD
:100220001188BFF34F8FBFF36F8F04F083FE4FF041
:10023000000080F3118809BC19680868B0E8F04F25
:100240001EF0100F08BFB0EC108A80F30988BFF3CE
:100250006F8F704718000020EFF305807047000093
:100260000648804706480047FEE7FEE7FEE7FEE750
:10027000FEE7FEE7FEE7FEE7FEE7FEE77D39000862
:10028000890100082DE9F05F0546002092469B4653
:1002900088460646814640241BE02846414647469C
:1002A000224600F053F853465A46C01A914110D3E3
:1002B00011461846224600F03AF82D1A67EB01085D
:1002C0004F4622460120002100F031F817EB0009CB
:1002D0004E41201EA4F10104DFDC484631462A4687
:1002E0004346BDE8F09F40EA01039B0703D009E0C5
:1002F00008C9121F08C0042AFAD203E011F8013B12
:1003000000F8013B521EF9D27047D2B201E000F86A
:10031000012B491EFBD270470022F6E710B51346A9
:100320000A4604461946FFF7F0FF204610BD202A72
:1003300004DB203A00FA02F1002070479140C2F13C
:10034000200320FA03F3194390407047202A04DB6E
:10035000203A21FA02F00021704721FA02F3D0403E
:10036000C2F120029140084319467047064C074DE0
:1003700006E0E06840F0010394E807009847103475
:10038000AC42F6D3FFF704FF945F0008B45F0008A7
:1003900070B50546AC6B206C00F0500050BB206C73
:1003A00040F4007020642068806800F04050E8B994
:1003B000207ED8B92068C06A00F4700020B120689F
:1003C000806800F4806088B92068406820F02000D0
:1003D00021684860206C20F480702064206C00F458
:1003E000805018B9206C40F001002064204600F0D5
:1003F00053FA0BE0206C00F0100018B1204600F01A
:1004000056FA03E0A06BC16C2846884770BD70B5F2
:100410000546AC6B40202064606C40F004006064D2
:10042000204600F044FA70BD70B50446A56B28461E
:1004300000F03CFA70BD000055494A6822F4403291
:100440004A604A6843681A434A600268526822F464
:10045000807203685A6002685368026943EA0222A4
:1004600003685A600268526822F0407203685A605A
:100470000268526883681A4303685A600268926887
:1004800022F4006203689A6002689268C3681A43A3
:1004900003689A603F4B826A9A4218D00268926859
:1004A00022F0706203689A6002689268836A1A4355
:1004B00003689A600268926822F0405203689A606A
:1004C00002689268C36A1A4303689A600BE0026884
:1004D000926822F0706203689A600268926822F063
:1004E000405203689A600268926822F00202036830
:1004F0009A6002689368027E43EA420203689A6047
:100500002022125CA2B10268526842F400620368C1
:100510005A600268526822F4604203685A600268B6
:100520005368426A521E43EA423203685A6005E049
:100530000268526822F4006203685A600268D26A54
:1005400022F470020368DA620268D36A828B521E58
:1005500043EA02520368DA620268926822F4007287
:1005600003689A600268936890F8302043EA422258
:1005700003689A600268926822F4806203689A6055
:1005800002689368426943EA822203689A6070476E
:10059000002301400100000F10B52822054906483C
:1005A00000F01CFA002204210A2004F072FE034924
:1005B000086010BD0A4C0020DC0000209C000020D8
:1005C00000BFFEE710B5024800F0F6FA10BD0000CB
:1005D0002401002010B5024800F0EEFA10BD000022
:1005E000300200200146087810381823B0FBF3F2DF
:1005F0000848805CC865032A05D908686FF30900BC
:10060000001D886503E008686FF309008865886D40
:1006100070470000685F0008014600208A6A8B6905
:10062000CBB932B1012A0DD0022A03D0032A10D14E
:100630000EE000BFCB6A03F08073B3F1807F00D17E
:10064000012007E0CB6AB3F1C07F00D1012001E0B7
:1006500000E000BF34E08B69B3F5005F1AD132B11E
:10066000012A07D0022A03D0032A11D10AE000BFD1
:1006700001200EE0CB6A03F08073B3F1807F00D1DC
:10068000012006E0CB6AB3F1C07F00D1012000E079
:1006900000BF15E032B1012A05D0022A04D0032A96
:1006A0000CD103E000BF00BF012008E0CB6A03F0DB
:1006B0008073B3F1807F00D1012000E000BF00BF54
:1006C000704730B50468246824F4802405682C60E1
:1006D000046863608468402C04D10468A2600468E4
:1006E000E16003E00468A1600468E26030BD704727
:1006F00010B54FF4004000F04FFC10BD10B51020B5
:1007000000F04AFC10BD72B600BFFEE738B50246E5
:100710000020009000BF92F83C00012801D1022087
:1007200038BD012082F83C0000BF0868092816D9AE
:100730001068C0680C780A3C04EB44050724AC4000
:10074000A0431468E0600C780A3C04EB4404886819
:10075000A0401468E46820431468E06013E0106867
:1007600000690C7804EB44050724AC40A0431468EE
:1007700020610C7804EB44048868A0401468246964
:100780002043146820614868072817D21068406B1E
:100790000C79641E04EB84051F24AC40A04314684C
:1007A0006063088880B20C79641E04EB8404A04066
:1007B0001468646B20431468606331E048680D2856
:1007C00017D21068006B0C79E41F04EB84051F241A
:1007D000AC40A04314682063088880B20C79E41F01
:1007E00004EB8404A0401468246B20431468206345
:1007F00016E01068C06A0C790D3C04EB84051F24D8
:10080000AC40A0431468E062088880B20C790D3CCB
:1008100004EB8404A0401468E46A20431468E06296
:10082000194B1A4C1068A04206D10868122803D14F
:10083000586840F480005860144C1068A0421CD1E5
:100840000868102802D00868112816D1586840F4AA
:1008500000005860086810280FD10D4800680D4C42
:10086000B0FBF4F000EB80004000009002E0009844
:10087000401E009000980028F9D100BF002082F8A7
:100880003C0000BF00BF4BE70023014000200140B7
:100890001400002040420F0010B504460248844274
:1008A00001D102F0A7F910BDDC00002070477047AD
:1008B00070B5044600250CB9012070BD1549A06A29
:1008C000884200D000BF206C30B9204600F024F8E8
:1008D0000020606484F83C00206C00F0100088B9AF
:1008E000206C20F4885040F0020020642046FFF77E
:1008F000A3FD00206064206C20F0020040F00100A5
:10090000206400E0012500BF002084F83C0000BF07
:100910002846D2E70100000F10B586B00446142126
:1009200001A8FFF7F9FC2849206888424AD100BF96
:10093000002000902548006840F48070234908603A
:100940000846006800F48070009000BF00BF00BF40
:10095000002000901D481438006840F001001B4939
:10096000143908600846006800F00100009000BFDC
:1009700000BF0F200190032002900020039001A9E6
:10098000134800F017FB1348134908600020486023
:10099000002111488160C1604FF48061016149000C
:1009A0004161890081614911C16100210162416297
:1009B00000F022FA08B1FFF7A6FE00BF0648A063C8
:1009C000846300BF06B010BD0020014044380240DF
:1009D000000002401064024024010020F8B50446E3
:1009E0000D4616460020009000BF94F83C000128F8
:1009F00001D10220F8BD012084F83C0000BF20682E
:100A0000806800F00100A0B92068806840F0010013
:100A100021688860554800685549B0FBF1F000EB4B
:100A20004000009002E00098401E009000980028CE
:100A3000F9D12068806800F48070B0F5807F05D11E
:100A40002068806820F48070216888602068806851
:100A500000F0010000287ED0206C40F20161884344
:100A600040F4807020642068406800F4806028B101
:100A7000206C20F4005040F480502064206C00F47E
:100A80008050B0F5805F04D1606C20F00600606497
:100A900001E00020606400BF002084F83C0000BF3B
:100AA000344F3548A16BC8633448A16B086434489F
:100AB000A16BC8646FF0220021680860206840685C
:100AC00040F08060216848602068806840F4807051
:100AD00021688860226802F14C0133462A46A06BE7
:100AE00000F000FA786800F01F0018BB2549206864
:100AF000884213D024492068884204D1381D0068F8
:100B000000F01F0050B12149206888422BD11948BC
:100B1000001D006800F01F00102824D220688068A3
:100B200000F04050F8B92068806840F080402168AB
:100B3000886018E013492068884214D120688068D2
:100B400000F0405078B92068806840F0804021680B
:100B5000886008E0FFE7206C40F010002064606CC3
:100B600040F001006064002044E700001400002011
:100B700040420F00002301409103000829040008AF
:100B80000F04000800200140002101400022014024
:100B9000014691F83500022803D0802048650120E5
:100BA0007047052081F835000868006820F00100D2
:100BB0000A6810600020F3E7F8B5044600200090B2
:100BC0008C4800684FF41651B0FBF1F7A56D2E6804
:100BD00094F85C1008208840304098B12068006884
:100BE00000F0040070B12068006820F00400216863
:100BF000086094F85C1008208840A860606D40F0A0
:100C00000100606594F85C1001208840304068B1B4
:100C10002068406900F0800040B194F85C10012029
:100C20008840A860606D40F00200606594F85C1038
:100C300004208840304068B12068006800F002005D
:100C400040B194F85C1004208840A860606D40F0CA
:100C50000400606594F85C1010208840304078B340
:100C60002068006800F0080050B394F85C10102071
:100C70008840A8602068006800F4802080B1206867
:100C8000006800F4002028B9206CC8B12046216C0F
:100C9000884715E0A06C98B12046A16C88470FE00A
:100CA0002068006800F4807028B92068006820F08F
:100CB000080021680860206C10B12046216C88472C
:100CC00094F85C10202088403040002865D02068CF
:100CD000006800F0100000285FD094F85C1020201D
:100CE0008840A86094F83500052828D1206800685D
:100CF00020F01600216808602068406920F080001C
:100D000021684861206C08B9A06C28B1206800688F
:100D100020F008002168086094F85C103F208840AB
:100D2000A860012084F8350000BF002084F834005A
:100D300000BF206D10B12046216D8847F8BD2068A6
:100D4000006800F4802080B12068006800F4002072
:100D500028B9606C10B12046616C88471DE0E06BDB
:100D6000D8B12046E16B884717E02068006800F49E
:100D7000807068B92068006820F010002168086061
:100D8000012084F8350000BF002084F8340000BF43
:100D9000E06B10B12046E16B8847606D38B3606D41
:100DA00000F00100F0B1052084F8350020680068EB
:100DB00020F001002168086000BF0098401C0090EE
:100DC000B84200D905E02068006800F00100002862
:100DD000F3D100BF012084F8350000BF002084F863
:100DE000340000BFE06C10B12046E16C884700BFC2
:100DF000A4E70000140000202DE9F041044600257E
:100E000000F0E0F9074614B90120BDE8F081606AFE
:100E100000B100BF022084F8350000BF002084F834
:100E2000340000BF2068006820F0010021680860DD
:100E30000AE000F0C7F9C01B052805D9202060652D
:100E4000032084F83500E0E72068006800F0010026
:100E50000028EED12068056821480540D4E9010149
:100E60000843E16808432169084361690843A169AF
:100E70000843E1690843216A08430543606A04287E
:100E800003D1D4E90B0108430543206805602068BD
:100E9000456925F00705606A0543606A04280DD19D
:100EA000A06A0543E06A48B12046FFF7B5FB28B1C8
:100EB00040206065012084F83500A6E72068456180
:100EC0002046FFF78FFB064694F85C103F208840D1
:100ED000B06000206065012084F83500002094E7B0
:100EE0003F8010F02DE9F04704460D4616461F4698
:100EF0004FF00008D4F8589000BF94F8340001284F
:100F000002D10220BDE8F087012084F8340000BF40
:100F100094F83500012825D1022084F835000020FE
:100F200060653B46324629462046FFF7CAFB94F8E7
:100F30005C103F208840C9F808002068006840F035
:100F4000160021680860206C28B12068006840F015
:100F50000800216808602068006840F001002168EE
:100F6000086006E000BF002084F8340000BF4FF0A6
:100F700002084046C6E710B50446102C05D0B4F56B
:100F8000004F05D102F0FAF803E002F053FB00E055
:100F900000BF00BF10BD000010B504460448006843
:100FA000204020B1024804602046FFF7E4FF10BD56
:100FB000143C0140F8B502460B46002500240020F1
:100FC0000021D6E0012606FA01F51E6806EA0504AE
:100FD000AC4274D11E7906F00306012E04D01E79AE
:100FE00006F00306022E13D190684F000326BE4080
:100FF000B0434F00DE68BE40304390605068012629
:101000008E40B0431E79C6F300168E4030435060C8
:101010001E7906F00306032E09D0D0684F00032680
:10102000BE40B0434F009E68BE403043D0601E7942
:1010300006F00306022E13D1CF0802F1200656F85F
:1010400027004E07F70E0F26BE40B0434F07FF0E96
:101050001E69BE403043CF0802F1200646F8270043
:1010600010684F000326BE40B0431E7906F0030609
:101070004F00BE40304310605E6806F44036002EDC
:1010800076D000BF002600963C4E366846F4804677
:101090003A4F3E603E46366806F48046009600BFF2
:1010A00000BF374E8F0856F827008E07370F0F26E0
:1010B000BE40B043334EB24202D1002624E057E096
:1010C000314EB24201D101261EE0304EB24201D172
:1010D000022619E02E4EB24201D1032614E02D4E15
:1010E000B24201D104260FE02B4EB24201D10526B7
:1010F0000AE02A4EB24201D1062605E0284EB2424D
:1011000001D1072600E008268F073F0FBE4030437D
:101110001B4E8F0846F82700224E3068A0435E68B9
:1011200006F4801606B120431E4E3060361D30682E
:10113000A0435E6806F4001606B12043194E361D22
:101140003060184E361F3068A0435E6806F40036E3
:1011500006B12043134E361F3060361F3068A0435F
:101160005E6806F4803606B120430E4E083E3060BD
:10117000491C1029FFF426AFF8BD00004438024096
:10118000083801400000024000040240000802400C
:10119000000C0240001002400014024000180240FF
:1011A000001C0240083C0140024613690B400BB191
:1011B000012000E0002070470AB1816101E00B04CA
:1011C00083617047014800687047000008000020F4
:1011D00070B504460CB9012070BD94F83D0028B9E3
:1011E000002084F83C00204600F092F9242084F886
:1011F0003D002068006820F0010021680860206838
:10120000006840F40040216808602068006820F40D
:1012100000402168086000F0BDFB05465C4960683D
:10122000884206D85B48854201D2012007E00020B1
:1012300005E05948854201D2012000E00020012844
:1012400000D1C9E75548B5FBF0F62068406820F0AA
:101250003F003043216848604D496068884201D8AA
:10126000701C07E04FF4967070434FF47A71B0FB36
:10127000F1F0401C2168096A21F03F010843216810
:10128000086243496068884214D8681E6168490052
:10129000B0FBF1F0401CC0F30B00042801D2042085
:1012A0003DE0681E61684900B0FBF1F0401CC0F3EE
:1012B0000B0034E0A06838B9681E616801EB410199
:1012C000B0FBF1F0401C0AE0681E616801EBC1024E
:1012D00002EB0111B0FBF1F0401C40F48040C0F380
:1012E0000B0008B901201AE0A06848B9681E6168BF
:1012F00001EB4101B0FBF1F0401CC0F30B000CE02E
:10130000681E616801EBC10202EB0111B0FBF1F054
:10131000401CC0F30B0040F4804040F400402168C2
:10132000C9694CF6FF72914308432168C861D4E94A
:10133000070108432168096821F0C00108432168BA
:101340000860D4E9031008432168896848F2FF3235
:101350009143084321688860D4E905010843216866
:10136000C96821F0FF0108432168C860206800684F
:1013700040F001002168086000202064202084F8EB
:101380003D000020206384F83E0000BF24E70000F9
:10139000A086010080841E0000093D0040420F002D
:1013A0002DE9F8430446894616461F46DDF820809D
:1013B000FFF708FF054694F83D0020287ED1192349
:1013C000012251492046009501F005FB10B1022091
:1013D000BDE8F88300BF94F83C00012801D1022049
:1013E000F6E7012084F83C0000BF2068006800F0A8
:1013F000010028B92068006840F0010021680860F9
:101400002068006820F4006021680860212084F8CA
:101410003D00102084F83E0000202064666267854D
:10142000608D20853948E0622B4642464946204679
:1014300001F03EFA08B10120CAE700BF0020009089
:1014400020684069009020688069009000BF00BF5C
:1014500044E02A464146204601F099FB50B1206CF9
:10146000042805D12068006840F4007021680860F5
:101470000120ADE7606A007821680861606A401C5D
:101480006062608D401E6085208D401E2085206832
:101490004069C0F3800070B1208D60B1606A00784F
:1014A00021680861606A401C6062608D401E608532
:1014B000208D401E20852A46414600E022E020463D
:1014C00001F056FA50B1206C042805D1206800685C
:1014D00040F4007021680860012079E7208D002821
:1014E000B7D12068006840F40070216808602020AF
:1014F00084F83D00002084F83E0000BF84F83C00E2
:1015000000BF65E7022063E7020010000000FFFF54
:1015100010B586B00446142101A8FEF7FDFE1B4954
:101520002068884230D100BF002000901848006831
:1015300040F00200164908600846006800F002000A
:10154000009000BF00BF4FF4406001901220029055
:1015500000200390032004900420059001A90D4869
:10156000FFF728FD00BF00200090094810300068F8
:1015700040F480000649103108600846006800F415
:101580008000009000BF00BF06B010BD00580040B2
:1015900030380240000402400348006803490978DB
:1015A000084401490860704708000020100000202E
:1015B00010B50D48006840F400700B4908600846FB
:1015C000006840F4806008600846006840F480705D
:1015D0000860032000F0E0F8052000F007F800F0B4
:1015E0005FF8002010BD0000003C02402DE9F041F2
:1015F00088B004460027B84600BF00200190234869
:10160000006840F48070214908600846006800F4D2
:101610008070019000BF00BF02A903A800F092F9FA
:10162000069F1FB900F0B6F9054602E000F0B2F9D6
:1016300045001748B5FBF0F0A0F101081548164920
:10164000086040F2E7311448C160C0F8048000210E
:1016500001618160816100F011FF064696B90E4874
:1016600000F064FF06466EB92D2000F043F8102C00
:1016700007D2002221462D2000F050F807480460D0
:1016800000E00126304608B0BDE8F0814038024055
:1016900040420F0000200040D80200200C00002033
:1016A00008B500BF002000901148006840F4804059
:1016B0000F4908600846006800F48040009000BFB1
:1016C00000BF00BF00200090081F006840F080505D
:1016D000091F08600846006800F08050009000BFB5
:1016E00000BF00220F21901E00F018F808BD000076
:1016F000443802400146084600280DDB00BF00BF09
:1017000000F01F0301229A4043099B0003F1E023EC
:10171000C3F8002100BF00BF00BF70472DE9F05F94
:1017200080460D461646002702F0F4F90746394672
:101730002A46334601F00700C0F1070ABAF1040F48
:1017400002D94FF0040A01E0C0F1070AD14600F1C6
:10175000040ABAF1070F02D24FF0000A01E0A0F12B
:10176000030AD4464FF0010A0AFA09FAAAF1010A5B
:101770000AEA020A0AFA0CFA4FF0010B0BFA0CFB08
:10178000ABF1010B0BEA030B4AEA0B04214640467E
:1017900002F0C8F9BDE8F09F00BF00F00702064B59
:1017A00019684FF6FF031940044B0B4343EA02212B
:1017B000014B196000BF70470CED00E00000FA0516
:1017C00070B504460D460CB9012070BD584800683C
:1017D00000F00700A84209D255490D70084600687C
:1017E00000F00700A84201D00120EEE7207800F0C9
:1017F000020002281DD1207800F00400042805D141
:101800004C48006840F4E0504A490860207800F0F5
:101810000800082805D14748006840F46040454961
:1018200008604448006820F0F000A168084341497E
:101830000860207800F00100A8B36068012807D193
:101840003C4808380068C0F34040B8B90120BCE704
:101850006068022802D06068032807D1354808383C
:101860000068C0F3406048B90120AEE7314808384D
:101870000068C0F3400008B90120A6E72D480068C1
:1018800020F00300616808432A490860FFF79AFCCA
:10189000064609E0FFF796FC801B41F2883188423A
:1018A00002D9032091E707E02248006800F00C000D
:1018B0006168B0EB810FEDD11D48006800F00700B2
:1018C000A84209D91A490D700846006800F00700BF
:1018D000A84201D0012078E7207800F00400042815
:1018E00007D11448006820F4E050E168084311492A
:1018F0000860207800F00800082808D10D4800682A
:1019000020F46040216940EAC1000A49086000F003
:1019100051F808490968C1F30311074A515CC840EE
:101920000649086006480068FFF760FE00204CE7A3
:10193000003C024008380240705F0008140000209C
:101940000C0000200F2202600D4A126802F0030210
:1019500042600B4A126802F0F0028260084A126884
:1019600002F4E052C260064A126802F46042D208F1
:101970000261044A126802F007020A607047000020
:1019800008380240003C02400148006870470000EF
:101990001400002000B5FFF7F7FF04490968C1F300
:1019A0008221034A515CC84000BD00000838024053
:1019B000805F00082DE9F047002400250026A1469D
:1019C0002548006800F00C0020B1042805D0082844
:1019D0003AD105E0DFF8849039E0DFF8849036E012
:1019E0001D48001F006800F03F041B48001F0068EE
:1019F00000F4800078B11A481749091F0968C1F33B
:101A00008811A0FB01700146224600233846FEF7EC
:101A100039FC05460EE011480F49091F0968C1F35A
:101A20008811A0FB01700146224600233846FEF7CC
:101A300029FC05460848001F0068C0F30140401C0F
:101A40004600B5FBF6F902E0DFF8109000BF00BFDA
:101A50004846BDE8F0870000083802400024F40042
:101A600040787D01F8B504460CB90120F8BD207816
:101A700000F00100002874D0F948006800F00C0064
:101A800004280DD0F648006800F00C00082813D197
:101A9000F348001F006800F48000B0F5800F0BD100
:101AA000EF4808380068C0F34040002859D060680B
:101AB000002856D10120D9E700BF6068B0F5803F0B
:101AC00008D1E7480838006840F48030E449083914
:101AD00008601EE06068B0F5A02F0DD1E04808381E
:101AE000006840F48020DE49083908600846006834
:101AF00040F4803008600CE0D9480838006820F4D1
:101B00008030D749083908600846006820F48020F2
:101B1000086000BF606890B1FFF754FB054606E01F
:101B2000FFF750FB401B642801D903209EE7CC48F7
:101B300008380068C0F340400028F1D011E0FFF7FA
:101B400041FB054606E0FFF73DFB401B642801D939
:101B500003208BE7C24808380068C0F340400028E3
:101B6000F1D1207800F0020002285FD1BC48006863
:101B700000F00C0058B1BA48006800F00C000828CA
:101B80001CD1B748001F006800F48000B0B9B44809
:101B900008380068C0F3400020B1E068012801D097
:101BA000012063E7AE480838006820F0F80021699A
:101BB00040EAC100AA490839086037E0E06800B38C
:101BC0000120A8490860FFF7FDFA054606E0FFF787
:101BD000F9FA401B022801D9032047E7A04808383A
:101BE0000068C0F340000028F1D09D480838006824
:101BF00020F0F800216940EAC100994908390860DD
:101C000014E0002097490860FFF7DCFA054606E07B
:101C1000FFF7D8FA401B022801D9032026E7904895
:101C200008380068C0F340000028F1D1207800F0A7
:101C3000080008282CD16069A8B101208A490860F1
:101C4000FFF7C0FA054606E0FFF7BCFA401B022882
:101C500001D903200AE782486C300068C0F34000D5
:101C60000028F1D014E000207F490860FFF7AAFAAD
:101C7000054606E0FFF7A6FA401B022801D903201B
:101C8000F4E677486C300068C0F340000028F1D1DA
:101C9000207800F00400042870D100277048383004
:101CA000006800F0805090B900BF002000906C48A0
:101CB0003830006840F08050694938310860084683
:101CC000006800F08050009000BF00BF0127674807
:101CD000006800F48070B0B96448006840F4807017
:101CE00062490860FFF76EFA054606E0FFF76AFAF8
:101CF000401B022801D90320B8E65C48006800F4C4
:101D000080700028F2D000BFA068012808D1544894
:101D10006830006840F001005149683108601DE0FA
:101D2000A06805280DD14E486830006840F00400D6
:101D30004B49683108600846006840F001000860BF
:101D40000CE047486830006820F0010044496831E1
:101D500008600846006820F00400086000BFA06822
:101D6000A8B1FFF72FFA054609E0FFF72BFA401B51
:101D700041F28831884202D9032077E626E03848CC
:101D800068300068C0F340000028EED013E0FFF791
:101D900019FA054608E0FFF715FA401B41F28831B1
:101DA000884201D9032061E62D4868300068C0F3FD
:101DB00040000028EFD1012F07D1294838300068B2
:101DC00020F0805026493831086000BFA069002803
:101DD00045D02348006800F00C0008285DD0A069B9
:101DE000022845D100201F490866FFF7EBF9054698
:101DF00006E0FFF7E7F9401B022801D9032035E68A
:101E0000174808380068C0F340600028F1D1D4E9D1
:101E100007010843616A40EA81110122A06AC2EB0E
:101E2000500041EA00412C20005D41EA00600C496D
:101E3000091F086001200B490866FFF7C3F9054632
:101E400006E0FFF7BFF9401B022801D903200DE689
:101E5000034808380068C0F340600028F1D049E02A
:101E60000838024000004742800E474200700040A0
:101E7000002021490866FFF7A5F9054606E0FFF7AF
:101E8000A1F9401B022801D90320EFE51B48006897
:101E9000C0F340600028F2D12CE0A069012800D1F5
:101EA000E4E51648001D0668A069012820D006F464
:101EB0008001E06981421BD106F03F01206A814226
:101EC00016D147F6C0703040616AB0EB811F0FD168
:101ED00006F440310122A06AC2EB5000B1EB004F82
:101EE00006D106F070612C20005DB1EB006F01D0CF
:101EF0000120BBE50020B9E5000047420038024060
:101F000070470000F8B50446206846682068856878
:101F1000C5F3801048B905F0010030B1C6F3801058
:101F200018B12046216C8847F8BDC5F3400030B198
:101F3000C6F3C01018B12046616C8847F4E7C5F3BA
:101F4000401030B9C5F3801018B9C5F3002000283F
:101F50007CD0C6F3401000287DD0C5F38010F0B1CE
:101F600094F8510003280ED0606D40F004006065C5
:101F700000BF002000902068C06800902068806842
:101F8000009000BF0BE000BF002000902068C068F8
:101F9000009020688068009000BF00BFC4E7C5F3D0
:101FA000401088B1606D40F00100606500BF002006
:101FB00000902068806800902068006820F0400051
:101FC0002168086000BF00BFC5F3002058B1606DF4
:101FD00040F00800606500BF002000902068806825
:101FE000009000BF00BF606D78B32068406820F0AB
:101FF000E00021684860012084F8510006F00200EA
:10200000022802D006F0010008B32068406820F0E2
:10201000030021684860E06C50B11048E16C08652D
:10202000E06CFEF7B5FD18B1606D40F040006065F2
:10203000A06C50B10948A16C0865A06CFEF7A8FD22
:1020400018B1606D40F04000606503E003E0204699
:10205000FFF756FF68E700BF66E70000213700087A
:1020600010B504460CB9012010BD606A38B960682B
:10207000B0F5827F00D105E00021E16102E000219E
:10208000216161610021A16294F8510028B900200A
:1020900084F85000204600F047F8022084F85100F0
:1020A0002068006820F0400021680860A08800F4E3
:1020B0008270218901F404410843A18901F400617F
:1020C0000843217C01F002010843217D01F0010158
:1020D0000843218B01F400710843217F01F038018E
:1020E00008432021095D01F080010843218D01F49E
:1020F00000510843216808600421A06901EA1040EA
:1021000094F8241001F01001084321684860206809
:10211000C06920F400602168C8610020606501206A
:1021200084F8510000209FE710B586B004461421C2
:1021300001A8FEF7F1F82E492068884255D100BF6A
:10214000002000902B48006840F480502949086026
:102150000846006800F48050009000BF00BF00BF38
:102160000020009023481438006840F00200214904
:10217000143908600846006800F00200009000BFB3
:1021800000BF28200190022002900020039003202D
:1021900004900520059001A91748FEF70BFF17488A
:1021A000174908604FF0C0604860402114488160C2
:1021B0000021C1604FF480610161002141618161B2
:1021C000C16101624162FEF717FE08B1FEF79BFA9A
:1021D00000BF0B48A064846300BF002205212320B8
:1021E000FFF79CFA2320FFF785FA06B010BD000028
:1021F000003001404438024000040240586402406C
:10220000300200202DE9F84304460F4616461D46CD
:10221000FEF7D8FF8046B14694F85100012802D05D
:102220000220BDE8F88307B10EB90120F9E700BF2D
:1022300094F85000012801D10220F2E7012084F82F
:10224000500000BF032084F8510000206065276320
:10225000A686E686A063A087E08760642064A06805
:10226000B0F5004F0BD12068006820F040002168D5
:1022700008602068006840F4804021680860206899
:10228000006800F04000402805D02068006840F059
:10229000400021680860E068B0F5006F37D16068E1
:1022A00010B1B9F1010F09D1206B00882168C86015
:1022B000206B801C2063E08E401EE08623E02068B7
:1022C000806800F0020002280AD1206B0088216893
:1022D000C860206B801C2063E08E401EE08612E008
:1022E000FEF770FFA0EB0800A84201D3681C00B9FC
:1022F0004DB9012084F8510000BF002084F850003F
:1023000000BF03208DE7E08E0028D8D136E060685A
:1023100010B1B9F1010F09D1206B00782168087361
:10232000206B401C2063E08E401EE08623E0206886
:10233000806800F0020002280AD1206B0078216832
:102340000873206B401C2063E08E401EE08612E084
:10235000FEF738FFA0EB0800A84201D3681C00B9C3
:102360004DB9012084F8510000BF002084F85000CE
:1023700000BF032055E7E08E0028D8D14246294609
:10238000204601F0D7F908B120206065A06850B957
:1023900000BF002000902068C0680090206880681E
:1023A000009000BF00BF012084F8510000BF002052
:1023B00084F8500000BF606D08B1012031E70020B3
:1023C0002FE770477047000030B502460B4600BF4C
:1023D00092F83C00012801D1022030BD012082F892
:1023E0003C0000BF022082F83D001068446810687D
:1023F000816824F070041868044310684460184D24
:102400001068A8421BD01068B0F1804F17D0154D4E
:102410001068A84213D0144D1068A8420FD0134D75
:102420001068A8420BD0124D1068A84207D0114D79
:102430001068A84203D0104D1068A84205D121F0C1
:1024400080015868014310688160012082F83D00D6
:1024500000BF002082F83C0000BF00BFBDE70000C5
:10246000000001400004004000080040000C004053
:1024700000040140004001400018004010B504462F
:102480000CB9012010BD94F83D0028B9002084F853
:102490003C00204600F026F8022084F83D00211D73
:1024A000206801F085FA012084F8460000BF84F816
:1024B0003E0001213F20015540200155412001559A
:1024C00000BF00BF012084F8420043200155442092
:1024D00001554520015500BF012084F83D00002032
:1024E000D0E7000038B504460E492068884217D16D
:1024F00000BF002000900C48006840F004000A492A
:1025000008600846006800F00400009000BF00BFAB
:10251000002205211E20FFF701F91E20FFF7EAF82F
:1025200038BD00000008004040380240014691F8E4
:102530003D00012801D001207047022081F83D00B4
:102540000868C06840F001000B68D8601A4B086842
:1025500098421BD00868B0F1804F17D0174B08681D
:10256000984213D0164B086898420FD0154B086854
:1025700098420BD0144B0868984207D0134B086858
:10258000984203D0124B086898420CD108688068C2
:1025900000F00702062A0CD00868006840F001002D
:1025A0000B68186005E00868006840F001000B68DF
:1025B00018600020C0E70000000001400004004057
:1025C00000080040000C00400004014000400140B1
:1025D000001800402DE9F04104460D46002700BFD9
:1025E00094F83C00012802D10220BDE8F0810120CE
:1025F00084F83C0000BF022084F83D002068866813
:1026000026F0770626F47F462068866028685028E2
:1026100033D00CDC202850D004DC00284BD010280C
:1026200051D149E0302849D040284CD139E06028C8
:102630002DD0702807D0B0F5805F03D0B0F5005FD3
:1026400041D10DE041E0D5E902136A68206801F04C
:1026500023FA2068866846F077062068866034E0B2
:10266000D5E902136A68206801F016FA20688068CC
:1026700040F480402168886027E0EA686968206843
:1026800001F01EFA5021206801F011FA1DE0EA68FD
:102690006968206801F027FA6021206801F007FAD4
:1026A00013E0EA686968206801F00AFA40212068AE
:1026B00001F0FDF909E000BF00BF00BF29682068F4
:1026C00001F0F5F901E0012700BF00BF012084F807
:1026D0003D0000BF002084F83C0000BF384684E77E
:1026E000704770B504462068C5682068066906F022
:1026F0000200022819D105F00200022815D1401F5E
:1027000021680861012020772068806900F00300BB
:1027100018B12046FFF7E4FF05E0204600F097F8E7
:10272000204600F095F80020207706F004000428E9
:1027300019D105F00400042815D1C04321680861AF
:10274000022020772068806900F4407018B120468C
:10275000FFF7C6FF05E0204600F079F8204600F0BC
:1027600077F80020207706F00800082819D105F036
:102770000800082815D1C04321680861042020778B
:102780002068C06900F0030018B12046FFF7A8FFD9
:1027900005E0204600F05BF8204600F059F80020E4
:1027A000207706F01000102819D105F0100010282D
:1027B00015D1C04321680861082020772068C069CE
:1027C00000F4407018B12046FFF78AFF05E020466C
:1027D00000F03DF8204600F03BF80020207706F09E
:1027E000010048B105F0010030B16FF0010021682F
:1027F0000861204600F02EF806F08000802809D1FC
:1028000005F08000802805D1C0432168086120467A
:10281000FFF7D7FD06F04000402809D105F0400041
:10282000402805D1C04321680861204600F01EF809
:1028300006F02000202809D105F02000202805D12D
:10284000C043216808612046FFF7BCFD70BD70479A
:102850007047000010B5044603492068884201D142
:10286000FEF79AFE10BD000000200040704700BF38
:10287000FEE7014608684069C0F38020B0B16FF4FC
:1028800080600A68506100200863202081F83D00C4
:10289000002081F83E00086C40F00400086400BF8E
:1028A000002081F83C0000BF012070470020FCE7B9
:1028B0002DE9F84304460D4617469846E66A082E69
:1028C00004D0012E02D016F5803F06D120680068A2
:1028D00040F480702168086008E0206B122805D160
:1028E0002068006840F48070216808603B46002240
:1028F0004FF001112046CDF8008000F06CF860B177
:102900002068006800F48070B0F5807F02D14FF439
:10291000007020640320BDE8F8832069B0F5804F83
:1029200004D105F0FE002168086112E005F4407052
:10293000F02141EAE0102168086143463A460B491C
:10294000204600F0A7F808B10120E4E7E8B22168CA
:10295000086143463A460549891F204600F09AF827
:1029600008B10120D7E70020D5E7000008000100EA
:1029700070B504460D46164625E02046FFF779FF60
:1029800008B1012070BD681CE8B1FEF71BFC801B7C
:10299000A84200D8BDB920684069C0F3800090B952
:1029A00000202063202084F83D00002084F83E00B1
:1029B000206C40F02000206400BF002084F83C0020
:1029C00000BF0120DEE720684069C0F380000028D6
:1029D000D3D00020D6E72DE9F04104460D46174636
:1029E0001E46DDF8188038E0701CA8B3FEF7EAFB3D
:1029F000A0EB0800B04200D876BBC5F30740012821
:102A00000AD120684069A9B20840A9B2884201D120
:102A100001200BE0002009E020688069A9B208408D
:102A2000A9B2884201D1012000E00020B84214D1AF
:102A300000202063202084F83D00002084F83E0020
:102A4000206C40F02000206400BF002084F83C008F
:102A500000BF0120BDE8F081FFE7C5F30740012872
:102A60000AD120684069A9B20840A9B2884201D1C0
:102A700001200BE0002009E020688069A9B208402D
:102A8000A9B2884201D1012000E00020B842ABD0B9
:102A90000020DFE72DE9F04104460D4616461F46AB
:102AA00058E020684069C0F38020E8B120680068E1
:102AB00040F40070216808606FF48060216848610C
:102AC00000202063202084F83D00002084F83E0090
:102AD000206C40F00400206400BF002084F83C001B
:102AE00000BF0120BDE8F081701C90B3FEF76AFBC7
:102AF000C01BB04200D866BBC5F3074001280AD10D
:102B000020684069A9B20840A9B2884201D10120D9
:102B10000BE0002009E020688069A9B20840A9B252
:102B2000884201D1012000E0002090B900202063FC
:102B3000202084F83D00002084F83E00206C40F006
:102B40002000206400BF002084F83C0000BF01206A
:102B5000C8E7FFE7C5F3074001280AD120684069AC
:102B6000A9B20840A9B2884201D101200BE000209F
:102B700009E020688069A9B20840A9B2884201D161
:102B8000012000E0002000288BD00020AAE770B5CB
:102B900004460D46164625E02046FFF76AFE08B1BA
:102BA000012070BD681CE8B1FEF70CFB801BA84239
:102BB00000D8BDB920684069C0F3C01090B90020AA
:102BC0002063202084F83D00002084F83E00206C23
:102BD00040F02000206400BF002084F83C0000BFCB
:102BE0000120DEE720684069C0F3C0100028D3D080
:102BF0000020D6E710B5002028E05D4983000A6E6A
:102C0000891C31F813101144594A11661146CB6DD5
:102C10008100491C921C32F811101944921ED16592
:102C200011468B6D8100891C921C32F811101944D9
:102C3000921E916511464B6D8100C91C921C32F8A1
:102C400011101944921E5165411CC8B20A28D4DBE8
:102C50004748006E0A21B0FBF1F04549A1F86A002F
:102C60000846C06D0A21B0FBF1F04149A1F86800A7
:102C70000846806D0A21B0FBF1F03D49A1F86600DD
:102C80000846406D0A21B0FBF1F03949A1F8640013
:102C900000200866C865886548650846B0F86A007F
:102CA00040F6B831884203DD03203249C8700CE099
:102CB0002F48B0F86A00B0F57A7F03DAFD202D497D
:102CC000C87002E000202B49C8702948B0F868009D
:102CD00040F6B831884203DD0320264988700CE0B5
:102CE0002348B0F86800B0F57A7F03DAFD20214967
:102CF000887002E000201F4988701D48B0F8660007
:102D000040F6B831884203DD03201A4948700CE0D0
:102D10001748B0F86600B0F57A7F03DAFD20154950
:102D2000487002E00020134948701148B0F8640070
:102D300040F6B831884203DD03200E4908700CE0EC
:102D40000B48B0F86400B0F57A7F03DAFD2009493A
:102D5000087002E00020074908700748007830B189
:102D600000231A4603490548006802F067FC10BDBD
:102D7000084C002098000020C80000209C00002083
:102D800070B5064616484088401E83B21448008835
:102D9000401E82B20021084600F022F900224FF4C2
:102DA00000511048FEF708FA012210210D48FEF7E5
:102DB00003FA00240AE0002503E0304600F0CCF9D5
:102DC0006D1C07480088A842F7D8641C0448408856
:102DD000A042F0D8012251030248FEF7EDF970BD80
:102DE000F84B00200004024010B500F0D3FA10BDEB
:102DF00010B500F0ABFBFFF7F7FF00F0DBF8F720B2
:102E000000F036F9A92000F017F9512000F014F96C
:102E10002C2000F011F9822000F00EF9C02000F003
:102E200027F9112000F008F9092000F005F9C12068
:102E300000F01EF9412000F0FFF8C52000F018F95D
:102E4000002000F0F9F80A2000F0F6F8802000F0E9
:102E5000F3F8B12000F00CF9B02000F0EDF81120EB
:102E600000F0EAF8B42000F003F9022000F0E4F8E2
:102E7000B62000F0FDF8022000F0DEF8422000F05D
:102E8000DBF8B72000F0F4F8C62000F0D5F8BE203B
:102E900000F0EEF8002000F0CFF8042000F0CCF8AD
:102EA000E92000F0E5F8002000F0C6F8362000F038
:102EB000DFF8682000F0C0F83A2000F0D9F866206A
:102EC00000F0BAF8E02000F0D3F8002000F0B4F8E9
:102ED000072000F0B1F8102000F0AEF8092000F053
:102EE000ABF8172000F0A8F80B2000F0A5F841205F
:102EF00000F0A2F8892000F09FF84B2000F09CF829
:102F00000A2000F099F80C2000F096F80E2000F04E
:102F100093F8182000F090F81B2000F08DF80F2097
:102F200000F08AF8E12000F0A3F8002000F084F817
:102F3000172000F081F81A2000F07EF8042000F03D
:102F40007BF80E2000F078F8062000F075F82F20AE
:102F500000F072F8452000F06FF8432000F06CF8A4
:102F6000022000F069F80A2000F066F8092000F05D
:102F700063F8322000F060F8362000F05DF80F2092
:102F800000F05AF8112000F073F8782000F008FEE5
:102F9000292000F06DF8012000F098F8012291033B
:102FA0000348FEF709F94FF6FF70FFF7E9FE10BD81
:102FB0000004024010B500224FF400410748FEF71C
:102FC000FBF8642000F0ECFD0122D1030348FEF77A
:102FD000F3F8322000F0E4FD10BD000000000240D4
:102FE0002DE9F04104460D4616461F461149887AE0
:102FF00000F03EF8201200F01FF8E0B200F01CF8DC
:10300000301200F019F8F0B200F016F80949087B08
:1030100000F02EF8281200F00FF8E8B200F00CF8DB
:10302000381200F009F8F8B200F006F800F03CF8A9
:10303000BDE8F081F84B002001B500224FF40051AB
:103040000948FEF7B9F8012210210748FEF7B4F845
:1030500001226946054800F01DFC01225103024887
:10306000FEF7AAF808BD000000040240D8010020C5
:1030700001B500224FF400510948FEF79DF80022E7
:1030800010210748FEF798F801226946054800F02C
:1030900001FC012251030248FEF78EF808BD000032
:1030A00000040240D801002010B50249087AFFF759
:1030B000DFFF10BDF84B002070B505460C462846D2
:1030C000FFF7D6FFE0B2FFF7B7FF70BD10B50446BB
:1030D0002A20204948812B2088812C20088134B166
:1030E000012C10D0022C1AD0032C30D123E04FF445
:1030F000A070184908804FF4F070488008213620ED
:10310000FFF7DAFF24E04FF4F070124908804FF423
:10311000A070488068213620FFF7CEFF18E04FF4FA
:10312000A0700C4908804FF4F0704880C821362008
:10313000FFF7C2FF0CE04FF4F070064908804FF42F
:10314000A0704880A8213620FFF7B6FF00E000BF3E
:1031500000BF10BDF84B002010B50446F82101EA6D
:103160002420FFF769FFFC2101EAE400FFF764FF78
:10317000E106080EFFF760FF10BD000008B5002053
:1031800000906A4601210748006801F091FF00980D
:1031900038B14FF0805004490860BFF34F8FBFF340
:1031A0006F8F08BDC000002004ED00E010B50021C5
:1031B0006B2000F02DF800216C2000F029F8092187
:1031C000192000F025F806211A2000F021F8182116
:1031D0001B2000F01DF818211C2000F019F8002118
:1031E000372000F015F8FF21382000F011F80022F8
:1031F00008210A2002F04DF80349086001F0E2FEC0
:1032000002490860002010BDBC000020C000002062
:103210007CB504460D468DF804408DF805504FF4FA
:10322000FA70022301AAD021009002480068FEF73C
:10323000B7F87CBDC40000201FB5002000900190AD
:10324000029003902648274908604FF48030486078
:10325000002124488160012101610176002180F86C
:103260002010C162204981620021C1600421C16136
:10327000012180F830104161FDF71AFB08B1FDF71C
:1032800042FA002000900120019007200290694638
:103290001448FDF73BFA08B1FDF735FA012000901C
:1032A0000220019069460F48FDF730FA08B1FDF79A
:1032B0002AFA022000900320019069460948FDF790
:1032C00025FA08B1FDF71FFA0320009004200190B1
:1032D00069460448FDF71AFA08B1FDF714FA1FBD54
:1032E00000200140DC0000200100000F08B500BFF5
:1032F000002000900E48006840F480000C490860EF
:103300000846006800F48000009000BF00BF002263
:1033100005213820FEF702FA3820FEF7EBF90022EB
:1033200005213B20FEF7FAF93B20FEF7E3F908BD43
:10333000303802401CB5012001F09AFF0D490860A9
:10334000FFF756FDFDF728F900F0D0F9FFF72EFF43
:10335000094A0021094800F077FC0949086000206B
:10336000182103468022CDE9001006A1084802F08A
:10337000E9FA1CBD00000020445F0008AD380008D9
:10338000040000204D656E755461736B00000000F1
:10339000B93B000800B587B0142102A8FCF7BCFFB8
:1033A00000BF002001905648006840F004005449D6
:1033B00008600846006800F00400019000BF00BFEC
:1033C00000BF002001900846006840F080000860BF
:1033D0000846006800F08000019000BF00BF00BFF9
:1033E000002001900846006840F00100086008468F
:1033F000006800F00100019000BF00BF00BF002086
:1034000001900846006840F0100008600846006817
:1034100000F01000019000BF00BF00BF002001902D
:103420000846006840F0020008600846006800F0A6
:103430000200019000BF00BF002246F21001314897
:10344000FDF7BAFE00224FF400412F48FDF7B4FE0D
:10345000102002904FF4881003900020049002A9DD
:103460002948FDF7A7FD602002900020039001206D
:10347000049002A92448FDF79DFD4FF400400290FE
:103480004FF4881003900020049002A91F48FDF714
:1034900091FD42F210000290012003900020049060
:1034A0000220059002A91748FDF784FD4FF48040E3
:1034B00002900120039000200490059002A9114879
:1034C000FDF778FD4FF400400290012003900020AA
:1034D0000490059002A90C48FDF76CFD002205211F
:1034E0000A20FEF71BF90A20FEF704F90022052145
:1034F0002820FEF713F92820FEF7FCF807B000BDDE
:103500003038024000040240000002400010024037
:1035100010B50B480B4908600B484860002109486A
:103520008160C1604FF4804101610021416181618E
:10353000C1610162FDF74CFE08B1FDF7E4F810BD72
:103540000058004084010020A086010010B50E48FC
:103550000E4908604FF48270486000210B4881607A
:10356000C160016141614FF4007181610021C1615D
:103570000162416281620A21C162FEF771FD08B1F8
:10358000FDF7C1F810BD000000300140D801002057
:1035900000B587B00020039004900590069001903C
:1035A00002901448144908605320486000211248D2
:1035B000816040F2E731C160002101618161FEF765
:1035C0005DFF08B1FDF79FF84FF48050039003A909
:1035D0000948FEF7FFFF08B1FDF795F800200190BC
:1035E000029001A90448FEF7EFFE08B1FDF78BF841
:1035F00007B000BD000800409002002000BFFEE7B9
:1036000000BFFEE710B510210348FDF7CDFD08B956
:10361000002010BD0120FCE70000024010B5202171
:103620000348FDF7C1FD08B9002010BD0120FCE7EB
:103630000000024030B587B00020019001F090F901
:10364000CDE90401022000F0ABFAFFF7DBFF08B977
:1036500007B030BD2049DDE904200B684968D41A61
:1036600060EB010322464FF47A700021FCF70AFE5A
:103670001A490860FFF7D2FF28B119480068401CBA
:103680001749086009E016480068401E14490860A0
:10369000124800684042114908600F4ADDE90410F1
:1036A000116050600E48006802900C48006803905A
:1036B000002301AA02A90B48006801F0BFFF01988E
:1036C00038B14FF0805008490860BFF34F8FBFF307
:1036D0006F8F00BFBCE70000B0000020A4000020F6
:1036E000A0000020A800002004ED00E008B50020A4
:1036F000044B054A082100900A2001F0F7FD034918
:10370000086008BDC84C0020784C0020A8000020AC
:1037100010B50248FEF7F6FB10BD0000D8010020EE
:1037200070B50546AC6B0020E087E0862046FEF7CA
:10373000E7FB70BD7CB504460E46154633460122B4
:1037400002212046009500F039F828B1606D40F064
:103750002000606503207CBD164800681821B0FB7E
:10376000F1F01549B0FBF1F04FF47A714843019044
:103770006068B0F5827F0DD133460022802120465B
:10378000009500F01BF898B1606D40F02000606576
:103790000320E0E700BF019800B908E00198401E4F
:1037A000019020688068C0F3C0100028F3D100BFEA
:1037B0000020D0E71400002040420F002DE9F84F10
:1037C00004460D4690461E46DDF82890FDF7FAFCAB
:1037D000A0EB0900371AFDF7F5FC82462C4800687B
:1037E000C0F3CB307843009045E0701C002842D0F5
:1037F000FDF7E8FCA0EB0A00B84200D2A7BB2068A6
:10380000406820F0E000216848606068B0F5827F81
:103810000DD1A068B0F5004F03D0A068B0F5806F5F
:1038200005D12068006820F0400021680860A06A87
:10383000B0F5005F0DD100BF2068006820F4005093
:10384000216808602068006840F400502168086022
:1038500000BF012084F8510000BF002084F8500010
:1038600000BF0320BDE8F88FFFE7009800B90027EC
:103870000098401E0090206880682840A84201D12E
:10388000012000E000204045AFD10020EAE7000021
:103890001400002070B504460D4616464FF0FF3365
:1038A000324629462046FEF7ADFC70BD00BFFEE75C
:1038B00010B54FF0E020006902F0D4F8012801D0E3
:1038C00001F0BCFC10BD000000B593B0302107A88A
:1038D000FCF722FD142102A8FCF71EFD00BF00200A
:1038E00001902448006840F0805022490860084652
:1038F000006800F08050019000BF00BF00BF0020B2
:1039000001901D48006840F480401B49086008464B
:10391000006800F48040019000BF00BF01200790C4
:103920000004089002200D9041050E9119210F917D
:103930004FF4A8711091022111910421129107A84E
:10394000FEF790F808B1FCF7DEFE0F20029002208F
:103950000390002004904FF4A05005904FF4805045
:103960000690052102A8FDF72BFF08B1FCF7CBFE5E
:1039700013B000BD403802400070004003480068AA
:1039800040F47000014908607047000088ED00E0D5
:1039900010B50248FEF7A5FE10BD00009002002001
:1039A00010B50248FEF79DFE10BD0000D8020020B1
:1039B00010B502682D4B98420ED0B0F1804F0BD05D
:1039C0002B4B984208D02B4B984205D02A4B98425B
:1039D00002D02A4B984203D122F070024B681A435E
:1039E000224B984220D0B0F1804F1DD0204B9842FE
:1039F0001AD0204B984217D01F4B984214D01F4B1F
:103A0000984211D01E4B98420ED01E4B98420BD0BC
:103A10001D4B984208D01D4B984205D01C4B984234
:103A200002D01C4B984203D122F44072CB681A4357
:103A300022F080034C6943EA040202608B68C3628F
:103A40000B688362094B984202D00C4B984201D11B
:103A50000B69036301234361036903F001031BB195
:103A6000036923F00103036110BD00000000014061
:103A70000004004000080040000C00400004014029
:103A8000004001400044014000480140001800404F
:103A9000001C00400020004030B50C46816821F435
:103AA0007F4142EA032525432943816030BD0A4610
:103AB000816821F0700142F007031943816070476B
:103AC00030B50B461446026A056A25F00105056209
:103AD000816921F0F00141EA041122F00A021A433F
:103AE0008161026230BD30B50B461446026A056A38
:103AF00025F010050562816921F4704141EA043125
:103B000022F0A00242EA03128161026230BD00BFCE
:103B1000FEE7000002480068C0F302207047000082
:103B20000CED00E010B5002804DB0A07130E054A6F
:103B3000135406E00A07140E034A00F00F031B1F7C
:103B4000D45410BD00E400E018ED00E0EFF3058070
:103B5000704702E008C8121F08C1002AFAD1704756
:103B60007047002001E001C1121F002AFBD17047FD
:103B7000FDF71EFDFFF7A8FEFFF70CFCFFF7B6FBF5
:103B8000FFF7E4FCFFF704FDFFF756FBFFF7C0FC6F
:103B900000F014F8FFF7CEFB00F026F800BFFEE7B8
:103BA00030B50446002504E04FF47A7000F00CFFB5
:103BB0006D1CA542F8DB30BD7047000010B5FFF763
:103BC000C5FF10B16FF0050409E00648006820B990
:103BD000012004490860002401E04FF0FF34204632
:103BE00010BD00006800002070B5FFF7AFFF10B1F6
:103BF0006FF005041FE011480068012819D100BFCB
:103C0000801F0021002804DB0A07130E0C4A1354FE
:103C100006E00A07150E0B4A00F00F031B1FD554D0
:103C200000BF00BF02200549086001F01FF9002411
:103C300001E04FF0FF34204670BD00006800002016
:103C400000E400E018ED00E02DE9FF4780468946DA
:103C5000144600200390FFF779FF00284ED1B8F1F9
:103C6000000F4BD0802618258246471E44B320689B
:103C700008B1D4F800A0A06900B1A5692DB1382D14
:103C800003D8207900F0010018B1002004B0BDE88D
:103C9000F087606908B160698608A06840B1E06893
:103CA0005C2805D3206918B1606908B1012708E0D4
:103CB000A06830B9E06820B9206910B9002700E099
:103CC0000027012F0CD12169A0684B463246CDE96F
:103CD000005102905146404601F066FE03900DE00F
:103CE00067B903A8B2B24B465146CDE900504046F1
:103CF00001F028FE012801D0002003900398C5E7B9
:103D00002DE9F04105460E4616480768164800683A
:103D1000001D00F07DFE681C38B936B112480168FC
:103D2000091D124800F0D2FE1AE07C190E48006806
:103D30004460BC4207D20C480168091D0C48006869
:103D400000F0AAFE0CE008480168091D0948006857
:103D500000F0A2FE08480068844201D206480460D0
:103D6000BDE8F0812C000020180000201008002081
:103D7000200000201C0000204800002010B5044650
:103D800000F0B0FE24480068401C23490860234826
:103D9000006840B9214804600846006801280DD138
:103DA00000F00EFA0AE01E48006838B91B480068A7
:103DB000C06AE16A884201D818480460194800685E
:103DC000401C184908600846006860641649E06AAB
:103DD0000968884202D91449E06A0860E16A01EB87
:103DE0008101124A02EB8100211D00F06FFE00F0FC
:103DF000A3FE0B48006868B108480068C06AE16A21
:103E0000884207D24FF0805009490860BFF34F8FB6
:103E1000BFF36F8F10BD00002800002018000020A5
:103E20003400002044000020300000206003002007
:103E300004ED00E008B500F055FE12480068E8B94E
:103E4000114800F019FE114800F016FE0E48104906
:103E500008600E480F49086000200F4B0F4A1021E0
:103E600000900A2001F042FA0649086008460068FE
:103E700020B10BA10348006800F01EFF00F05CFEBB
:103E800008BD00005C000020240800203808002045
:103E900054000020580000204C080020A0080020FA
:103EA000546D72510000000010B516E000F01AFECB
:103EB0000C48C068C468201D00F0AAFD0A480068CC
:103EC000401E0949086009480068401E074908600B
:103ED00000F032FE204600F05FF804480068002839
:103EE000E4D110BDFC0700202800002024000020A1
:103EF00070B504460D46206C70B1216CE068014439
:103F0000E160D4E90210884201D32168E1602846CB
:103F1000226CE168FCF7E7F970BD2DE9F041044639
:103F20000F4615464FF00008A66B206C48B9206874
:103F300000282CD1A06801F04DFE80460020A06032
:103F400025E07DB93946226C6068FCF7CCF9216C1C
:103F5000606808446060D4E90101884217D3206892
:103F6000606014E03946226CE068FCF7BCF9216C13
:103F7000E068411AE1602168E068884203D2216C60
:103F8000A068411AE160022D01D106B1761E701CB5
:103F9000A0634046BDE8F08110B5044694F859008E
:103FA00030B9206B00F0E6FD204600F0E3FD1AE09A
:103FB00094F85900012803D1204600F0DBFD12E0FF
:103FC00094F85900022801D1012000E0002050B9E6
:103FD00000BF502080F31188BFF34F8FBFF36F8F66
:103FE00000BF00BFFEE710BD0146084A1268126814
:103FF0000AB9012200E000220A600A6822B9034AD5
:104000001268D268106800E0002070475400002059
:1040100030B54FF47053174800F007042CB1C01DA1
:1040200020F00700134C041B1B1B0246124C22609D
:104030000024114D6C60D018083820F007000F4C98
:10404000206000240D4D2D686C600C4D2D682C6097
:104050001146441A4C60094C24680C60084D4C68A9
:104060002C60084D4C682C604FF00044064D2C60CD
:1040700030BD0000F80F00206C000020740000200C
:104080007C000020780000208800002000BFFFF79F
:104090000BFF064800680128F9D94FF08050044909
:1040A0000860BFF34F8FBFF36F8FF0E7600300200E
:1040B00004ED00E010B5044654B10020A06020607B
:1040C0000021E16000231A461946204601F0CAF992
:1040D00010BD2DE9F04106460D4617469846069C50
:1040E0000DB9246000E02760E663256401212046C5
:1040F00001F06CF984F850800020A064BDE8F081E4
:104100002DE9F05F82460E4690469B460A9F0C9C26
:104110004FEA8801A522206BFCF7F7F8A8F101000F
:10412000216B01EB800929F0070909F0070008B9A4
:10413000012000E0002050B900BF502080F311881A
:10414000BFF34F8FBFF36F8F00BF00BFFEE786B195
:10415000002507E0715D04F134004155705D00B940
:1041600002E06D1C102DF5D300BF00214320015546
:1041700002E0002084F83400382F00D33727E762AC
:10418000E76400202065201D00F083FC04F1180086
:1041900000F07FFC2461C7F13800A0616462002058
:1041A000606584F858005A465146484600F0C2FB04
:1041B00020600B9808B10B980460BDE8F09F0000E8
:1041C00010B5002407E004EB84010F4A02EB8100E4
:1041D00000F052FC641C382CF5D30C4800F04CFC69
:1041E0000B4800F049FC0B4800F046FC0A4800F080
:1041F00043FC0A4800F040FC0448094908600448B0
:104200000849086010BD000060030020C0070020BE
:10421000D4070020E8070020FC0700201008002039
:104220001C0000202000002010B50146164800E0C8
:10423000006803688B42FBD30246436813448B42F9
:1042400004D143684C682344436001460A464B68E6
:1042500013440468A34211D10C4C03682468A342A0
:1042600008D04B680468646823444B6003681B688B
:104270000B6005E0054B1B680B6001E003680B60F9
:10428000884200D0016010BD6C0000207400002046
:104290002DE9F04104460D4616461F464FF0000832
:1042A00065602461B5420CD8F01BA169884202D335
:1042B0004FF0010811E0211D0948006800F0ECFBF7
:1042C0000BE0BE4204D2BD4202D34FF0010804E02D
:1042D000211D0448006800F0DFFB4046BDE8F08186
:1042E000580000205400002070B5054600F0FAFB8D
:1042F000A86B08B9012400E0002400F01DFC204652
:1043000070BD70B5054600F0EDFBA86BE96B884207
:1043100001D1012400E0002400F00EFC204670BD15
:10432000F1B50098846C002654B900BF502080F38A
:104330001188BFF34F8FBFF36F8F00BF00BFFEE741
:10434000A06BE16B884201D2012000E0002050B94F
:1043500000BF502080F31188BFF34F8FBFF36F8FE2
:1043600000BF00BFFEE7A06BE16B88421BD294F94F
:104370004550002269462046FFF7CFFD0646681CDF
:1043800060B9606A08B9012000E0002050B904F16A
:10439000240001F071FC28B1012603E0681C40B242
:1043A00084F8450000BF3046F8BD0000F8B505466A
:1043B0000F461A480068C068C468201D00F028FB3A
:1043C00094F8280000F00400E8B1A06941192B46D8
:1043D0003A462046FFF75CFFD8B1002003462A4644
:1043E00001460090204601F051FD064656B900BF37
:1043F000502080F31188BFF34F8FBFF36F8F00BF42
:1044000000BFFEE705E094F8280020F0010084F8E2
:1044100028002046216A8847F8BD0000540000208B
:10442000F0B587B0A0E00398002811DA04AE56B9C1
:1044300000BF502080F31188BFF34F8FBFF36F8F01
:1044400000BF00BFFEE7D6E90020B168904700BF7B
:1044500003980028E6DB059C606908B9012000E0AC
:10446000002010B9201D00F0D3FA02A800F0DEF8F9
:10447000054603980A2875D2DFE800F009050739D8
:10448000416306083A4200BF00BF00BF00BF94F876
:10449000280040F0010084F828000498A2698118DF
:1044A00003462A462046FFF7F3FEF8B12046216A6C
:1044B000884794F8280000F00400B8B1002000906C
:1044C0000498A169421800231946204601F0DEFC39
:1044D000074657B900BF502080F31188BFF34F8FB4
:1044E000BFF36F8F00BF00BFFEE700BF3BE000BF20
:1044F00094F8280020F0010084F8280033E000BF81
:1045000094F8280040F0010084F828000498A06185
:10451000A06908B1012000E0002050B900BF502080
:1045200080F31188BFF34F8FBFF36F8F00BF00BFC1
:10453000FEE7A06941192B462A462046FFF7A8FE50
:1045400011E094F8280000F0020018B9204600F0AD
:1045500011FB05E094F8280020F0010084F8280001
:1045600001E0FFE700BF00BF002203A90448006884
:1045700001F0EEF800287FF456AF07B0F0BD000060
:104580005C000020F8B505460C4600F0CBFC684600
:1045900000F04CF80646009820BB44B9B54206D856
:1045A00001F0B6FB31462846FFF700FF1CE03CB1A6
:1045B0000E480068006808B9012000E000200446A9
:1045C000A91B22460A48006800F08CFB01F0A0FB02
:1045D00050B94FF0805007490860BFF34F8FBFF3C9
:1045E0006F8F01E001F094FBF8BD0000580000203F
:1045F0005C00002004ED00E00A490968096809B977
:10460000012100E0002121B14FF0FF31064A116085
:1046100006E004490968C968C868034A416811602E
:10462000704700001C0000204800002070B50446C0
:1046300001F028FA054607480068854204D200F0D8
:104640000BF80120206001E0002020600148056097
:10465000284670BD640000202DE9F84334E0254869
:104660000068C068056823480068C068C468201DE9
:1046700000F0CEF92046216A884794F8280000F01F
:10468000040008B3A0694619AE4207D966602461E8
:10469000211D1848006800F0FFF915E000200346CE
:1046A0002A4601460090204601F0F0FB074657B924
:1046B00000BF502080F31188BFF34F8FBFF36F8F7F
:1046C00000BF00BFFEE700BF0A480068006808B9E5
:1046D000012000E000200028C1D00648D0F800806A
:1046E00005480068034908600348C0F80080BDE839
:1046F000F883000054000020580000200E48006895
:10470000401C08B9012000E0002050B900BF502033
:1047100080F31188BFF34F8FBFF36F8F00BF00BFCF
:10472000FEE700BF502080F31188BFF34F8FBFF327
:104730006F8F00BF00BFFEE78C00002008B500BFF0
:104740006846FFF751FC044620460099FFF71AFF20
:10475000FFF766FEF4E770B5044600F0C3F994F97C
:10476000455019E0A06C30B12046FFF7D9FD88B163
:1047700000F0EAFA0EE0606A08B9012000E00020CB
:1047800038B904F1240001F077FA18B100F0DCFA2E
:1047900000E003E0681E45B2002DE3DC00BFFF200F
:1047A00084F8450000F0C8F900F09CF994F94450F1
:1047B00010E0206908B9012000E0002048B904F1A8
:1047C000100001F059FA08B100F0BEFA681E45B2B7
:1047D00000E001E0002DECDC00BFFF2084F8440085
:1047E00000F0AAF970BD00002DE9F04104464FF039
:1047F000000800F097FB4948006808B9FFF708FC7B
:10480000474800682040002870D1D4B1083404F033
:104810000700B0B104F00700C0F10800044404F040
:10482000070008B9012000E0002050B900BF502067
:1048300080F31188BFF34F8FBFF36F8F00BF00BFAE
:10484000FEE7002C52D03748006884424ED8364EDE
:104850003046056801E02E462D686868A04202D205
:1048600028680028F7D12D48006885423ED030687E
:1048700000F10808286830606868001B102819D902
:104880002F1907F0070008B9012000E0002050B9F7
:1048900000BF502080F31188BFF34F8FBFF36F8F9D
:1048A00000BF00BFFEE76868001B78606C60384698
:1048B000FFF7BAFC1B4968680968081A19490860BB
:1048C0000846006819490968884203D215480068FB
:1048D0001649086012496868096808436860002042
:1048E000286013480068401C1149086001F010FA64
:1048F00008F0070008B9012000E0002050B900BF0F
:10490000502080F31188BFF34F8FBFF36F8F00BF2C
:1049100000BFFEE74046BDE8F081000074000020C3
:1049200088000020780000206C0000207C0000201F
:1049300080000020001F4FF080730360001F21F0F3
:1049400001030360001F054B036014380260001F61
:104950006FF002030360203870470000FD46000836
:104960002DE9FC5FDFF85CA0FCF72CFC0025044679
:10497000DAF80000D0F82480A946DAF80000C06A0E
:104980000021CDE900014FF47A722046A0FB0267B6
:1049900005FB027204FB012534464FF47A710020B6
:1049A0004246A2FB016B09FB01B108FB0011304636
:1049B000DDE90023FBF766FC04194D41204629463A
:1049C000BDE8FC9FD8020020F0B504460F4A002342
:1049D0001768FD6A04FB05F74FF47A7CB7FBFCF619
:1049E0001768796A0FE01768786A88420BD08842A6
:1049F00002D9471A3B4402E06F1A07443B44014680
:104A0000B34200D300E0EEE700BFF0BDD8020020C3
:104A100001460A69D1E901309860D1E90103586083
:104A20005068884201D18868506000200861106891
:104A3000401E106010687047034B0360034B0B600F
:104A40008023136070470000400900209C0900206B
:104A5000034B0360034B0B604FF48073136070478C
:104A60009C0B0020F80B002070B504460D4629462B
:104A7000204600F0B6FA70BD00F1080141604FF029
:104A8000FF31816000F10801C16001610021016016
:104A9000704700210161704710B502460B685C1C2D
:104AA0000CB9106907E002F1080000E040684468B2
:104AB00024689C42FAD944684C604C68A1608860C4
:104AC00041600A611468641C146010BD42684A6049
:104AD00093688B60936859609160086103685B1C00
:104AE0000360704700BF502080F31188BFF34F8FE1
:104AF000BFF36F8F00BF0E480068401C0C49086070
:104B000008460068012812D10A480068C0B208B9F6
:104B1000012000E0002050B900BF502080F3118830
:104B2000BFF34F8FBFF36F8F00BF00BFFEE770472B
:104B30008C00002004ED00E00D48006850B900BF73
:104B4000502080F31188BFF34F8FBFF36F8F00BFEA
:104B500000BFFEE706480068401E05490860084699
:104B6000006820B9002080F3118800BF00BF7047A3
:104B70008C00002070B506463546002E44D0083D16
:104B80002C46224960680968084008B1012000E00D
:104B9000002050B900BF502080F31188BFF34F8F21
:104BA000BFF36F8F00BF00BFFEE7206808B9012088
:104BB00000E0002050B900BF502080F31188BFF3FF
:104BC0004F8FBFF36F8F00BF00BFFEE70F496068D4
:104BD00009680840C0B12068B0B90C49606809682C
:104BE0008843606000F09EF90949606809680844DC
:104BF000074908602046FFF717FB06480068401C7D
:104C00000449086001F084F870BD000088000020AD
:104C1000780000208400002000204FF0E02108618F
:104C20008861064800684FF47A71B0FBF1F0401ECD
:104C30004FF0E02148610720086170471400002010
:104C400070B5FBF709FB0446102C16D304F1E020E5
:104C500090F8F05315480078854201DB012000E010
:104C6000002050B900BF502080F31188BFF34F8F50
:104C7000BFF36F8F00BF00BFFEE70D48006800F470
:104C8000E0600C490968884201D8012000E000205A
:104C900050B900BF502080F31188BFF34F8FBFF38E
:104CA0006F8F00BF00BFFEE770BD000090000020C6
:104CB0000CED00E094000020024600200BE0084BC1
:104CC00053F8303033B9064B43F8301003EBC003D0
:104CD0005A6002E0401C0828F1D300BF7047000072
:104CE000200300202DE9F04105460E4617462C46CC
:104CF000FFF7F8FE94F94400401C10B9002084F836
:104D0000440094F94500401C10B9002084F8450087
:104D1000FFF712FFA06B28B93A46314604F1240090
:104D200000F034F82046FFF716FDBDE8F0810000E2
:104D30000349096801600349096841607047000040
:104D4000400000202C00002001200149086070472D
:104D50003C00002070B504460D4654B900BF5020F9
:104D600080F31188BFF34F8FBFF36F8F00BF00BF79
:104D7000FEE70548016818312046FFF78DFE012146
:104D80002846FEF7BDFF70BD1800002070B505462F
:104D90000E46144655B900BF502080F31188BFF36A
:104DA0004F8FBFF36F8F00BF00BFFEE7064801685B
:104DB00018312846FFF78AFE0CB14FF0FF36214626
:104DC0003046FEF79DFF70BD1800002070B5054607
:104DD0000E462148006808B1012000E0002050B9CB
:104DE00000BF502080F31188BFF34F8FBFF36F8F48
:104DF00000BF00BFFEE746F000402860EC6854B9F1
:104E000000BF502080F31188BFF34F8FBFF36F8F27
:104E100000BF00BFFEE72846FFF7FAFD201DFFF7A1
:104E2000F7FD0E49E06A0968884202D90B49E06A39
:104E30000860E16A01EB8101094A02EB8100211D52
:104E4000FFF744FE0749E06A0968C96A884202D947
:104E500001200549086070BD50000020300000208E
:104E600060030020180000203C00002010B586B030
:104E700000200590049003AA04A905A8FFF7DCFD13
:104E80000022DDE904101346CDE9002102901EA1A5
:104E90001F48039A00F088FD1E4908600846006814
:104EA00008B1012400E00024012C02D100F0B2FF7F
:104EB0000446012C15D100BF502080F31188BFF3A8
:104EC0004F8FBFF36F8F00BF4FF0FF301249086064
:104ED00001201249086000201149086000F0FAF82A
:104EE00010E0601C08B1012000E0002050B900BFB4
:104EF000502080F31188BFF34F8FBFF36F8F00BF37
:104F000000BFFEE706B010BD49444C45000000005C
:104F10008D4000084C000020480000203400002094
:104F20002C00002002480068401C014908607047BE
:104F3000500000201E48006818B101201D4908607B
:104F400034E000201B4908601B4801680CE051B99F
:104F500000BF502080F31188BFF34F8FBFF36F8FD6
:104F600000BF00BFFEE7491E01EB8100134A52F863
:104F7000200008B9012000E000200028E7D101EB63
:104F800081020E4B03EB820042685268426000F1DE
:104F900008024368934202D1426852684260426804
:104FA000D268074B1A600448016000BF70470000D8
:104FB000500000203C000020300000206003002052
:104FC0001800002010B52020FFF70EFC044634B175
:104FD00000202060201DFFF74FFD00202077204695
:104FE00010BD2DE9FE4F07468846002001903C4643
:104FF000009057B900BF502080F31188BFF34F8F46
:10500000BFF36F8F00BF00BFFEE708F07F4008B915
:10501000012000E0002050B900BF502080F311882B
:10502000BFF34F8FBFF36F8F00BF00BFFEE704F1E8
:10503000040909F108000290FFF774FFD9F80C6029
:10504000206840EA0800206026E0D6F804B0356801
:105050000020009005F07F4A25F07F450AF080602F
:1050600028B92068284040B10120009005E0206860
:105070002840A84201D101200090009858B10AF0C0
:10508000807010B1019828430190206840F00071B1
:105090003046FFF79BFE5E4602988642D5D12068D7
:1050A00001998843206000F033FE2068BDE8FE8F40
:1050B0002DE9F04104460D46164633462A46214660
:1050C000034800F025FF07463846BDE8F0810000A0
:1050D000694A00081CB5524800685249884201D00C
:1050E000012000E0002050B900BF502080F311885B
:1050F000BFF34F8FBFF36F8F00BF00BFFEE748487D
:1051000000684849491E884201D0012000E0002083
:1051100050B900BF502080F31188BFF34F8FBFF309
:105120006F8F00BF00BFFEE73F490846007801903F
:10513000FF200A4610700846007800909DF8000095
:1051400000F0F0009DF80020904201D1012000E025
:10515000002050B900BF502080F31188BFF34F8F5B
:10516000BFF36F8F00BF00BFFEE79DF8000000F0A7
:1051700050002E4A107007202D4A106009E02C487C
:105180000068401E2A4A10609DF800004006000E8C
:1051900000909DF8000000F080008028EFD02448A7
:1051A0000068C0F10700042801D1012000E00020C0
:1051B00050B900BF502080F31188BFF34F8FBFF369
:1051C0006F8F00BF00BFFEE7194800680002184A51
:1051D00010601046008800F4E0601060124A0198E8
:1051E00010700F482030006840F470000C492031E6
:1051F00008600846006840F070400860FFF70CFD4A
:1052000000200C490860FAF7EFFF0B48006840F0F7
:10521000404009490860FAF7D3FF00201CBD000098
:1052200000ED00E071C20F4100E400E090000020BA
:10523000940000208C00002034EF00E010B500BF87
:10524000502080F31188BFF34F8FBFF36F8F00BFE3
:1052500000F01EFC18B14FF080500449086000BFF8
:10526000002080F3118800BF10BD000004ED00E0B5
:105270002DE9F041044601260027224600210120A5
:1052800000F007F805462846FEF714FF2846BDE85B
:10529000F0812DE9F84305460E4617460DB1012071
:1052A00000E0002050B900BF502080F31188BFF308
:1052B0004F8FBFF36F8F00BF00BFFEE705FB06F8FF
:1052C00008F15400FFF790FA044664B1A14609F1D1
:1052D0005409002084F846003B464A463146284699
:1052E0000094FEF7F6FE2046BDE8F8832DE9F8436A
:1052F00080460E4617461D46DDF82090B8F1000F97
:1053000001D0012000E0002050B900BF502080F300
:105310001188BFF34F8FBFF36F8F00BF00BFFEE751
:105320000DB1012000E0002050B900BF502080F3F3
:105330001188BFF34F8FBFF36F8F00BF00BFFEE731
:1053400007B10EB1012000E0002050B900BF50208D
:1053500080F31188BFF34F8FBFF36F8F00BF00BF83
:10536000FEE707B90EB9012000E0002050B900BFE8
:10537000502080F31188BFF34F8FBFF36F8F00BFB2
:1053800000BFFEE7542000900098542801D101206E
:1053900000E0002050B900BF502080F31188BFF317
:1053A0004F8FBFF36F8F00BF00BFFEE700BF2C46DB
:1053B0004CB1012084F846004B463A4631464046FF
:1053C0000094FEF786FE2046BDE8F88370B50546DA
:1053D0000E462C4654B900BF502080F31188BFF30D
:1053E0004F8FBFF36F8F00BF00BFFEE7FFF77AFB61
:1053F000D4E90F12206801FB0200A0600020A06326
:1054000020686060E06B401E226C216800FB021186
:10541000E160FF2084F8440084F845009EB92069CB
:1054200008B9012000E00020A8B904F1100000F044
:1054300023FC80B14FF0805009490860BFF34F8FC3
:10544000BFF36F8F07E004F11000FFF715FB04F1C5
:105450002400FFF711FBFFF76FFB012070BD000078
:1054600004ED00E02DE9FF4782B0064688461D4660
:105470004FF00009344654B900BF502080F3118822
:10548000BFF34F8FBFF36F8F00BF00BFFEE7B8F1D0
:10549000000F01D1206C08B9012000E0002050B9B4
:1054A00000BF502080F31188BFF34F8FBFF36F8F81
:1054B00000BF00BFFEE7022D02D1E06B012801D141
:1054C000012000E0002050B900BF502080F3118877
:1054D000BFF34F8FBFF36F8F00BF00BFFEE700F039
:1054E000C1FA08B9049808B9012000E0002050B9B9
:1054F00000BF502080F31188BFF34F8FBFF36F8F31
:1055000000BF00BFFEE700BFFFF7ECFAA06BE16B46
:10551000884201D3022D3ED1D4F838A02A46414614
:105520002046FEF7FAFC0746A06C88B1022D02D196
:10553000BAF1000F29D12046FEF7F2FE28B34FF052
:1055400080503D490860BFF34F8FBFF36F8F1CE061
:10555000606A08B9012000E0002068B904F1240065
:1055600000F08AFB88B14FF0805033490860BFF3E8
:105570004F8FBFF36F8F08E03FB14FF080502E493F
:105580000860BFF34F8FBFF36F8FFFF7D5FA01208D
:1055900006B0BDE8F087049818B9FFF7CDFA0020EF
:1055A000F6E7B9F1000F04D16846FFF7C1FB4FF0F1
:1055B0000109FFF7C1FAFFF7B5FCFFF793FA94F979
:1055C0004400401C10B9002084F8440094F94500C0
:1055D000401C10B9002084F84500FFF7ADFA04A97B
:1055E000684600F069F9F8B92046FEF78AFEA8B1CE
:1055F00004F110000499FFF7ADFB2046FFF7ABF86C
:1056000000F086FB00287FF47FAF4FF080500A49FE
:105610000860BFF34F8FBFF36F8F75E72046FFF72A
:105620009AF800F075FB6FE72046FFF794F800F05A
:105630006FFB0020ACE7000004ED00E02DE9F84F1F
:1056400080468A4615461E46444654B900BF50203F
:1056500080F31188BFF34F8FBFF36F8F00BF00BF80
:10566000FEE7BAF1000F01D1206C08B9012000E07B
:10567000002050B900BF502080F31188BFF34F8F36
:10568000BFF36F8F00BF00BFFEE7022E02D1E06BB9
:10569000012801D1012000E0002050B900BF5020B6
:1056A00080F31188BFF34F8FBFF36F8F00BF00BF30
:1056B000FEE7FFF7C5FA00BF5021EFF3118081F339
:1056C0001188BFF34F8FBFF36F8F00BF0746A06BEA
:1056D000E16B884201D3022E30D194F945B0A06B22
:1056E0000090324651462046FEF717FC0BF10100B0
:1056F000E0B9A06C58B1022E01D10098D8B920466B
:10570000FEF70EFEB8B1B5B10120286013E0606A63
:1057100008B9012000E0002068B904F1240000F07D
:10572000ABFA40B13DB10120286004E00BF101006B
:1057300040B284F845004FF0010901E04FF0000944
:1057400000BF87F3118800BF4846BDE8F88F00000E
:105750002DE9F74183B005460E464FF000082C4670
:1057600054B900BF502080F31188BFF34F8FBFF3AF
:105770006F8F00BF00BFFEE70EB9206C08B9012093
:1057800000E0002050B900BF502080F31188BFF323
:105790004F8FBFF36F8F00BF00BFFEE700F062F9CD
:1057A00008B9059808B9012000E0002050B900BFF1
:1057B000502080F31188BFF34F8FBFF36F8F00BF6E
:1057C00000BFFEE700BFFFF78DF9A76BF7B13146C9
:1057D0002046FEF78DFB781EA063206908B90120E2
:1057E00000E0002060B904F1100000F045FA38B183
:1057F0004FF080502F490860BFF34F8FBFF36F8F7A
:10580000FFF79AF9012006B0BDE8F081059818B9B4
:10581000FFF792F90020F6E7B8F1000F04D101A8D4
:10582000FFF786FA4FF00108FFF786F9FFF77AFBDA
:10583000FFF758F994F94400401C10B9002084F88F
:10584000440094F94500401C10B9002084F845003C
:10585000FFF772F905A901A800F02EF8F0B920466B
:10586000FEF742FDA0B104F124000599FFF772FA9A
:105870002046FEF770FF00F04BFA0028A3D14FF04E
:1058800080500C490860BFF34F8FBFF36F8F9AE7CA
:105890002046FEF760FF00F03BFA94E72046FEF753
:1058A0005AFF00F035FA2046FEF71EFD00288AD088
:1058B0000020A8E704ED00E070B505460C4655B998
:1058C00000BF502080F31188BFF34F8FBFF36F8F5D
:1058D00000BF00BFFEE754B900BF502080F311881D
:1058E000BFF34F8FBFF36F8F00BF00BFFEE7FFF71F
:1058F000F9F8124802686868131A2068401C08B951
:10590000002617E00E4928680968884204D06868B4
:10591000904201D801260DE02068984207D92068FE
:10592000C01A20602846FFF703FA002602E0002094
:1059300020600126FFF700F9304670BD2C000020E2
:10594000400000202DE9FF4F85B08046894617466C
:10595000DDE912ABB800FEF747FF064656B15C2002
:10596000FEF742FF04460CB1266304E03046FFF721
:1059700001F900E000248CB1002084F85900CDE941
:1059800000ABCDE902403A4649464046089BFEF747
:10599000B7FB2046FEF7F2F9012501E04FF0FF3595
:1059A000284609B0BDE8F08F2DE9F04F85B00746D5
:1059B000884691469A46DDE90EB6109C0EB101204C
:1059C00000E0002050B900BF502080F31188BFF3E1
:1059D0004F8FBFF36F8F00BF00BFFEE70CB10120F8
:1059E00000E0002050B900BF502080F31188BFF3C1
:1059F0004F8FBFF36F8F00BF00BFFEE75C200390A7
:105A000003985C2801D1012000E0002050B900BFBC
:105A1000502080F31188BFF34F8FBFF36F8F00BF0B
:105A200000BFFEE700BFB4B1AEB125462C462E63E1
:105A3000022085F85900002004A953464A46CDE9C2
:105A400000B1CDE9025041463846FEF759FB2846E1
:105A5000FEF794F901E000200490049805B0BDE839
:105A6000F08F00000549096809B9012005E00449E3
:105A7000096809B9022000E00020704734000020C6
:105A80005000002001490868704700002C000020E9
:105A90002DE9F0414FF000084348006800287BD111
:105AA00042480068451C4148056015BB40480068F5
:105AB000006808B9012000E0002050B900BF502064
:105AC00080F31188BFF34F8FBFF36F8F00BF00BF0C
:105AD000FEE73748076837480068354908603548A9
